{
  "_format": "hh-sol-artifact-1",
  "contractName": "TokenVesting",
  "sourceName": "contracts/TokenVesting.sol",
  "abi": [
    {
      "inputs": [
        {
          "internalType": "contract IERC20",
          "name": "_token",
          "type": "address"
        },
        {
          "internalType": "uint256",
          "name": "_tge",
          "type": "uint256"
        },
        {
          "internalType": "uint256",
          "name": "_cliff",
          "type": "uint256"
        },
        {
          "internalType": "uint256",
          "name": "_duration",
          "type": "uint256"
        }
      ],
      "stateMutability": "nonpayable",
      "type": "constructor"
    },
    {
      "anonymous": false,
      "inputs": [
        {
          "indexed": true,
          "internalType": "address",
          "name": "previousOwner",
          "type": "address"
        },
        {
          "indexed": true,
          "internalType": "address",
          "name": "newOwner",
          "type": "address"
        }
      ],
      "name": "OwnershipTransferred",
      "type": "event"
    },
    {
      "anonymous": false,
      "inputs": [
        {
          "indexed": false,
          "internalType": "address",
          "name": "beneficiary",
          "type": "address"
        },
        {
          "indexed": false,
          "internalType": "uint256",
          "name": "amount",
          "type": "uint256"
        }
      ],
      "name": "Released",
      "type": "event"
    },
    {
      "anonymous": false,
      "inputs": [
        {
          "indexed": false,
          "internalType": "address",
          "name": "beneficiary",
          "type": "address"
        },
        {
          "indexed": false,
          "internalType": "uint256",
          "name": "amount",
          "type": "uint256"
        }
      ],
      "name": "Unlocked",
      "type": "event"
    },
    {
      "inputs": [],
      "name": "TGE",
      "outputs": [
        {
          "internalType": "uint256",
          "name": "",
          "type": "uint256"
        }
      ],
      "stateMutability": "view",
      "type": "function"
    },
    {
      "inputs": [
        {
          "internalType": "address",
          "name": "_beneficiary",
          "type": "address"
        },
        {
          "internalType": "uint256",
          "name": "_tgeUnlockAmount",
          "type": "uint256"
        },
        {
          "internalType": "uint256",
          "name": "_vestingAmount",
          "type": "uint256"
        }
      ],
      "name": "addBeneficiary",
      "outputs": [],
      "stateMutability": "nonpayable",
      "type": "function"
    },
    {
      "inputs": [
        {
          "internalType": "address[]",
          "name": "_beneficiaries",
          "type": "address[]"
        },
        {
          "internalType": "uint256[]",
          "name": "_tgeUnlockAmounts",
          "type": "uint256[]"
        },
        {
          "internalType": "uint256[]",
          "name": "_vestingAmounts",
          "type": "uint256[]"
        }
      ],
      "name": "addMultiBeneficiaries",
      "outputs": [],
      "stateMutability": "nonpayable",
      "type": "function"
    },
    {
      "inputs": [
        {
          "internalType": "uint256",
          "name": "",
          "type": "uint256"
        }
      ],
      "name": "beneficiaries",
      "outputs": [
        {
          "internalType": "address",
          "name": "",
          "type": "address"
        }
      ],
      "stateMutability": "view",
      "type": "function"
    },
    {
      "inputs": [
        {
          "internalType": "address",
          "name": "_beneficiary",
          "type": "address"
        }
      ],
      "name": "calculateReleaseAmount",
      "outputs": [
        {
          "internalType": "uint256",
          "name": "",
          "type": "uint256"
        }
      ],
      "stateMutability": "view",
      "type": "function"
    },
    {
      "inputs": [],
      "name": "cliff",
      "outputs": [
        {
          "internalType": "uint256",
          "name": "",
          "type": "uint256"
        }
      ],
      "stateMutability": "view",
      "type": "function"
    },
    {
      "inputs": [],
      "name": "duration",
      "outputs": [
        {
          "internalType": "uint256",
          "name": "",
          "type": "uint256"
        }
      ],
      "stateMutability": "view",
      "type": "function"
    },
    {
      "inputs": [
        {
          "internalType": "contract IERC20",
          "name": "_token",
          "type": "address"
        },
        {
          "internalType": "uint256",
          "name": "_tge",
          "type": "uint256"
        },
        {
          "internalType": "uint256",
          "name": "_cliff",
          "type": "uint256"
        },
        {
          "internalType": "uint256",
          "name": "_duration",
          "type": "uint256"
        }
      ],
      "name": "init",
      "outputs": [],
      "stateMutability": "nonpayable",
      "type": "function"
    },
    {
      "inputs": [],
      "name": "owner",
      "outputs": [
        {
          "internalType": "address",
          "name": "",
          "type": "address"
        }
      ],
      "stateMutability": "view",
      "type": "function"
    },
    {
      "inputs": [],
      "name": "release",
      "outputs": [],
      "stateMutability": "nonpayable",
      "type": "function"
    },
    {
      "inputs": [
        {
          "internalType": "address",
          "name": "_beneficiary",
          "type": "address"
        }
      ],
      "name": "releaseFor",
      "outputs": [],
      "stateMutability": "nonpayable",
      "type": "function"
    },
    {
      "inputs": [
        {
          "internalType": "address",
          "name": "",
          "type": "address"
        }
      ],
      "name": "released",
      "outputs": [
        {
          "internalType": "uint256",
          "name": "",
          "type": "uint256"
        }
      ],
      "stateMutability": "view",
      "type": "function"
    },
    {
      "inputs": [],
      "name": "renounceOwnership",
      "outputs": [],
      "stateMutability": "nonpayable",
      "type": "function"
    },
    {
      "inputs": [],
      "name": "requestWithdraw",
      "outputs": [],
      "stateMutability": "nonpayable",
      "type": "function"
    },
    {
      "inputs": [
        {
          "internalType": "address",
          "name": "",
          "type": "address"
        }
      ],
      "name": "shares",
      "outputs": [
        {
          "internalType": "uint256",
          "name": "",
          "type": "uint256"
        }
      ],
      "stateMutability": "view",
      "type": "function"
    },
    {
      "inputs": [],
      "name": "start",
      "outputs": [
        {
          "internalType": "uint256",
          "name": "",
          "type": "uint256"
        }
      ],
      "stateMutability": "view",
      "type": "function"
    },
    {
      "inputs": [
        {
          "internalType": "address",
          "name": "",
          "type": "address"
        }
      ],
      "name": "tgeUnlock",
      "outputs": [
        {
          "internalType": "uint256",
          "name": "",
          "type": "uint256"
        }
      ],
      "stateMutability": "view",
      "type": "function"
    },
    {
      "inputs": [],
      "name": "token",
      "outputs": [
        {
          "internalType": "contract IERC20",
          "name": "",
          "type": "address"
        }
      ],
      "stateMutability": "view",
      "type": "function"
    },
    {
      "inputs": [],
      "name": "totalBeneficiaries",
      "outputs": [
        {
          "internalType": "uint256",
          "name": "",
          "type": "uint256"
        }
      ],
      "stateMutability": "view",
      "type": "function"
    },
    {
      "inputs": [],
      "name": "totalLockAmount",
      "outputs": [
        {
          "internalType": "uint256",
          "name": "",
          "type": "uint256"
        }
      ],
      "stateMutability": "view",
      "type": "function"
    },
    {
      "inputs": [],
      "name": "totalReleased",
      "outputs": [
        {
          "internalType": "uint256",
          "name": "",
          "type": "uint256"
        }
      ],
      "stateMutability": "view",
      "type": "function"
    },
    {
      "inputs": [],
      "name": "totalUnlocked",
      "outputs": [
        {
          "internalType": "uint256",
          "name": "",
          "type": "uint256"
        }
      ],
      "stateMutability": "view",
      "type": "function"
    },
    {
      "inputs": [],
      "name": "totalVestingAmount",
      "outputs": [
        {
          "internalType": "uint256",
          "name": "",
          "type": "uint256"
        }
      ],
      "stateMutability": "view",
      "type": "function"
    },
    {
      "inputs": [
        {
          "internalType": "address",
          "name": "newOwner",
          "type": "address"
        }
      ],
      "name": "transferOwnership",
      "outputs": [],
      "stateMutability": "nonpayable",
      "type": "function"
    },
    {
      "inputs": [],
      "name": "unlock",
      "outputs": [],
      "stateMutability": "nonpayable",
      "type": "function"
    },
    {
      "inputs": [],
      "name": "unlockAndRelease",
      "outputs": [],
      "stateMutability": "nonpayable",
      "type": "function"
    },
    {
      "inputs": [
        {
          "internalType": "address",
          "name": "_beneficiary",
          "type": "address"
        }
      ],
      "name": "unlockFor",
      "outputs": [],
      "stateMutability": "nonpayable",
      "type": "function"
    },
    {
      "inputs": [
        {
          "internalType": "address",
          "name": "",
          "type": "address"
        }
      ],
      "name": "unlocked",
      "outputs": [
        {
          "internalType": "uint256",
          "name": "",
          "type": "uint256"
        }
      ],
      "stateMutability": "view",
      "type": "function"
    },
    {
      "inputs": [
        {
          "internalType": "address",
          "name": "_token",
          "type": "address"
        },
        {
          "internalType": "address payable",
          "name": "_to",
          "type": "address"
        }
      ],
      "name": "withdraw",
      "outputs": [],
      "stateMutability": "nonpayable",
      "type": "function"
    },
    {
      "inputs": [],
      "name": "withdrawAt",
      "outputs": [
        {
          "internalType": "uint256",
          "name": "",
          "type": "uint256"
        }
      ],
      "stateMutability": "view",
      "type": "function"
    }
  ],
  "bytecode": "0x60806040526000600a556000600b556000600d553480156200002057600080fd5b5060405162001c6c38038062001c6c83398101604081905262000043916200014c565b62000057620000516200006f565b62000073565b6200006584848484620000c3565b5050505062000206565b3390565b600080546001600160a01b038381166001600160a01b0319831681178455604051919092169283917f8be0079c531659141344cd1fd0a4f28419497f9722a3daafe3b4186f6b6457e09190a35050565b80821115620000ef5760405162461bcd60e51b8152600401620000e69062000197565b60405180910390fd5b600180546001600160a01b0319166001600160a01b038616179055600583905560038390556200012c838362000137602090811b62000bc617901c565b600255600455505050565b6000620001458284620001e1565b9392505050565b6000806000806080858703121562000162578384fd5b84516001600160a01b038116811462000179578485fd5b60208601516040870151606090970151919890975090945092505050565b6020808252602a908201527f436c6966662068617320746f206265206c6f776572206f7220657175616c20746040820152693790323ab930ba34b7b760b11b606082015260800190565b600082198211156200020157634e487b7160e01b81526011600452602481fd5b500190565b611a5680620002166000396000f3fe608060405234801561001057600080fd5b50600436106101da5760003560e01c8063be9a655511610104578063dde49979116100a2578063f2fde38b11610071578063f2fde38b14610342578063f74bc9d614610355578063f940e38514610368578063fc0c546a1461037b576101da565b8063dde4997914610301578063e33b7de314610314578063ec0904f71461031c578063efeb5e581461032f576101da565b8063c6668c97116100de578063c6668c97146102cb578063ce7c2ac2146102d3578063d01a69c9146102e6578063d1846d0c146102ee576101da565b8063be9a6555146102a8578063c2d01192146102b0578063c49c63d0146102c3576101da565b80638867596f1161017c578063a111bab91161014b578063a111bab914610288578063a69df4b514610290578063a779d08014610298578063b3423eec146102a0576101da565b80638867596f146102455780638da5cb5b1461024d5780639852595c1461026257806398c36c0914610275576101da565b80632db94d19116101b85780632db94d19146102185780633f22da6f14610220578063715018a61461023557806386d1a69f1461023d576101da565b80630fb5a6b4146101df5780631285e312146101fd57806313d033c014610210575b600080fd5b6101e7610383565b6040516101f491906118d3565b60405180910390f35b6101e761020b3660046111e7565b610389565b6101e761044f565b6101e7610455565b61023361022e36600461126f565b6104d2565b005b6102336105be565b610233610609565b6101e7610612565b610255610618565b6040516101f491906113fb565b6101e76102703660046111e7565b610627565b610233610283366004611372565b610639565b6101e7610684565b6102336106cf565b6101e76106d8565b6102336106de565b6101e761072f565b6101e76102be3660046111e7565b610735565b610233610747565b6101e7610750565b6101e76102e13660046111e7565b610756565b6101e7610768565b6101e76102fc3660046111e7565b61076e565b61023361030f3660046111e7565b610780565b6101e76107cb565b61023361032a3660046111e7565b6107d1565b61025561033d3660046113ac565b610819565b6102336103503660046111e7565b610843565b61023361036336600461123b565b6108b1565b610233610376366004611203565b610a1f565b610255610bb7565b60045481565b600060025442101561039d5750600061044a565b6004546003546103ac91610bc6565b4211156103e8576001600160a01b0382166000908152600860209081526040808320546006909252909120546103e191610bd9565b905061044a565b6001600160a01b0382166000908152600860205260409020546004546003546103e192916104449161043e9061041f904290610bd9565b6001600160a01b03881660009081526006602052604090205490610be5565b90610bf1565b90610bd9565b919050565b60025481565b600080805b600c548110156104cc576104b860066000600c848154811061048c57634e487b7160e01b600052603260045260246000fd5b60009182526020808320909101546001600160a01b031683528201929092526040019020548390610bc6565b9150806104c4816119c4565b91505061045a565b50905090565b6104da610bfd565b6001600160a01b03166104eb610618565b6001600160a01b03161461051a5760405162461bcd60e51b81526004016105119061164e565b60405180910390fd5b60005b83518110156105b8576105a684828151811061054957634e487b7160e01b600052603260045260246000fd5b602002602001015184838151811061057157634e487b7160e01b600052603260045260246000fd5b602002602001015184848151811061059957634e487b7160e01b600052603260045260246000fd5b60200260200101516108b1565b806105b0816119c4565b91505061051d565b50505050565b6105c6610bfd565b6001600160a01b03166105d7610618565b6001600160a01b0316146105fd5760405162461bcd60e51b81526004016105119061164e565b6106076000610c01565b565b61060733610c5e565b60055481565b6000546001600160a01b031690565b60086020526000908152604090205481565b610641610bfd565b6001600160a01b0316610652610618565b6001600160a01b0316146106785760405162461bcd60e51b81526004016105119061164e565b6105b884848484610de0565b600080805b600c548110156104cc576106bb60076000600c848154811061048c57634e487b7160e01b600052603260045260246000fd5b9150806106c7816119c4565b915050610689565b61060733610e47565b600b5481565b6106e6610bfd565b6001600160a01b03166106f7610618565b6001600160a01b03161461071d5760405162461bcd60e51b81526004016105119061164e565b61072a4262093a8061192a565b600d55565b60035481565b60076020526000908152604090205481565b61060933610e47565b600d5481565b60066020526000908152604090205481565b600c5490565b60096020526000908152604090205481565b610788610bfd565b6001600160a01b0316610799610618565b6001600160a01b0316146107bf5760405162461bcd60e51b81526004016105119061164e565b6107c881610e47565b50565b600a5481565b6107d9610bfd565b6001600160a01b03166107ea610618565b6001600160a01b0316146108105760405162461bcd60e51b81526004016105119061164e565b6107c881610c5e565b600c818154811061082957600080fd5b6000918252602090912001546001600160a01b0316905081565b61084b610bfd565b6001600160a01b031661085c610618565b6001600160a01b0316146108825760405162461bcd60e51b81526004016105119061164e565b6001600160a01b0381166108a85760405162461bcd60e51b8152600401610511906114c9565b6107c881610c01565b6108b9610bfd565b6001600160a01b03166108ca610618565b6001600160a01b0316146108f05760405162461bcd60e51b81526004016105119061164e565b6001600160a01b0383166109165760405162461bcd60e51b815260040161051190611876565b600081116109365760405162461bcd60e51b8152600401610511906117ab565b6001600160a01b0383166000908152600660205260409020546109ac57600c80546001810182556000919091527fdf6966c971051c3d54ec59162606531493a51404a002842f56009d7e5cf4a8c701805473ffffffffffffffffffffffffffffffffffffffff19166001600160a01b0385161790555b6001600160a01b0383166000908152600660205260409020546109cf9082610bc6565b6001600160a01b0384166000908152600660209081526040808320939093556007905220546109fe9083610bc6565b6001600160a01b039093166000908152600760205260409020929092555050565b610a27610bfd565b6001600160a01b0316610a38610618565b6001600160a01b031614610a5e5760405162461bcd60e51b81526004016105119061164e565b6000600d54118015610a71575042600d54105b610a8d5760405162461bcd60e51b815260040161051190611492565b6001600160a01b038216610b1d576000816001600160a01b031647604051610ab4906113f8565b60006040518083038185875af1925050503d8060008114610af1576040519150601f19603f3d011682016040523d82523d6000602084013e610af6565b606091505b5050905080610b175760405162461bcd60e51b81526004016105119061183f565b50610bae565b610bae81836001600160a01b03166370a08231306040518263ffffffff1660e01b8152600401610b4d91906113fb565b60206040518083038186803b158015610b6557600080fd5b505afa158015610b79573d6000803e3d6000fd5b505050506040513d601f19601f82011682018060405250810190610b9d91906113c4565b6001600160a01b0385169190610f4e565b50506000600d55565b6001546001600160a01b031681565b6000610bd2828461192a565b9392505050565b6000610bd28284611981565b6000610bd28284611962565b6000610bd28284611942565b3390565b600080546001600160a01b0383811673ffffffffffffffffffffffffffffffffffffffff19831681178455604051919092169283917f8be0079c531659141344cd1fd0a4f28419497f9722a3daafe3b4186f6b6457e09190a35050565b6001600160a01b038116600090815260066020526040902054610c935760405162461bcd60e51b815260040161051190611808565b6001600160a01b03811660009081526006602090815260408083205460089092529091205410610cd55760405162461bcd60e51b815260040161051190611617565b6000610ce082610389565b905080600010610d025760405162461bcd60e51b815260040161051190611683565b6001600160a01b038216600090815260086020526040812054610d259083610bc6565b6001600160a01b038416600090815260066020526040902054909150811115610d605760405162461bcd60e51b81526004016105119061145b565b6001600160a01b0383166000908152600860205260409020819055600a54610d889083610bc6565b600a55600154610da2906001600160a01b03168484610f4e565b7fb21fb52d5749b80f3182f8c6992236b5e5576681880914484d7f4c9b062e619e8383604051610dd392919061140f565b60405180910390a1505050565b80821115610e005760405162461bcd60e51b81526004016105119061155d565b6001805473ffffffffffffffffffffffffffffffffffffffff19166001600160a01b03861617905560058390556003839055610e3c8383610bc6565b600255600455505050565b6005544211610e685760405162461bcd60e51b81526004016105119061174e565b6001600160a01b038116600090815260076020526040902054610e9d5760405162461bcd60e51b815260040161051190611526565b6001600160a01b0381166000908152600760209081526040808320805490849055600990925290912054610ed19082610bc6565b6001600160a01b038316600090815260096020526040902055600b54610ef79082610bc6565b600b55600154610f11906001600160a01b03168383610f4e565b7f0f0bc5b519ddefdd8e5f9e6423433aa2b869738de2ae34d58ebc796fc749fa0d8282604051610f4292919061140f565b60405180910390a15050565b610fd18363a9059cbb60e01b8484604051602401610f6d92919061140f565b60408051601f198184030181529190526020810180517bffffffffffffffffffffffffffffffffffffffffffffffffffffffff167fffffffff0000000000000000000000000000000000000000000000000000000090931692909217909152610fd6565b505050565b600061102b826040518060400160405280602081526020017f5361666545524332303a206c6f772d6c6576656c2063616c6c206661696c6564815250856001600160a01b03166110659092919063ffffffff16565b805190915015610fd157808060200190518101906110499190611352565b610fd15760405162461bcd60e51b8152600401610511906116f1565b6060611074848460008561107c565b949350505050565b60608247101561109e5760405162461bcd60e51b8152600401610511906115ba565b6110a78561113c565b6110c35760405162461bcd60e51b8152600401610511906116ba565b600080866001600160a01b031685876040516110df91906113dc565b60006040518083038185875af1925050503d806000811461111c576040519150601f19603f3d011682016040523d82523d6000602084013e611121565b606091505b5091509150611131828286611142565b979650505050505050565b3b151590565b60608315611151575081610bd2565b8251156111615782518084602001fd5b8160405162461bcd60e51b81526004016105119190611428565b600082601f83011261118b578081fd5b813560206111a061119b83611906565b6118dc565b82815281810190858301838502870184018810156111bc578586fd5b855b858110156111da578135845292840192908401906001016111be565b5090979650505050505050565b6000602082840312156111f8578081fd5b8135610bd281611a0b565b60008060408385031215611215578081fd5b823561122081611a0b565b9150602083013561123081611a0b565b809150509250929050565b60008060006060848603121561124f578081fd5b833561125a81611a0b565b95602085013595506040909401359392505050565b600080600060608486031215611283578283fd5b833567ffffffffffffffff8082111561129a578485fd5b818601915086601f8301126112ad578485fd5b813560206112bd61119b83611906565b82815281810190858301838502870184018c10156112d957898afd5b8996505b848710156113045780356112f081611a0b565b8352600196909601959183019183016112dd565b509750508701359250508082111561131a578384fd5b6113268783880161117b565b9350604086013591508082111561133b578283fd5b506113488682870161117b565b9150509250925092565b600060208284031215611363578081fd5b81518015158114610bd2578182fd5b60008060008060808587031215611387578081fd5b843561139281611a0b565b966020860135965060408601359560600135945092505050565b6000602082840312156113bd578081fd5b5035919050565b6000602082840312156113d5578081fd5b5051919050565b600082516113ee818460208701611998565b9190910192915050565b90565b6001600160a01b0391909116815260200190565b6001600160a01b03929092168252602082015260400190565b6000602082528251806020840152611447816040850160208701611998565b601f01601f19169190910160400192915050565b6020808252600f908201527f536f6d657468696e672077726f6e670000000000000000000000000000000000604082015260600190565b6020808252600f908201527f43616e6e6f742077697468647261770000000000000000000000000000000000604082015260600190565b60208082526026908201527f4f776e61626c653a206e6577206f776e657220697320746865207a65726f206160408201527f6464726573730000000000000000000000000000000000000000000000000000606082015260800190565b60208082526011908201527f596f752063616e6e6f7420756e6c6f636b000000000000000000000000000000604082015260600190565b6020808252602a908201527f436c6966662068617320746f206265206c6f776572206f7220657175616c207460408201527f6f206475726174696f6e00000000000000000000000000000000000000000000606082015260800190565b60208082526026908201527f416464726573733a20696e73756666696369656e742062616c616e636520666f60408201527f722063616c6c0000000000000000000000000000000000000000000000000000606082015260800190565b60208082526013908201527f43616e6e6f742072656c65617365206d6f726500000000000000000000000000604082015260600190565b6020808252818101527f4f776e61626c653a2063616c6c6572206973206e6f7420746865206f776e6572604082015260600190565b6020808252601a908201527f48617665206e6f74207374617274206f722066696e6973686564000000000000604082015260600190565b6020808252601d908201527f416464726573733a2063616c6c20746f206e6f6e2d636f6e7472616374000000604082015260600190565b6020808252602a908201527f5361666545524332303a204552433230206f7065726174696f6e20646964206e60408201527f6f74207375636365656400000000000000000000000000000000000000000000606082015260800190565b60208082526025908201527f43616e6e6f7420756e6c6f636b207269676874206e6f772c20706c656173652060408201527f7761697421000000000000000000000000000000000000000000000000000000606082015260800190565b60208082526026908201527f53686172657320616d6f756e742068617320746f20626520677265617465722060408201527f7468616e20300000000000000000000000000000000000000000000000000000606082015260800190565b6020808252600f908201527f446f6e7420686176652073686172650000000000000000000000000000000000604082015260600190565b6020808252601d908201527f6661696c656420746f2073656e6420657468657220746f206f776e6572000000604082015260600190565b60208082526025908201527f5468652062656e6566696369617279277320616464726573732063616e6e6f7460408201527f2062652030000000000000000000000000000000000000000000000000000000606082015260800190565b90815260200190565b60405181810167ffffffffffffffff811182821017156118fe576118fe6119f5565b604052919050565b600067ffffffffffffffff821115611920576119206119f5565b5060209081020190565b6000821982111561193d5761193d6119df565b500190565b60008261195d57634e487b7160e01b81526012600452602481fd5b500490565b600081600019048311821515161561197c5761197c6119df565b500290565b600082821015611993576119936119df565b500390565b60005b838110156119b357818101518382015260200161199b565b838111156105b85750506000910152565b60006000198214156119d8576119d86119df565b5060010190565b634e487b7160e01b600052601160045260246000fd5b634e487b7160e01b600052604160045260246000fd5b6001600160a01b03811681146107c857600080fdfea2646970667358221220b274e3bcd77e09cea7fc1dfb23908685e94303155701a8802c15c1ed8ae3815264736f6c63430008000033",
  "linkReferences": {},
  "deployedLinkReferences": {}
}