{
  "_format": "hh-sol-artifact-1",
  "contractName": "CrowdsaleAngel",
  "sourceName": "contracts/Crowdsale-Angel.sol",
  "abi": [
    {
      "constant": true,
      "inputs": [],
      "name": "hasClosed",
      "outputs": [
        {
          "name": "",
          "type": "bool"
        }
      ],
      "payable": false,
      "stateMutability": "view",
      "type": "function"
    },
    {
      "constant": true,
      "inputs": [],
      "name": "rate",
      "outputs": [
        {
          "name": "",
          "type": "uint256"
        }
      ],
      "payable": false,
      "stateMutability": "view",
      "type": "function"
    },
    {
      "constant": false,
      "inputs": [
        {
          "name": "wallet",
          "type": "address"
        },
        {
          "name": "tokenAmount",
          "type": "uint256"
        }
      ],
      "name": "endCrowdsale",
      "outputs": [],
      "payable": false,
      "stateMutability": "nonpayable",
      "type": "function"
    },
    {
      "constant": true,
      "inputs": [],
      "name": "weiRaised",
      "outputs": [
        {
          "name": "",
          "type": "uint256"
        }
      ],
      "payable": false,
      "stateMutability": "view",
      "type": "function"
    },
    {
      "constant": true,
      "inputs": [],
      "name": "isOpen",
      "outputs": [
        {
          "name": "",
          "type": "bool"
        }
      ],
      "payable": false,
      "stateMutability": "view",
      "type": "function"
    },
    {
      "constant": true,
      "inputs": [],
      "name": "closingTime",
      "outputs": [
        {
          "name": "",
          "type": "uint256"
        }
      ],
      "payable": false,
      "stateMutability": "view",
      "type": "function"
    },
    {
      "constant": true,
      "inputs": [],
      "name": "wallet",
      "outputs": [
        {
          "name": "",
          "type": "address"
        }
      ],
      "payable": false,
      "stateMutability": "view",
      "type": "function"
    },
    {
      "constant": false,
      "inputs": [
        {
          "name": "minToken",
          "type": "uint256"
        }
      ],
      "name": "setMinToken",
      "outputs": [],
      "payable": false,
      "stateMutability": "nonpayable",
      "type": "function"
    },
    {
      "constant": false,
      "inputs": [],
      "name": "renounceOwnership",
      "outputs": [],
      "payable": false,
      "stateMutability": "nonpayable",
      "type": "function"
    },
    {
      "constant": true,
      "inputs": [],
      "name": "owner",
      "outputs": [
        {
          "name": "",
          "type": "address"
        }
      ],
      "payable": false,
      "stateMutability": "view",
      "type": "function"
    },
    {
      "constant": true,
      "inputs": [],
      "name": "isOwner",
      "outputs": [
        {
          "name": "",
          "type": "bool"
        }
      ],
      "payable": false,
      "stateMutability": "view",
      "type": "function"
    },
    {
      "constant": false,
      "inputs": [
        {
          "name": "newClosingTime",
          "type": "uint256"
        }
      ],
      "name": "extend",
      "outputs": [],
      "payable": false,
      "stateMutability": "nonpayable",
      "type": "function"
    },
    {
      "constant": true,
      "inputs": [],
      "name": "openingTime",
      "outputs": [
        {
          "name": "",
          "type": "uint256"
        }
      ],
      "payable": false,
      "stateMutability": "view",
      "type": "function"
    },
    {
      "constant": false,
      "inputs": [
        {
          "name": "beneficiary",
          "type": "address"
        }
      ],
      "name": "buyTokens",
      "outputs": [],
      "payable": true,
      "stateMutability": "payable",
      "type": "function"
    },
    {
      "constant": false,
      "inputs": [
        {
          "name": "newOwner",
          "type": "address"
        }
      ],
      "name": "transferOwnership",
      "outputs": [],
      "payable": false,
      "stateMutability": "nonpayable",
      "type": "function"
    },
    {
      "constant": true,
      "inputs": [],
      "name": "token",
      "outputs": [
        {
          "name": "",
          "type": "address"
        }
      ],
      "payable": false,
      "stateMutability": "view",
      "type": "function"
    },
    {
      "inputs": [
        {
          "name": "rate",
          "type": "uint256"
        },
        {
          "name": "roundPrice",
          "type": "int32"
        },
        {
          "name": "wallet",
          "type": "address"
        },
        {
          "name": "token",
          "type": "address"
        },
        {
          "name": "openingTime",
          "type": "uint256"
        },
        {
          "name": "closingTime",
          "type": "uint256"
        },
        {
          "name": "minToken",
          "type": "uint256"
        },
        {
          "name": "priceFeed",
          "type": "address"
        },
        {
          "name": "TGETime",
          "type": "uint256"
        },
        {
          "name": "dev",
          "type": "bool"
        }
      ],
      "payable": false,
      "stateMutability": "nonpayable",
      "type": "constructor"
    },
    {
      "payable": true,
      "stateMutability": "payable",
      "type": "fallback"
    },
    {
      "anonymous": false,
      "inputs": [
        {
          "indexed": false,
          "name": "prevClosingTime",
          "type": "uint256"
        },
        {
          "indexed": false,
          "name": "newClosingTime",
          "type": "uint256"
        }
      ],
      "name": "TimedCrowdsaleExtended",
      "type": "event"
    },
    {
      "anonymous": false,
      "inputs": [
        {
          "indexed": true,
          "name": "previousOwner",
          "type": "address"
        },
        {
          "indexed": true,
          "name": "newOwner",
          "type": "address"
        }
      ],
      "name": "OwnershipTransferred",
      "type": "event"
    },
    {
      "anonymous": false,
      "inputs": [
        {
          "indexed": true,
          "name": "purchaser",
          "type": "address"
        },
        {
          "indexed": true,
          "name": "beneficiary",
          "type": "address"
        },
        {
          "indexed": false,
          "name": "value",
          "type": "uint256"
        },
        {
          "indexed": false,
          "name": "amount",
          "type": "uint256"
        }
      ],
      "name": "TokensPurchased",
      "type": "event"
    }
  ],
  "bytecode": "0x60806040526009805460ff1916905534801561001a57600080fd5b506040516101408061131e833981018060405261014081101561003c57600080fd5b508051602082015160408301516060840151608085015160a086015160c087015160e0880151610100890151610120909901516000805460ff191660011790559798969795969495939492939192909185858b8a8a8215156100ff57604080517f08c379a000000000000000000000000000000000000000000000000000000000815260206004820152601460248201527f43726f776473616c653a20726174652069732030000000000000000000000000604482015290519081900360640190fd5b6001600160a01b0382161515610160576040517f08c379a00000000000000000000000000000000000000000000000000000000081526004018080602001828103825260258152602001806112f96025913960400191505060405180910390fd5b6001600160a01b03811615156101c1576040517f08c379a00000000000000000000000000000000000000000000000000000000081526004018080602001828103825260248152602001806112d56024913960400191505060405180910390fd5b600292909255600180546001600160a01b039283166001600160a01b0319909116179055600080549190921661010002610100600160a81b0319909116178155610210610391602090811b901c565b600480546001600160a01b0319166001600160a01b038316908117909155604051919250906000907f8be0079c531659141344cd1fd0a4f28419497f9722a3daafe3b4186f6b6457e0908290a350428210156102b7576040517f08c379a000000000000000000000000000000000000000000000000000000000815260040180806020018281038252603381526020018061126b6033913960400191505060405180910390fd5b81811161030f576040517f08c379a000000000000000000000000000000000000000000000000000000000815260040180806020018281038252603781526020018061129e6037913960400191505060405180910390fd5b600591909155600655600780546001600160a01b039485166001600160a01b0319918216179091556008949094556009805460039a909a0b63ffffffff166101000264ffffffff001992151560ff19909b169a909a179190911698909817909755600a96909655600b8054949096169316929092179093555061039592505050565b3390565b610ec7806103a46000396000f3fe6080604052600436106100f35760003560e01c8063715018a61161008a578063b7a8807c11610059578063b7a8807c14610291578063ec8ac4d8146102a6578063f2fde38b146102cc578063fc0c546a146102ff576100f3565b8063715018a6146102285780638da5cb5b1461023d5780638f32d59b146102525780639714378c14610267576100f3565b806347535d7b116100c657806347535d7b146101a35780634b6753bc146101b8578063521eb273146101cd5780635558e1c3146101fe576100f3565b80631515bc2b146101055780632c4e722e1461012e57806337f0cd84146101555780634042b66f1461018e575b6101036100fe610314565b610318565b005b34801561011157600080fd5b5061011a61043f565b604080519115158252519081900360200190f35b34801561013a57600080fd5b50610143610447565b60408051918252519081900360200190f35b34801561016157600080fd5b506101036004803603604081101561017857600080fd5b506001600160a01b03813516906020013561044d565b34801561019a57600080fd5b506101436104b9565b3480156101af57600080fd5b5061011a6104bf565b3480156101c457600080fd5b506101436104da565b3480156101d957600080fd5b506101e26104e0565b604080516001600160a01b039092168252519081900360200190f35b34801561020a57600080fd5b506101036004803603602081101561022157600080fd5b50356104ef565b34801561023457600080fd5b50610103610552565b34801561024957600080fd5b506101e2610607565b34801561025e57600080fd5b5061011a610616565b34801561027357600080fd5b506101036004803603602081101561028a57600080fd5b503561063c565b34801561029d57600080fd5b506101436106a6565b610103600480360360208110156102bc57600080fd5b50356001600160a01b0316610318565b3480156102d857600080fd5b50610103600480360360208110156102ef57600080fd5b50356001600160a01b03166106ac565b34801561030b57600080fd5b506101e2610713565b3390565b60005460ff1615156103745760408051600160e51b62461bcd02815260206004820152601f60248201527f5265656e7472616e637947756172643a207265656e7472616e742063616c6c00604482015290519081900360640190fd5b6000805460ff19169055346103898282610727565b60006103948261078f565b6003549091506103aa908363ffffffff6108d516565b6003556103b783826104ab565b826001600160a01b03166103c9610314565b6001600160a01b03167f6faf93231a456e552dbc9961f58d9713ee4f2e69d15f1975b050ef0911053a7b8484604051808381526020018281526020019250505060405180910390a361041b83836104b5565b610423610939565b61042d83836104b5565b50506000805460ff1916600117905550565b600654421190565b60025490565b610455610616565b15156104ab5760408051600160e51b62461bcd02815260206004820181905260248201527f4f776e61626c653a2063616c6c6572206973206e6f7420746865206f776e6572604482015290519081900360640190fd5b6104b58282610972565b5050565b60035490565b600060055442101580156104d557506006544211155b905090565b60065490565b6001546001600160a01b031690565b6104f7610616565b151561054d5760408051600160e51b62461bcd02815260206004820181905260248201527f4f776e61626c653a2063616c6c6572206973206e6f7420746865206f776e6572604482015290519081900360640190fd5b600855565b61055a610616565b15156105b05760408051600160e51b62461bcd02815260206004820181905260248201527f4f776e61626c653a2063616c6c6572206973206e6f7420746865206f776e6572604482015290519081900360640190fd5b6004546040516000916001600160a01b0316907f8be0079c531659141344cd1fd0a4f28419497f9722a3daafe3b4186f6b6457e0908390a36004805473ffffffffffffffffffffffffffffffffffffffff19169055565b6004546001600160a01b031690565b6004546000906001600160a01b031661062d610314565b6001600160a01b031614905090565b610644610616565b151561069a5760408051600160e51b62461bcd02815260206004820181905260248201527f4f776e61626c653a2063616c6c6572206973206e6f7420746865206f776e6572604482015290519081900360640190fd5b6106a381610a49565b50565b60055490565b6106b4610616565b151561070a5760408051600160e51b62461bcd02815260206004820181905260248201527f4f776e61626c653a2063616c6c6572206973206e6f7420746865206f776e6572604482015290519081900360640190fd5b6106a381610b2b565b60005461010090046001600160a01b031690565b61072f6104bf565b15156107855760408051600160e51b62461bcd02815260206004820152601860248201527f54696d656443726f776473616c653a206e6f74206f70656e0000000000000000604482015290519081900360640190fd5b6104b58282610bde565b600954600090819060ff16156107a65750816108cf565b6000806000806000600760009054906101000a90046001600160a01b03166001600160a01b031663feaf968c6040518163ffffffff1660e01b815260040160a06040518083038186803b1580156107fc57600080fd5b505afa158015610810573d6000803e3d6000fd5b505050506040513d60a081101561082657600080fd5b508051602082015160408301516060840151608090940151600954939950919750955091935090915060009061086f9086906101009004600390810b900b63ffffffff610c7f16565b9050610881898263ffffffff610cc116565b6008549097508710156108c857604051600160e51b62461bcd028152600401808060200182810382526021815260200180610df16021913960400191505060405180910390fd5b5050505050505b92915050565b6000828201838110156109325760408051600160e51b62461bcd02815260206004820152601b60248201527f536166654d6174683a206164646974696f6e206f766572666c6f770000000000604482015290519081900360640190fd5b9392505050565b6001546040516001600160a01b03909116903480156108fc02916000818181858888f193505050501580156106a3573d6000803e3d6000fd5b600a54600b54604080517f55a94d9a0000000000000000000000000000000000000000000000000000000081526001600160a01b03868116600483015260248201869052600060448301819052606483018690526301e28500860160848401819052600c60a4850181905294516301e1338090970196949590949216926355a94d9a9260c48083019360209383900390910190829087803b158015610a1657600080fd5b505af1158015610a2a573d6000803e3d6000fd5b505050506040513d6020811015610a4057600080fd5b50505050505050565b610a5161043f565b15610aa65760408051600160e51b62461bcd02815260206004820152601e60248201527f54696d656443726f776473616c653a20616c726561647920636c6f7365640000604482015290519081900360640190fd5b6006548111610ae957604051600160e51b62461bcd02815260040180806020018281038252603f815260200180610e12603f913960400191505060405180910390fd5b600654604080519182526020820183905280517f46711e222f558a07afd26e5e71b48ecb0a8b2cdcd40faeb1323e05e2c76a2f329281900390910190a1600655565b6001600160a01b0381161515610b7557604051600160e51b62461bcd028152600401808060200182810382526026815260200180610dcb6026913960400191505060405180910390fd5b6004546040516001600160a01b038084169216907f8be0079c531659141344cd1fd0a4f28419497f9722a3daafe3b4186f6b6457e090600090a36004805473ffffffffffffffffffffffffffffffffffffffff19166001600160a01b0392909216919091179055565b6001600160a01b0382161515610c2857604051600160e51b62461bcd02815260040180806020018281038252602a815260200180610e72602a913960400191505060405180910390fd5b8015156104b55760408051600160e51b62461bcd02815260206004820152601960248201527f43726f776473616c653a20776569416d6f756e74206973203000000000000000604482015290519081900360640190fd5b600061093283836040518060400160405280601a81526020017f536166654d6174683a206469766973696f6e206279207a65726f000000000000815250610d21565b6000821515610cd2575060006108cf565b828202828482811515610ce157fe5b041461093257604051600160e51b62461bcd028152600401808060200182810382526021815260200180610e516021913960400191505060405180910390fd5b600081831515610db257604051600160e51b62461bcd0281526004018080602001828103825283818151815260200191508051906020019080838360005b83811015610d77578181015183820152602001610d5f565b50505050905090810190601f168015610da45780820380516001836020036101000a031916815260200191505b509250505060405180910390fd5b5060008385811515610dc057fe5b049594505050505056fe4f776e61626c653a206e6577206f776e657220697320746865207a65726f2061646472657373546f6b656e20616d6f756e74206973206c657373207468616e206d696e696d756d54696d656443726f776473616c653a206e657720636c6f73696e672074696d65206973206265666f72652063757272656e7420636c6f73696e672074696d65536166654d6174683a206d756c7469706c69636174696f6e206f766572666c6f7743726f776473616c653a2062656e656669636961727920697320746865207a65726f2061646472657373a165627a7a7230582046e4144e0a92ed8f7db6f8f7a2728cede73f5c15c4feac35a1a5e9060bc7525c002954696d656443726f776473616c653a206f70656e696e672074696d65206973206265666f72652063757272656e742074696d6554696d656443726f776473616c653a206f70656e696e672074696d65206973206e6f74206265666f726520636c6f73696e672074696d6543726f776473616c653a20746f6b656e20697320746865207a65726f206164647265737343726f776473616c653a2077616c6c657420697320746865207a65726f2061646472657373",
  "linkReferences": {},
  "deployedLinkReferences": {}
}