{
  "_format": "hh-sol-artifact-1",
  "contractName": "MyCrowdsaleV2",
  "sourceName": "contracts/MyCrowdsaleV2.sol",
  "abi": [
    {
      "constant": true,
      "inputs": [],
      "name": "hasClosed",
      "outputs": [
        {
          "name": "",
          "type": "bool"
        }
      ],
      "payable": false,
      "stateMutability": "view",
      "type": "function"
    },
    {
      "constant": true,
      "inputs": [],
      "name": "rate",
      "outputs": [
        {
          "name": "",
          "type": "uint256"
        }
      ],
      "payable": false,
      "stateMutability": "view",
      "type": "function"
    },
    {
      "constant": false,
      "inputs": [
        {
          "name": "wallet",
          "type": "address"
        },
        {
          "name": "tokenAmount",
          "type": "uint256"
        }
      ],
      "name": "endCrowdsale",
      "outputs": [],
      "payable": false,
      "stateMutability": "nonpayable",
      "type": "function"
    },
    {
      "constant": true,
      "inputs": [],
      "name": "weiRaised",
      "outputs": [
        {
          "name": "",
          "type": "uint256"
        }
      ],
      "payable": false,
      "stateMutability": "view",
      "type": "function"
    },
    {
      "constant": true,
      "inputs": [],
      "name": "isOpen",
      "outputs": [
        {
          "name": "",
          "type": "bool"
        }
      ],
      "payable": false,
      "stateMutability": "view",
      "type": "function"
    },
    {
      "constant": true,
      "inputs": [],
      "name": "closingTime",
      "outputs": [
        {
          "name": "",
          "type": "uint256"
        }
      ],
      "payable": false,
      "stateMutability": "view",
      "type": "function"
    },
    {
      "constant": true,
      "inputs": [],
      "name": "wallet",
      "outputs": [
        {
          "name": "",
          "type": "address"
        }
      ],
      "payable": false,
      "stateMutability": "view",
      "type": "function"
    },
    {
      "constant": false,
      "inputs": [
        {
          "name": "minToken",
          "type": "uint256"
        }
      ],
      "name": "setMinToken",
      "outputs": [],
      "payable": false,
      "stateMutability": "nonpayable",
      "type": "function"
    },
    {
      "constant": false,
      "inputs": [],
      "name": "renounceOwnership",
      "outputs": [],
      "payable": false,
      "stateMutability": "nonpayable",
      "type": "function"
    },
    {
      "constant": true,
      "inputs": [],
      "name": "owner",
      "outputs": [
        {
          "name": "",
          "type": "address"
        }
      ],
      "payable": false,
      "stateMutability": "view",
      "type": "function"
    },
    {
      "constant": true,
      "inputs": [],
      "name": "isOwner",
      "outputs": [
        {
          "name": "",
          "type": "bool"
        }
      ],
      "payable": false,
      "stateMutability": "view",
      "type": "function"
    },
    {
      "constant": false,
      "inputs": [
        {
          "name": "newClosingTime",
          "type": "uint256"
        }
      ],
      "name": "extend",
      "outputs": [],
      "payable": false,
      "stateMutability": "nonpayable",
      "type": "function"
    },
    {
      "constant": true,
      "inputs": [],
      "name": "openingTime",
      "outputs": [
        {
          "name": "",
          "type": "uint256"
        }
      ],
      "payable": false,
      "stateMutability": "view",
      "type": "function"
    },
    {
      "constant": false,
      "inputs": [
        {
          "name": "beneficiary",
          "type": "address"
        }
      ],
      "name": "buyTokens",
      "outputs": [],
      "payable": true,
      "stateMutability": "payable",
      "type": "function"
    },
    {
      "constant": false,
      "inputs": [
        {
          "name": "newOwner",
          "type": "address"
        }
      ],
      "name": "transferOwnership",
      "outputs": [],
      "payable": false,
      "stateMutability": "nonpayable",
      "type": "function"
    },
    {
      "constant": false,
      "inputs": [],
      "name": "A",
      "outputs": [
        {
          "name": "",
          "type": "int256"
        }
      ],
      "payable": false,
      "stateMutability": "nonpayable",
      "type": "function"
    },
    {
      "constant": true,
      "inputs": [],
      "name": "token",
      "outputs": [
        {
          "name": "",
          "type": "address"
        }
      ],
      "payable": false,
      "stateMutability": "view",
      "type": "function"
    },
    {
      "inputs": [
        {
          "name": "rate",
          "type": "uint256"
        },
        {
          "name": "roundPrice",
          "type": "int32"
        },
        {
          "name": "wallet",
          "type": "address"
        },
        {
          "name": "token",
          "type": "address"
        },
        {
          "name": "openingTime",
          "type": "uint256"
        },
        {
          "name": "closingTime",
          "type": "uint256"
        },
        {
          "name": "minToken",
          "type": "uint256"
        },
        {
          "name": "priceFeed",
          "type": "address"
        },
        {
          "name": "lockDuration",
          "type": "uint256"
        },
        {
          "name": "dev",
          "type": "bool"
        }
      ],
      "payable": false,
      "stateMutability": "nonpayable",
      "type": "constructor"
    },
    {
      "payable": true,
      "stateMutability": "payable",
      "type": "fallback"
    },
    {
      "anonymous": false,
      "inputs": [
        {
          "indexed": false,
          "name": "prevClosingTime",
          "type": "uint256"
        },
        {
          "indexed": false,
          "name": "newClosingTime",
          "type": "uint256"
        }
      ],
      "name": "TimedCrowdsaleExtended",
      "type": "event"
    },
    {
      "anonymous": false,
      "inputs": [
        {
          "indexed": true,
          "name": "previousOwner",
          "type": "address"
        },
        {
          "indexed": true,
          "name": "newOwner",
          "type": "address"
        }
      ],
      "name": "OwnershipTransferred",
      "type": "event"
    },
    {
      "anonymous": false,
      "inputs": [
        {
          "indexed": true,
          "name": "purchaser",
          "type": "address"
        },
        {
          "indexed": true,
          "name": "beneficiary",
          "type": "address"
        },
        {
          "indexed": false,
          "name": "value",
          "type": "uint256"
        },
        {
          "indexed": false,
          "name": "amount",
          "type": "uint256"
        }
      ],
      "name": "TokensPurchased",
      "type": "event"
    }
  ],
  "bytecode": "0x60806040526009805460ff1916905534801561001a57600080fd5b506040516101408061132b833981018060405261014081101561003c57600080fd5b508051602082015160408301516060840151608085015160a086015160c087015160e0880151610100890151610120909901516000805460ff191660011790559798969795969495939492939192909185858b8a8a8215156100ff57604080517f08c379a000000000000000000000000000000000000000000000000000000000815260206004820152601460248201527f43726f776473616c653a20726174652069732030000000000000000000000000604482015290519081900360640190fd5b6001600160a01b0382161515610160576040517f08c379a00000000000000000000000000000000000000000000000000000000081526004018080602001828103825260258152602001806113066025913960400191505060405180910390fd5b6001600160a01b03811615156101c1576040517f08c379a00000000000000000000000000000000000000000000000000000000081526004018080602001828103825260248152602001806112e26024913960400191505060405180910390fd5b600292909255600180546001600160a01b039283166001600160a01b0319909116179055600080549190921661010002610100600160a81b0319909116178155610210610391602090811b901c565b600480546001600160a01b0319166001600160a01b038316908117909155604051919250906000907f8be0079c531659141344cd1fd0a4f28419497f9722a3daafe3b4186f6b6457e0908290a350428210156102b7576040517f08c379a00000000000000000000000000000000000000000000000000000000081526004018080602001828103825260338152602001806112786033913960400191505060405180910390fd5b81811161030f576040517f08c379a00000000000000000000000000000000000000000000000000000000081526004018080602001828103825260378152602001806112ab6037913960400191505060405180910390fd5b600591909155600655600780546001600160a01b039485166001600160a01b0319918216179091556008949094556009805460039a909a0b63ffffffff166101000264ffffffff001992151560ff19909b169a909a179190911698909817909755600a96909655600b8054949096169316929092179093555061039592505050565b3390565b610ed4806103a46000396000f3fe60806040526004361061010e5760003560e01c8063715018a6116100a5578063b7a8807c11610074578063f2fde38b11610059578063f2fde38b146102e7578063f446c1d01461031a578063fc0c546a1461032f5761010e565b8063b7a8807c146102ac578063ec8ac4d8146102c15761010e565b8063715018a6146102435780638da5cb5b146102585780638f32d59b1461026d5780639714378c146102825761010e565b806347535d7b116100e157806347535d7b146101be5780634b6753bc146101d3578063521eb273146101e85780635558e1c3146102195761010e565b80631515bc2b146101205780632c4e722e1461014957806337f0cd84146101705780634042b66f146101a9575b61011e610119610344565b610348565b005b34801561012c57600080fd5b5061013561046f565b604080519115158252519081900360200190f35b34801561015557600080fd5b5061015e610477565b60408051918252519081900360200190f35b34801561017c57600080fd5b5061011e6004803603604081101561019357600080fd5b506001600160a01b03813516906020013561047d565b3480156101b557600080fd5b5061015e6104e9565b3480156101ca57600080fd5b506101356104ef565b3480156101df57600080fd5b5061015e61050a565b3480156101f457600080fd5b506101fd610510565b604080516001600160a01b039092168252519081900360200190f35b34801561022557600080fd5b5061011e6004803603602081101561023c57600080fd5b503561051f565b34801561024f57600080fd5b5061011e610582565b34801561026457600080fd5b506101fd610637565b34801561027957600080fd5b50610135610646565b34801561028e57600080fd5b5061011e600480360360208110156102a557600080fd5b503561066c565b3480156102b857600080fd5b5061015e6106d6565b61011e600480360360208110156102d757600080fd5b50356001600160a01b0316610348565b3480156102f357600080fd5b5061011e6004803603602081101561030a57600080fd5b50356001600160a01b03166106dc565b34801561032657600080fd5b5061015e610743565b34801561033b57600080fd5b506101fd610748565b3390565b60005460ff1615156103a45760408051600160e51b62461bcd02815260206004820152601f60248201527f5265656e7472616e637947756172643a207265656e7472616e742063616c6c00604482015290519081900360640190fd5b6000805460ff19169055346103b9828261075c565b60006103c4826107c4565b6003549091506103da908363ffffffff61090a16565b6003556103e783826104db565b826001600160a01b03166103f9610344565b6001600160a01b03167f6faf93231a456e552dbc9961f58d9713ee4f2e69d15f1975b050ef0911053a7b8484604051808381526020018281526020019250505060405180910390a361044b83836104e5565b61045361096e565b61045d83836104e5565b50506000805460ff1916600117905550565b600654421190565b60025490565b610485610646565b15156104db5760408051600160e51b62461bcd02815260206004820181905260248201527f4f776e61626c653a2063616c6c6572206973206e6f7420746865206f776e6572604482015290519081900360640190fd5b6104e582826109a7565b5050565b60035490565b6000600554421015801561050557506006544211155b905090565b60065490565b6001546001600160a01b031690565b610527610646565b151561057d5760408051600160e51b62461bcd02815260206004820181905260248201527f4f776e61626c653a2063616c6c6572206973206e6f7420746865206f776e6572604482015290519081900360640190fd5b600855565b61058a610646565b15156105e05760408051600160e51b62461bcd02815260206004820181905260248201527f4f776e61626c653a2063616c6c6572206973206e6f7420746865206f776e6572604482015290519081900360640190fd5b6004546040516000916001600160a01b0316907f8be0079c531659141344cd1fd0a4f28419497f9722a3daafe3b4186f6b6457e0908390a36004805473ffffffffffffffffffffffffffffffffffffffff19169055565b6004546001600160a01b031690565b6004546000906001600160a01b031661065d610344565b6001600160a01b031614905090565b610674610646565b15156106ca5760408051600160e51b62461bcd02815260206004820181905260248201527f4f776e61626c653a2063616c6c6572206973206e6f7420746865206f776e6572604482015290519081900360640190fd5b6106d381610a56565b50565b60055490565b6106e4610646565b151561073a5760408051600160e51b62461bcd02815260206004820181905260248201527f4f776e61626c653a2063616c6c6572206973206e6f7420746865206f776e6572604482015290519081900360640190fd5b6106d381610b38565b600190565b60005461010090046001600160a01b031690565b6107646104ef565b15156107ba5760408051600160e51b62461bcd02815260206004820152601860248201527f54696d656443726f776473616c653a206e6f74206f70656e0000000000000000604482015290519081900360640190fd5b6104e58282610beb565b600954600090819060ff16156107db575081610904565b6000806000806000600760009054906101000a90046001600160a01b03166001600160a01b031663feaf968c6040518163ffffffff1660e01b815260040160a06040518083038186803b15801561083157600080fd5b505afa158015610845573d6000803e3d6000fd5b505050506040513d60a081101561085b57600080fd5b50805160208201516040830151606084015160809094015160095493995091975095509193509091506000906108a49086906101009004600390810b900b63ffffffff610c8c16565b90506108b6898263ffffffff610cce16565b6008549097508710156108fd57604051600160e51b62461bcd028152600401808060200182810382526021815260200180610dfe6021913960400191505060405180910390fd5b5050505050505b92915050565b6000828201838110156109675760408051600160e51b62461bcd02815260206004820152601b60248201527f536166654d6174683a206164646974696f6e206f766572666c6f770000000000604482015290519081900360640190fd5b9392505050565b6001546040516001600160a01b03909116903480156108fc02916000818181858888f193505050501580156106d3573d6000803e3d6000fd5b600b54600a54604080517f84d5d9440000000000000000000000000000000000000000000000000000000081526001600160a01b038681166004830152602482018690524293840160448301529151929391909116916384d5d944916064808201926020929091908290030181600087803b158015610a2557600080fd5b505af1158015610a39573d6000803e3d6000fd5b505050506040513d6020811015610a4f57600080fd5b5050505050565b610a5e61046f565b15610ab35760408051600160e51b62461bcd02815260206004820152601e60248201527f54696d656443726f776473616c653a20616c726561647920636c6f7365640000604482015290519081900360640190fd5b6006548111610af657604051600160e51b62461bcd02815260040180806020018281038252603f815260200180610e1f603f913960400191505060405180910390fd5b600654604080519182526020820183905280517f46711e222f558a07afd26e5e71b48ecb0a8b2cdcd40faeb1323e05e2c76a2f329281900390910190a1600655565b6001600160a01b0381161515610b8257604051600160e51b62461bcd028152600401808060200182810382526026815260200180610dd86026913960400191505060405180910390fd5b6004546040516001600160a01b038084169216907f8be0079c531659141344cd1fd0a4f28419497f9722a3daafe3b4186f6b6457e090600090a36004805473ffffffffffffffffffffffffffffffffffffffff19166001600160a01b0392909216919091179055565b6001600160a01b0382161515610c3557604051600160e51b62461bcd02815260040180806020018281038252602a815260200180610e7f602a913960400191505060405180910390fd5b8015156104e55760408051600160e51b62461bcd02815260206004820152601960248201527f43726f776473616c653a20776569416d6f756e74206973203000000000000000604482015290519081900360640190fd5b600061096783836040518060400160405280601a81526020017f536166654d6174683a206469766973696f6e206279207a65726f000000000000815250610d2e565b6000821515610cdf57506000610904565b828202828482811515610cee57fe5b041461096757604051600160e51b62461bcd028152600401808060200182810382526021815260200180610e5e6021913960400191505060405180910390fd5b600081831515610dbf57604051600160e51b62461bcd0281526004018080602001828103825283818151815260200191508051906020019080838360005b83811015610d84578181015183820152602001610d6c565b50505050905090810190601f168015610db15780820380516001836020036101000a031916815260200191505b509250505060405180910390fd5b5060008385811515610dcd57fe5b049594505050505056fe4f776e61626c653a206e6577206f776e657220697320746865207a65726f2061646472657373546f6b656e20616d6f756e74206973206c657373207468616e206d696e696d756d54696d656443726f776473616c653a206e657720636c6f73696e672074696d65206973206265666f72652063757272656e7420636c6f73696e672074696d65536166654d6174683a206d756c7469706c69636174696f6e206f766572666c6f7743726f776473616c653a2062656e656669636961727920697320746865207a65726f2061646472657373a165627a7a723058206fa5c46461adff416d65b873b8c6f137375892c7ba2938612dcdf92676caf4d6002954696d656443726f776473616c653a206f70656e696e672074696d65206973206265666f72652063757272656e742074696d6554696d656443726f776473616c653a206f70656e696e672074696d65206973206e6f74206265666f726520636c6f73696e672074696d6543726f776473616c653a20746f6b656e20697320746865207a65726f206164647265737343726f776473616c653a2077616c6c657420697320746865207a65726f2061646472657373",
  "linkReferences": {},
  "deployedLinkReferences": {}
}