{
  "_format": "hh-sol-artifact-1",
  "contractName": "FFC",
  "sourceName": "contracts/FFC.sol",
  "abi": [
    {
      "inputs": [],
      "stateMutability": "nonpayable",
      "type": "constructor"
    },
    {
      "anonymous": false,
      "inputs": [
        {
          "indexed": true,
          "internalType": "address",
          "name": "owner",
          "type": "address"
        },
        {
          "indexed": true,
          "internalType": "address",
          "name": "spender",
          "type": "address"
        },
        {
          "indexed": false,
          "internalType": "uint256",
          "name": "value",
          "type": "uint256"
        }
      ],
      "name": "Approval",
      "type": "event"
    },
    {
      "anonymous": false,
      "inputs": [
        {
          "indexed": false,
          "internalType": "address",
          "name": "account",
          "type": "address"
        }
      ],
      "name": "Paused",
      "type": "event"
    },
    {
      "anonymous": false,
      "inputs": [
        {
          "indexed": true,
          "internalType": "bytes32",
          "name": "role",
          "type": "bytes32"
        },
        {
          "indexed": true,
          "internalType": "bytes32",
          "name": "previousAdminRole",
          "type": "bytes32"
        },
        {
          "indexed": true,
          "internalType": "bytes32",
          "name": "newAdminRole",
          "type": "bytes32"
        }
      ],
      "name": "RoleAdminChanged",
      "type": "event"
    },
    {
      "anonymous": false,
      "inputs": [
        {
          "indexed": true,
          "internalType": "bytes32",
          "name": "role",
          "type": "bytes32"
        },
        {
          "indexed": true,
          "internalType": "address",
          "name": "account",
          "type": "address"
        },
        {
          "indexed": true,
          "internalType": "address",
          "name": "sender",
          "type": "address"
        }
      ],
      "name": "RoleGranted",
      "type": "event"
    },
    {
      "anonymous": false,
      "inputs": [
        {
          "indexed": true,
          "internalType": "bytes32",
          "name": "role",
          "type": "bytes32"
        },
        {
          "indexed": true,
          "internalType": "address",
          "name": "account",
          "type": "address"
        },
        {
          "indexed": true,
          "internalType": "address",
          "name": "sender",
          "type": "address"
        }
      ],
      "name": "RoleRevoked",
      "type": "event"
    },
    {
      "anonymous": false,
      "inputs": [
        {
          "indexed": true,
          "internalType": "address",
          "name": "from",
          "type": "address"
        },
        {
          "indexed": true,
          "internalType": "address",
          "name": "to",
          "type": "address"
        },
        {
          "indexed": false,
          "internalType": "uint256",
          "name": "value",
          "type": "uint256"
        }
      ],
      "name": "Transfer",
      "type": "event"
    },
    {
      "anonymous": false,
      "inputs": [
        {
          "indexed": false,
          "internalType": "address",
          "name": "account",
          "type": "address"
        }
      ],
      "name": "Unpaused",
      "type": "event"
    },
    {
      "inputs": [],
      "name": "DEFAULT_ADMIN_ROLE",
      "outputs": [
        {
          "internalType": "bytes32",
          "name": "",
          "type": "bytes32"
        }
      ],
      "stateMutability": "view",
      "type": "function"
    },
    {
      "inputs": [],
      "name": "PAUSER_ROLE",
      "outputs": [
        {
          "internalType": "bytes32",
          "name": "",
          "type": "bytes32"
        }
      ],
      "stateMutability": "view",
      "type": "function"
    },
    {
      "inputs": [
        {
          "internalType": "address",
          "name": "owner",
          "type": "address"
        },
        {
          "internalType": "address",
          "name": "spender",
          "type": "address"
        }
      ],
      "name": "allowance",
      "outputs": [
        {
          "internalType": "uint256",
          "name": "",
          "type": "uint256"
        }
      ],
      "stateMutability": "view",
      "type": "function"
    },
    {
      "inputs": [
        {
          "internalType": "address",
          "name": "spender",
          "type": "address"
        },
        {
          "internalType": "uint256",
          "name": "amount",
          "type": "uint256"
        }
      ],
      "name": "approve",
      "outputs": [
        {
          "internalType": "bool",
          "name": "",
          "type": "bool"
        }
      ],
      "stateMutability": "nonpayable",
      "type": "function"
    },
    {
      "inputs": [
        {
          "internalType": "address",
          "name": "account",
          "type": "address"
        }
      ],
      "name": "balanceOf",
      "outputs": [
        {
          "internalType": "uint256",
          "name": "",
          "type": "uint256"
        }
      ],
      "stateMutability": "view",
      "type": "function"
    },
    {
      "inputs": [
        {
          "internalType": "uint256",
          "name": "amount",
          "type": "uint256"
        }
      ],
      "name": "burn",
      "outputs": [],
      "stateMutability": "nonpayable",
      "type": "function"
    },
    {
      "inputs": [
        {
          "internalType": "address",
          "name": "account",
          "type": "address"
        },
        {
          "internalType": "uint256",
          "name": "amount",
          "type": "uint256"
        }
      ],
      "name": "burnFrom",
      "outputs": [],
      "stateMutability": "nonpayable",
      "type": "function"
    },
    {
      "inputs": [],
      "name": "decimals",
      "outputs": [
        {
          "internalType": "uint8",
          "name": "",
          "type": "uint8"
        }
      ],
      "stateMutability": "view",
      "type": "function"
    },
    {
      "inputs": [
        {
          "internalType": "address",
          "name": "spender",
          "type": "address"
        },
        {
          "internalType": "uint256",
          "name": "subtractedValue",
          "type": "uint256"
        }
      ],
      "name": "decreaseAllowance",
      "outputs": [
        {
          "internalType": "bool",
          "name": "",
          "type": "bool"
        }
      ],
      "stateMutability": "nonpayable",
      "type": "function"
    },
    {
      "inputs": [
        {
          "internalType": "bytes32",
          "name": "role",
          "type": "bytes32"
        }
      ],
      "name": "getRoleAdmin",
      "outputs": [
        {
          "internalType": "bytes32",
          "name": "",
          "type": "bytes32"
        }
      ],
      "stateMutability": "view",
      "type": "function"
    },
    {
      "inputs": [
        {
          "internalType": "bytes32",
          "name": "role",
          "type": "bytes32"
        },
        {
          "internalType": "address",
          "name": "account",
          "type": "address"
        }
      ],
      "name": "grantRole",
      "outputs": [],
      "stateMutability": "nonpayable",
      "type": "function"
    },
    {
      "inputs": [
        {
          "internalType": "bytes32",
          "name": "role",
          "type": "bytes32"
        },
        {
          "internalType": "address",
          "name": "account",
          "type": "address"
        }
      ],
      "name": "hasRole",
      "outputs": [
        {
          "internalType": "bool",
          "name": "",
          "type": "bool"
        }
      ],
      "stateMutability": "view",
      "type": "function"
    },
    {
      "inputs": [
        {
          "internalType": "address",
          "name": "spender",
          "type": "address"
        },
        {
          "internalType": "uint256",
          "name": "addedValue",
          "type": "uint256"
        }
      ],
      "name": "increaseAllowance",
      "outputs": [
        {
          "internalType": "bool",
          "name": "",
          "type": "bool"
        }
      ],
      "stateMutability": "nonpayable",
      "type": "function"
    },
    {
      "inputs": [],
      "name": "name",
      "outputs": [
        {
          "internalType": "string",
          "name": "",
          "type": "string"
        }
      ],
      "stateMutability": "view",
      "type": "function"
    },
    {
      "inputs": [],
      "name": "pause",
      "outputs": [],
      "stateMutability": "nonpayable",
      "type": "function"
    },
    {
      "inputs": [],
      "name": "paused",
      "outputs": [
        {
          "internalType": "bool",
          "name": "",
          "type": "bool"
        }
      ],
      "stateMutability": "view",
      "type": "function"
    },
    {
      "inputs": [
        {
          "internalType": "bytes32",
          "name": "role",
          "type": "bytes32"
        },
        {
          "internalType": "address",
          "name": "account",
          "type": "address"
        }
      ],
      "name": "renounceRole",
      "outputs": [],
      "stateMutability": "nonpayable",
      "type": "function"
    },
    {
      "inputs": [
        {
          "internalType": "bytes32",
          "name": "role",
          "type": "bytes32"
        },
        {
          "internalType": "address",
          "name": "account",
          "type": "address"
        }
      ],
      "name": "revokeRole",
      "outputs": [],
      "stateMutability": "nonpayable",
      "type": "function"
    },
    {
      "inputs": [
        {
          "internalType": "bytes4",
          "name": "interfaceId",
          "type": "bytes4"
        }
      ],
      "name": "supportsInterface",
      "outputs": [
        {
          "internalType": "bool",
          "name": "",
          "type": "bool"
        }
      ],
      "stateMutability": "view",
      "type": "function"
    },
    {
      "inputs": [],
      "name": "symbol",
      "outputs": [
        {
          "internalType": "string",
          "name": "",
          "type": "string"
        }
      ],
      "stateMutability": "view",
      "type": "function"
    },
    {
      "inputs": [],
      "name": "totalSupply",
      "outputs": [
        {
          "internalType": "uint256",
          "name": "",
          "type": "uint256"
        }
      ],
      "stateMutability": "view",
      "type": "function"
    },
    {
      "inputs": [
        {
          "internalType": "address",
          "name": "recipient",
          "type": "address"
        },
        {
          "internalType": "uint256",
          "name": "amount",
          "type": "uint256"
        }
      ],
      "name": "transfer",
      "outputs": [
        {
          "internalType": "bool",
          "name": "",
          "type": "bool"
        }
      ],
      "stateMutability": "nonpayable",
      "type": "function"
    },
    {
      "inputs": [
        {
          "internalType": "address",
          "name": "sender",
          "type": "address"
        },
        {
          "internalType": "address",
          "name": "recipient",
          "type": "address"
        },
        {
          "internalType": "uint256",
          "name": "amount",
          "type": "uint256"
        }
      ],
      "name": "transferFrom",
      "outputs": [
        {
          "internalType": "bool",
          "name": "",
          "type": "bool"
        }
      ],
      "stateMutability": "nonpayable",
      "type": "function"
    },
    {
      "inputs": [],
      "name": "unpause",
      "outputs": [],
      "stateMutability": "nonpayable",
      "type": "function"
    }
  ],
  "bytecode": "0x60806040523480156200001157600080fd5b506040518060400160405280601581526020017f466f6f7462616c6c2046616e7461737920436f696e00000000000000000000008152506040518060400160405280600381526020016246464360e81b81525081600390805190602001906200007c92919062000305565b5080516200009290600490602084019062000305565b50506005805460ff1916905550620000ac60003362000111565b620000d87f65d7a28e3265b37a6474929f336521b332c1681b933f6cb9f3376673440d862a3362000111565b6200010b33620000e762000121565b620000f490600a6200047d565b62000105906406fc23ac0062000575565b62000126565b620005ea565b6200011d8282620001fa565b5050565b601290565b6001600160a01b038216620001585760405162461bcd60e51b81526004016200014f90620003d5565b60405180910390fd5b620001666000838362000286565b80600260008282546200017a919062000415565b90915550506001600160a01b03821660009081526020819052604081208054839290620001a990849062000415565b90915550506040516001600160a01b038316906000907fddf252ad1be2c89b69c2b068fc378daa952ba7f163c4a11628f55a4df523b3ef90620001ee9085906200040c565b60405180910390a35050565b620002068282620002cd565b6200011d5760008281526006602090815260408083206001600160a01b03851684529091529020805460ff1916600117905562000242620002f8565b6001600160a01b0316816001600160a01b0316837f2f8788117e7eff1d82e926ec794901d17c78024a50270940304540a733656f0d60405160405180910390a45050565b62000290620002fc565b15620002b05760405162461bcd60e51b81526004016200014f90620003ab565b620002c8838383620002c860201b6200052d1760201c565b505050565b60009182526006602090815260408084206001600160a01b0393909316845291905290205460ff1690565b3390565b60055460ff1690565b828054620003139062000597565b90600052602060002090601f01602090048101928262000337576000855562000382565b82601f106200035257805160ff191683800117855562000382565b8280016001018555821562000382579182015b828111156200038257825182559160200191906001019062000365565b506200039092915062000394565b5090565b5b8082111562000390576000815560010162000395565b60208082526010908201526f14185d5cd8589b194e881c185d5cd95960821b604082015260600190565b6020808252601f908201527f45524332303a206d696e7420746f20746865207a65726f206164647265737300604082015260600190565b90815260200190565b600082198211156200042b576200042b620005d4565b500190565b80825b600180861162000444575062000474565b818704821115620004595762000459620005d4565b808616156200046757918102915b9490941c93800262000433565b94509492505050565b60006200049160001960ff85168462000498565b9392505050565b600082620004a95750600162000491565b81620004b85750600062000491565b8160018114620004d15760028114620004dc5762000510565b600191505062000491565b60ff841115620004f057620004f0620005d4565b6001841b915084821115620005095762000509620005d4565b5062000491565b5060208310610133831016604e8410600b841016171562000548575081810a83811115620005425762000542620005d4565b62000491565b62000557848484600162000430565b8086048211156200056c576200056c620005d4565b02949350505050565b6000816000190483118215151615620005925762000592620005d4565b500290565b600281046001821680620005ac57607f821691505b60208210811415620005ce57634e487b7160e01b600052602260045260246000fd5b50919050565b634e487b7160e01b600052601160045260246000fd5b61176880620005fa6000396000f3fe608060405234801561001057600080fd5b50600436106101985760003560e01c80635c975abb116100e3578063a217fddf1161008c578063d547741f11610066578063d547741f14610313578063dd62ed3e14610326578063e63ab1e91461033957610198565b8063a217fddf146102e5578063a457c2d7146102ed578063a9059cbb1461030057610198565b80638456cb59116100bd5780638456cb59146102c257806391d14854146102ca57806395d89b41146102dd57610198565b80635c975abb1461029457806370a082311461029c57806379cc6790146102af57610198565b80632f2ff15d11610145578063395093511161011f57806339509351146102665780633f4ba83a1461027957806342966c681461028157610198565b80632f2ff15d14610229578063313ce5671461023e57806336568abe1461025357610198565b806318160ddd1161017657806318160ddd146101ee57806323b872dd14610203578063248a9ca31461021657610198565b806301ffc9a71461019d57806306fdde03146101c6578063095ea7b3146101db575b600080fd5b6101b06101ab366004611080565b610341565b6040516101bd9190611155565b60405180910390f35b6101ce61039f565b6040516101bd9190611169565b6101b06101e936600461101d565b610431565b6101f661044e565b6040516101bd9190611160565b6101b0610211366004610fe2565b610454565b6101f6610224366004611046565b6104f4565b61023c61023736600461105e565b610509565b005b610246610532565b6040516101bd919061163e565b61023c61026136600461105e565b610537565b6101b061027436600461101d565b61057d565b61023c6105cc565b61023c61028f366004611046565b610609565b6101b061061d565b6101f66102aa366004610f96565b610626565b61023c6102bd36600461101d565b610641565b61023c610691565b6101b06102d836600461105e565b6106cc565b6101ce6106f7565b6101f6610706565b6101b06102fb36600461101d565b61070b565b6101b061030e36600461101d565b610786565b61023c61032136600461105e565b61079a565b6101f6610334366004610fb0565b6107b9565b6101f66107e4565b60007fffffffff0000000000000000000000000000000000000000000000000000000082167f7965db0b000000000000000000000000000000000000000000000000000000001480610397575061039782610808565b90505b919050565b6060600380546103ae906116e1565b80601f01602080910402602001604051908101604052809291908181526020018280546103da906116e1565b80156104275780601f106103fc57610100808354040283529160200191610427565b820191906000526020600020905b81548152906001019060200180831161040a57829003601f168201915b5050505050905090565b600061044561043e610852565b8484610856565b50600192915050565b60025490565b600061046184848461090a565b6001600160a01b038416600090815260016020526040812081610482610852565b6001600160a01b03166001600160a01b03168152602001908152602001600020549050828110156104ce5760405162461bcd60e51b81526004016104c5906113b3565b60405180910390fd5b6104e9856104da610852565b6104e48685611683565b610856565b506001949350505050565b60009081526006602052604090206001015490565b610512826104f4565b6105238161051e610852565b610a32565b61052d8383610a96565b505050565b601290565b61053f610852565b6001600160a01b0316816001600160a01b03161461056f5760405162461bcd60e51b81526004016104c5906115e1565b6105798282610b1d565b5050565b600061044561058a610852565b848460016000610598610852565b6001600160a01b03908116825260208083019390935260409182016000908120918b16815292529020546104e4919061164c565b6105f67f65d7a28e3265b37a6474929f336521b332c1681b933f6cb9f3376673440d862a336106cc565b6105ff57600080fd5b610607610ba2565b565b61061a610614610852565b82610c10565b50565b60055460ff1690565b6001600160a01b031660009081526020819052604090205490565b600061064f83610334610852565b9050818110156106715760405162461bcd60e51b81526004016104c590611410565b6106878361067d610852565b6104e48585611683565b61052d8383610c10565b6106bb7f65d7a28e3265b37a6474929f336521b332c1681b933f6cb9f3376673440d862a336106cc565b6106c457600080fd5b610607610cf6565b60009182526006602090815260408084206001600160a01b0393909316845291905290205460ff1690565b6060600480546103ae906116e1565b600081565b6000806001600061071a610852565b6001600160a01b03908116825260208083019390935260409182016000908120918816815292529020549050828110156107665760405162461bcd60e51b81526004016104c590611584565b61077c610771610852565b856104e48685611683565b5060019392505050565b6000610445610793610852565b848461090a565b6107a3826104f4565b6107af8161051e610852565b61052d8383610b1d565b6001600160a01b03918216600090815260016020908152604080832093909416825291909152205490565b7f65d7a28e3265b37a6474929f336521b332c1681b933f6cb9f3376673440d862a81565b7fffffffff0000000000000000000000000000000000000000000000000000000081167f01ffc9a70000000000000000000000000000000000000000000000000000000014919050565b3390565b6001600160a01b03831661087c5760405162461bcd60e51b81526004016104c590611527565b6001600160a01b0382166108a25760405162461bcd60e51b81526004016104c5906112c2565b6001600160a01b0380841660008181526001602090815260408083209487168084529490915290819020849055517f8c5be1e5ebec7d5bd14f71427d1e84f3dd0314c0f7b2291e5b200ac8c7c3b925906108fd908590611160565b60405180910390a3505050565b6001600160a01b0383166109305760405162461bcd60e51b81526004016104c5906114ca565b6001600160a01b0382166109565760405162461bcd60e51b81526004016104c5906111d1565b610961838383610d51565b6001600160a01b0383166000908152602081905260409020548181101561099a5760405162461bcd60e51b81526004016104c59061131f565b6109a48282611683565b6001600160a01b0380861660009081526020819052604080822093909355908516815290812080548492906109da90849061164c565b92505081905550826001600160a01b0316846001600160a01b03167fddf252ad1be2c89b69c2b068fc378daa952ba7f163c4a11628f55a4df523b3ef84604051610a249190611160565b60405180910390a350505050565b610a3c82826106cc565b61057957610a54816001600160a01b03166014610d81565b610a5f836020610d81565b604051602001610a709291906110c0565b60408051601f198184030181529082905262461bcd60e51b82526104c591600401611169565b610aa082826106cc565b6105795760008281526006602090815260408083206001600160a01b03851684529091529020805460ff19166001179055610ad9610852565b6001600160a01b0316816001600160a01b0316837f2f8788117e7eff1d82e926ec794901d17c78024a50270940304540a733656f0d60405160405180910390a45050565b610b2782826106cc565b156105795760008281526006602090815260408083206001600160a01b03851684529091529020805460ff19169055610b5e610852565b6001600160a01b0316816001600160a01b0316837ff6391f5c32d9c69d2a47ea670b442974b53935d1edc7fd64eb21e047a839171b60405160405180910390a45050565b610baa61061d565b610bc65760405162461bcd60e51b81526004016104c59061122e565b6005805460ff191690557f5db9ee0a495bf2e6ff9c91a7834c1ba4fdd244a5e8aa4e537bd38aeae4b073aa610bf9610852565b604051610c069190611141565b60405180910390a1565b6001600160a01b038216610c365760405162461bcd60e51b81526004016104c59061146d565b610c4282600083610d51565b6001600160a01b03821660009081526020819052604090205481811015610c7b5760405162461bcd60e51b81526004016104c590611265565b610c858282611683565b6001600160a01b03841660009081526020819052604081209190915560028054849290610cb3908490611683565b90915550506040516000906001600160a01b038516907fddf252ad1be2c89b69c2b068fc378daa952ba7f163c4a11628f55a4df523b3ef906108fd908690611160565b610cfe61061d565b15610d1b5760405162461bcd60e51b81526004016104c59061137c565b6005805460ff191660011790557f62e78cea01bee320cd4e420270b5ea74000d11b0c9f74754ebdbfc544b05a258610bf9610852565b610d5961061d565b15610d765760405162461bcd60e51b81526004016104c59061137c565b61052d83838361052d565b60606000610d90836002611664565b610d9b90600261164c565b67ffffffffffffffff811115610dc157634e487b7160e01b600052604160045260246000fd5b6040519080825280601f01601f191660200182016040528015610deb576020820181803683370190505b5090507f300000000000000000000000000000000000000000000000000000000000000081600081518110610e3057634e487b7160e01b600052603260045260246000fd5b60200101906001600160f81b031916908160001a9053507f780000000000000000000000000000000000000000000000000000000000000081600181518110610e8957634e487b7160e01b600052603260045260246000fd5b60200101906001600160f81b031916908160001a9053506000610ead846002611664565b610eb890600161164c565b90505b6001811115610f59577f303132333435363738396162636465660000000000000000000000000000000085600f1660108110610f0757634e487b7160e01b600052603260045260246000fd5b1a60f81b828281518110610f2b57634e487b7160e01b600052603260045260246000fd5b60200101906001600160f81b031916908160001a90535060049490941c93610f52816116ca565b9050610ebb565b508315610f785760405162461bcd60e51b81526004016104c59061119c565b9392505050565b80356001600160a01b038116811461039a57600080fd5b600060208284031215610fa7578081fd5b610f7882610f7f565b60008060408385031215610fc2578081fd5b610fcb83610f7f565b9150610fd960208401610f7f565b90509250929050565b600080600060608486031215610ff6578081fd5b610fff84610f7f565b925061100d60208501610f7f565b9150604084013590509250925092565b6000806040838503121561102f578182fd5b61103883610f7f565b946020939093013593505050565b600060208284031215611057578081fd5b5035919050565b60008060408385031215611070578182fd5b82359150610fd960208401610f7f565b600060208284031215611091578081fd5b81357fffffffff0000000000000000000000000000000000000000000000000000000081168114610f78578182fd5b60007f416363657373436f6e74726f6c3a206163636f756e7420000000000000000000825283516110f881601785016020880161169a565b7f206973206d697373696e6720726f6c6520000000000000000000000000000000601791840191820152835161113581602884016020880161169a565b01602801949350505050565b6001600160a01b0391909116815260200190565b901515815260200190565b90815260200190565b600060208252825180602084015261118881604085016020870161169a565b601f01601f19169190910160400192915050565b6020808252818101527f537472696e67733a20686578206c656e67746820696e73756666696369656e74604082015260600190565b60208082526023908201527f45524332303a207472616e7366657220746f20746865207a65726f206164647260408201527f6573730000000000000000000000000000000000000000000000000000000000606082015260800190565b60208082526014908201527f5061757361626c653a206e6f7420706175736564000000000000000000000000604082015260600190565b60208082526022908201527f45524332303a206275726e20616d6f756e7420657863656564732062616c616e60408201527f6365000000000000000000000000000000000000000000000000000000000000606082015260800190565b60208082526022908201527f45524332303a20617070726f766520746f20746865207a65726f20616464726560408201527f7373000000000000000000000000000000000000000000000000000000000000606082015260800190565b60208082526026908201527f45524332303a207472616e7366657220616d6f756e742065786365656473206260408201527f616c616e63650000000000000000000000000000000000000000000000000000606082015260800190565b60208082526010908201527f5061757361626c653a2070617573656400000000000000000000000000000000604082015260600190565b60208082526028908201527f45524332303a207472616e7366657220616d6f756e742065786365656473206160408201527f6c6c6f77616e6365000000000000000000000000000000000000000000000000606082015260800190565b60208082526024908201527f45524332303a206275726e20616d6f756e74206578636565647320616c6c6f7760408201527f616e636500000000000000000000000000000000000000000000000000000000606082015260800190565b60208082526021908201527f45524332303a206275726e2066726f6d20746865207a65726f2061646472657360408201527f7300000000000000000000000000000000000000000000000000000000000000606082015260800190565b60208082526025908201527f45524332303a207472616e736665722066726f6d20746865207a65726f20616460408201527f6472657373000000000000000000000000000000000000000000000000000000606082015260800190565b60208082526024908201527f45524332303a20617070726f76652066726f6d20746865207a65726f2061646460408201527f7265737300000000000000000000000000000000000000000000000000000000606082015260800190565b60208082526025908201527f45524332303a2064656372656173656420616c6c6f77616e63652062656c6f7760408201527f207a65726f000000000000000000000000000000000000000000000000000000606082015260800190565b6020808252602f908201527f416363657373436f6e74726f6c3a2063616e206f6e6c792072656e6f756e636560408201527f20726f6c657320666f722073656c660000000000000000000000000000000000606082015260800190565b60ff91909116815260200190565b6000821982111561165f5761165f61171c565b500190565b600081600019048311821515161561167e5761167e61171c565b500290565b6000828210156116955761169561171c565b500390565b60005b838110156116b557818101518382015260200161169d565b838111156116c4576000848401525b50505050565b6000816116d9576116d961171c565b506000190190565b6002810460018216806116f557607f821691505b6020821081141561171657634e487b7160e01b600052602260045260246000fd5b50919050565b634e487b7160e01b600052601160045260246000fdfea26469706673582212205f9a8d58ebbc36f1d9b2c813502214c931da9936115e2cbe75d204531a6ab1cd64736f6c63430008000033",
  "linkReferences": {},
  "deployedLinkReferences": {}
}