{
  "_format": "hh-sol-artifact-1",
  "contractName": "MerkleAirdrop",
  "sourceName": "contracts/MerkleAirdrop.sol",
  "abi": [
    {
      "inputs": [
        {
          "internalType": "address",
          "name": "tokenAddress",
          "type": "address"
        }
      ],
      "stateMutability": "nonpayable",
      "type": "constructor"
    },
    {
      "anonymous": false,
      "inputs": [
        {
          "indexed": false,
          "internalType": "address",
          "name": "claimant",
          "type": "address"
        },
        {
          "indexed": false,
          "internalType": "uint16",
          "name": "week",
          "type": "uint16"
        },
        {
          "indexed": false,
          "internalType": "uint256",
          "name": "balance",
          "type": "uint256"
        }
      ],
      "name": "Claimed",
      "type": "event"
    },
    {
      "anonymous": false,
      "inputs": [
        {
          "indexed": true,
          "internalType": "address",
          "name": "previousOwner",
          "type": "address"
        },
        {
          "indexed": true,
          "internalType": "address",
          "name": "newOwner",
          "type": "address"
        }
      ],
      "name": "OwnershipTransferred",
      "type": "event"
    },
    {
      "anonymous": false,
      "inputs": [
        {
          "indexed": true,
          "internalType": "address",
          "name": "_address",
          "type": "address"
        }
      ],
      "name": "RemovedFunder",
      "type": "event"
    },
    {
      "anonymous": false,
      "inputs": [
        {
          "indexed": false,
          "internalType": "uint16",
          "name": "tranche",
          "type": "uint16"
        },
        {
          "indexed": false,
          "internalType": "bytes32",
          "name": "merkleRoot",
          "type": "bytes32"
        },
        {
          "indexed": false,
          "internalType": "uint256",
          "name": "totalAmount",
          "type": "uint256"
        }
      ],
      "name": "TrancheAdded",
      "type": "event"
    },
    {
      "anonymous": false,
      "inputs": [
        {
          "indexed": false,
          "internalType": "uint16",
          "name": "tranche",
          "type": "uint16"
        }
      ],
      "name": "TrancheExpired",
      "type": "event"
    },
    {
      "inputs": [
        {
          "internalType": "address",
          "name": "_liquidityProvider",
          "type": "address"
        },
        {
          "internalType": "uint16",
          "name": "_tranche",
          "type": "uint16"
        },
        {
          "internalType": "uint256",
          "name": "_balance",
          "type": "uint256"
        },
        {
          "internalType": "bytes32[]",
          "name": "_merkleProof",
          "type": "bytes32[]"
        }
      ],
      "name": "claimWeek",
      "outputs": [],
      "stateMutability": "nonpayable",
      "type": "function"
    },
    {
      "inputs": [
        {
          "internalType": "address",
          "name": "_liquidityProvider",
          "type": "address"
        },
        {
          "internalType": "uint16[]",
          "name": "_tranches",
          "type": "uint16[]"
        },
        {
          "internalType": "uint256[]",
          "name": "_balances",
          "type": "uint256[]"
        },
        {
          "internalType": "bytes32[][]",
          "name": "_merkleProofs",
          "type": "bytes32[][]"
        }
      ],
      "name": "claimWeeks",
      "outputs": [],
      "stateMutability": "nonpayable",
      "type": "function"
    },
    {
      "inputs": [
        {
          "internalType": "uint256",
          "name": "",
          "type": "uint256"
        },
        {
          "internalType": "address",
          "name": "",
          "type": "address"
        }
      ],
      "name": "claimed",
      "outputs": [
        {
          "internalType": "bool",
          "name": "",
          "type": "bool"
        }
      ],
      "stateMutability": "view",
      "type": "function"
    },
    {
      "inputs": [
        {
          "internalType": "uint16",
          "name": "_trancheId",
          "type": "uint16"
        }
      ],
      "name": "expireTranche",
      "outputs": [],
      "stateMutability": "nonpayable",
      "type": "function"
    },
    {
      "inputs": [
        {
          "internalType": "uint256",
          "name": "",
          "type": "uint256"
        }
      ],
      "name": "merkleRoots",
      "outputs": [
        {
          "internalType": "bytes32",
          "name": "",
          "type": "bytes32"
        }
      ],
      "stateMutability": "view",
      "type": "function"
    },
    {
      "inputs": [],
      "name": "owner",
      "outputs": [
        {
          "internalType": "address",
          "name": "",
          "type": "address"
        }
      ],
      "stateMutability": "view",
      "type": "function"
    },
    {
      "inputs": [],
      "name": "renounceOwnership",
      "outputs": [],
      "stateMutability": "nonpayable",
      "type": "function"
    },
    {
      "inputs": [
        {
          "internalType": "bytes32",
          "name": "_merkleRoot",
          "type": "bytes32"
        },
        {
          "internalType": "uint256",
          "name": "_totalAllocation",
          "type": "uint256"
        }
      ],
      "name": "seedNewAllocations",
      "outputs": [
        {
          "internalType": "uint16",
          "name": "trancheId",
          "type": "uint16"
        }
      ],
      "stateMutability": "nonpayable",
      "type": "function"
    },
    {
      "inputs": [],
      "name": "token",
      "outputs": [
        {
          "internalType": "contract IERC20",
          "name": "",
          "type": "address"
        }
      ],
      "stateMutability": "view",
      "type": "function"
    },
    {
      "inputs": [],
      "name": "tranches",
      "outputs": [
        {
          "internalType": "uint16",
          "name": "",
          "type": "uint16"
        }
      ],
      "stateMutability": "view",
      "type": "function"
    },
    {
      "inputs": [
        {
          "internalType": "address",
          "name": "newOwner",
          "type": "address"
        }
      ],
      "name": "transferOwnership",
      "outputs": [],
      "stateMutability": "nonpayable",
      "type": "function"
    },
    {
      "inputs": [
        {
          "internalType": "address",
          "name": "_liquidityProvider",
          "type": "address"
        },
        {
          "internalType": "uint16",
          "name": "_tranche",
          "type": "uint16"
        },
        {
          "internalType": "uint256",
          "name": "_balance",
          "type": "uint256"
        },
        {
          "internalType": "bytes32[]",
          "name": "_merkleProof",
          "type": "bytes32[]"
        }
      ],
      "name": "verifyClaim",
      "outputs": [
        {
          "internalType": "bool",
          "name": "valid",
          "type": "bool"
        }
      ],
      "stateMutability": "view",
      "type": "function"
    }
  ],
  "bytecode": "0x608060405234801561001057600080fd5b5060405161141a38038061141a83398101604081905261002f916100b8565b61003f61003a610064565b610068565b600180546001600160a01b0319166001600160a01b03929092169190911790556100e6565b3390565b600080546001600160a01b038381166001600160a01b0319831681178455604051919092169283917f8be0079c531659141344cd1fd0a4f28419497f9722a3daafe3b4186f6b6457e09190a35050565b6000602082840312156100c9578081fd5b81516001600160a01b03811681146100df578182fd5b9392505050565b611325806100f56000396000f3fe608060405234801561001057600080fd5b50600436106100d45760003560e01c806371c5ecb111610081578063ebf049171161005b578063ebf04917146101ad578063f2fde38b146101b5578063fc0c546a146101c8576100d4565b806371c5ecb1146101655780638da5cb5b14610185578063d301f7eb1461019a576100d4565b80634aab24da116100b25780634aab24da1461012a57806365ef53b11461013d578063715018a61461015d576100d4565b80630f6d4093146100d9578063120aa877146100ee57806319132e6a14610117575b600080fd5b6100ec6100e7366004610d81565b6101d0565b005b6101016100fc366004610db3565b610269565b60405161010e9190610ea0565b60405180910390f35b610101610125366004610ce6565b610289565b6100ec610138366004610ce6565b6102a0565b61015061014b366004610d60565b6102bc565b60405161010e91906111a3565b6100ec610397565b610178610173366004610d9b565b6103e2565b60405161010e9190610eab565b61018d6103f4565b60405161010e9190610e2a565b6100ec6101a8366004610bf2565b610403565b610150610533565b6100ec6101c3366004610bd8565b61053d565b61018d6105ae565b6101d86105bd565b6001600160a01b03166101e96103f4565b6001600160a01b0316146102185760405162461bcd60e51b815260040161020f9061100f565b60405180910390fd5b61ffff811660009081526002602052604080822091909155517f4c86edb6e6e6e9d4898491da135b77ebf46f80bf1ac4bc1717ea560b87f157ea9061025e9083906111a3565b60405180910390a150565b600360209081526000928352604080842090915290825290205460ff1681565b6000610297858585856105c1565b95945050505050565b6102ac8484848461061b565b6102b68483610728565b50505050565b60006102c66105bd565b6001600160a01b03166102d76103f4565b6001600160a01b0316146102fd5760405162461bcd60e51b815260040161020f9061100f565b600154610315906001600160a01b0316333085610766565b506004805461ffff9081166000818152600260205260409020859055915461033f9116600161121c565b6004805461ffff191661ffff929092169190911790556040517f73dffc0ee51095fb9e08225d2e34d19da0f14bd583a81eb81b34b6a1a7533ea990610389908390869086906111b2565b60405180910390a192915050565b61039f6105bd565b6001600160a01b03166103b06103f4565b6001600160a01b0316146103d65760405162461bcd60e51b815260040161020f9061100f565b6103e060006107eb565b565b60026020526000908152604090205481565b6000546001600160a01b031690565b82518251811480156104155750815181145b6104315760405162461bcd60e51b815260040161020f9061110f565b6000805b828161ffff161015610520576104ce87878361ffff168151811061046957634e487b7160e01b600052603260045260246000fd5b6020026020010151878461ffff168151811061049557634e487b7160e01b600052603260045260246000fd5b6020026020010151878561ffff16815181106104c157634e487b7160e01b600052603260045260246000fd5b602002602001015161061b565b61050c858261ffff16815181106104f557634e487b7160e01b600052603260045260246000fd5b60200260200101518361085390919063ffffffff16565b91508061051881611286565b915050610435565b5061052b8682610728565b505050505050565b60045461ffff1681565b6105456105bd565b6001600160a01b03166105566103f4565b6001600160a01b03161461057c5760405162461bcd60e51b815260040161020f9061100f565b6001600160a01b0381166105a25760405162461bcd60e51b815260040161020f90610f1e565b6105ab816107eb565b50565b6001546001600160a01b031681565b3390565b60008085846040516020016105d7929190610dde565b60405160208183030381529060405280519060200120905061061183600260008861ffff1681526020019081526020016000205483610866565b9695505050505050565b60045461ffff908116908416106106445760405162461bcd60e51b815260040161020f90610ee7565b61ffff831660009081526003602090815260408083206001600160a01b038816845290915290205460ff161561068c5760405162461bcd60e51b815260040161020f906110a1565b610698848484846105c1565b6106b45760405162461bcd60e51b815260040161020f90610f7b565b61ffff831660009081526003602090815260408083206001600160a01b038816845290915290819020805460ff19166001179055517fdbd2d6a4e6b6b3475dab543a2defb0c48e8027efdad363c6cc2935ef4074b5419061071a90869086908690610e62565b60405180910390a150505050565b801561074a57600154610745906001600160a01b03168383610921565b610762565b60405162461bcd60e51b815260040161020f90611044565b5050565b6102b6846323b872dd60e01b85858560405160240161078793929190610e3e565b60408051601f198184030181529190526020810180517bffffffffffffffffffffffffffffffffffffffffffffffffffffffff167fffffffff0000000000000000000000000000000000000000000000000000000090931692909217909152610945565b600080546001600160a01b038381167fffffffffffffffffffffffff0000000000000000000000000000000000000000831681178455604051919092169283917f8be0079c531659141344cd1fd0a4f28419497f9722a3daafe3b4186f6b6457e09190a35050565b600061085f8284611242565b9392505050565b600081815b855181101561091657600086828151811061089657634e487b7160e01b600052603260045260246000fd5b602002602001015190508083116108d75782816040516020016108ba929190610e00565b604051602081830303815290604052805190602001209250610903565b80836040516020016108ea929190610e00565b6040516020818303038152906040528051906020012092505b508061090e816112a8565b91505061086b565b509092149392505050565b6109408363a9059cbb60e01b8484604051602401610787929190610e87565b505050565b600061099a826040518060400160405280602081526020017f5361666545524332303a206c6f772d6c6576656c2063616c6c206661696c6564815250856001600160a01b03166109d49092919063ffffffff16565b80519091501561094057808060200190518101906109b89190610d40565b6109405760405162461bcd60e51b815260040161020f90611146565b60606109e384846000856109eb565b949350505050565b606082471015610a0d5760405162461bcd60e51b815260040161020f90610fb2565b610a1685610aab565b610a325760405162461bcd60e51b815260040161020f906110d8565b600080866001600160a01b03168587604051610a4e9190610e0e565b60006040518083038185875af1925050503d8060008114610a8b576040519150601f19603f3d011682016040523d82523d6000602084013e610a90565b606091505b5091509150610aa0828286610ab5565b979650505050505050565b803b15155b919050565b60608315610ac457508161085f565b825115610ad45782518084602001fd5b8160405162461bcd60e51b815260040161020f9190610eb4565b80356001600160a01b0381168114610ab057600080fd5b600082601f830112610b15578081fd5b81356020610b2a610b25836111f8565b6111ce565b82815281810190858301855b85811015610b5f57610b4d898684358b0101610b6c565b84529284019290840190600101610b36565b5090979650505050505050565b600082601f830112610b7c578081fd5b81356020610b8c610b25836111f8565b8281528181019085830183850287018401881015610ba8578586fd5b855b85811015610b5f57813584529284019290840190600101610baa565b803561ffff81168114610ab057600080fd5b600060208284031215610be9578081fd5b61085f82610aee565b60008060008060808587031215610c07578283fd5b610c1085610aee565b935060208086013567ffffffffffffffff80821115610c2d578586fd5b818801915088601f830112610c40578586fd5b8135610c4e610b25826111f8565b81815284810190848601868402860187018d1015610c6a57898afd5b8995505b83861015610c9357610c7f81610bc6565b835260019590950194918601918601610c6e565b50975050506040880135925080831115610cab578485fd5b610cb789848a01610b6c565b94506060880135925080831115610ccc578384fd5b5050610cda87828801610b05565b91505092959194509250565b60008060008060808587031215610cfb578384fd5b610d0485610aee565b9350610d1260208601610bc6565b925060408501359150606085013567ffffffffffffffff811115610d34578182fd5b610cda87828801610b6c565b600060208284031215610d51578081fd5b8151801515811461085f578182fd5b60008060408385031215610d72578182fd5b50508035926020909101359150565b600060208284031215610d92578081fd5b61085f82610bc6565b600060208284031215610dac578081fd5b5035919050565b60008060408385031215610dc5578182fd5b82359150610dd560208401610aee565b90509250929050565b60609290921b6bffffffffffffffffffffffff19168252601482015260340190565b918252602082015260400190565b60008251610e2081846020870161125a565b9190910192915050565b6001600160a01b0391909116815260200190565b6001600160a01b039384168152919092166020820152604081019190915260600190565b6001600160a01b0393909316835261ffff919091166020830152604082015260600190565b6001600160a01b03929092168252602082015260400190565b901515815260200190565b90815260200190565b6000602082528251806020840152610ed381604085016020870161125a565b601f01601f19169190910160400192915050565b6020808252601c908201527f5765656b2063616e6e6f7420626520696e207468652066757475726500000000604082015260600190565b60208082526026908201527f4f776e61626c653a206e6577206f776e657220697320746865207a65726f206160408201527f6464726573730000000000000000000000000000000000000000000000000000606082015260800190565b60208082526016908201527f496e636f7272656374206d65726b6c652070726f6f6600000000000000000000604082015260600190565b60208082526026908201527f416464726573733a20696e73756666696369656e742062616c616e636520666f60408201527f722063616c6c0000000000000000000000000000000000000000000000000000606082015260800190565b6020808252818101527f4f776e61626c653a2063616c6c6572206973206e6f7420746865206f776e6572604082015260600190565b6020808252603d908201527f4e6f2062616c616e636520776f756c64206265207472616e736665727265642060408201527f2d206e6f7420676f696e6720746f20776173746520796f757220676173000000606082015260800190565b60208082526016908201527f4c502068617320616c726561647920636c61696d656400000000000000000000604082015260600190565b6020808252601d908201527f416464726573733a2063616c6c20746f206e6f6e2d636f6e7472616374000000604082015260600190565b60208082526012908201527f4d69736d61746368696e6720696e707574730000000000000000000000000000604082015260600190565b6020808252602a908201527f5361666545524332303a204552433230206f7065726174696f6e20646964206e60408201527f6f74207375636365656400000000000000000000000000000000000000000000606082015260800190565b61ffff91909116815260200190565b61ffff9390931683526020830191909152604082015260600190565b60405181810167ffffffffffffffff811182821017156111f0576111f06112d9565b604052919050565b600067ffffffffffffffff821115611212576112126112d9565b5060209081020190565b600061ffff808316818516808303821115611239576112396112c3565b01949350505050565b60008219821115611255576112556112c3565b500190565b60005b8381101561127557818101518382015260200161125d565b838111156102b65750506000910152565b600061ffff8083168181141561129e5761129e6112c3565b6001019392505050565b60006000198214156112bc576112bc6112c3565b5060010190565b634e487b7160e01b600052601160045260246000fd5b634e487b7160e01b600052604160045260246000fdfea2646970667358221220fd0b10840a97fe566240e69bd698c3c99ca5a5b32b754ef005c10c2596b65a4464736f6c63430008000033",
  "linkReferences": {},
  "deployedLinkReferences": {}
}