{
  "_format": "hh-sol-artifact-1",
  "contractName": "SingSingV4",
  "sourceName": "contracts/SingSingV4.sol",
  "abi": [
    {
      "inputs": [],
      "stateMutability": "nonpayable",
      "type": "constructor"
    },
    {
      "anonymous": false,
      "inputs": [
        {
          "indexed": true,
          "internalType": "address",
          "name": "owner",
          "type": "address"
        },
        {
          "indexed": true,
          "internalType": "address",
          "name": "spender",
          "type": "address"
        },
        {
          "indexed": false,
          "internalType": "uint256",
          "name": "value",
          "type": "uint256"
        }
      ],
      "name": "Approval",
      "type": "event"
    },
    {
      "anonymous": false,
      "inputs": [
        {
          "indexed": true,
          "internalType": "address",
          "name": "previousOwner",
          "type": "address"
        },
        {
          "indexed": true,
          "internalType": "address",
          "name": "newOwner",
          "type": "address"
        }
      ],
      "name": "OwnershipTransferred",
      "type": "event"
    },
    {
      "anonymous": false,
      "inputs": [
        {
          "indexed": false,
          "internalType": "address",
          "name": "account",
          "type": "address"
        }
      ],
      "name": "Paused",
      "type": "event"
    },
    {
      "anonymous": false,
      "inputs": [
        {
          "indexed": true,
          "internalType": "address",
          "name": "from",
          "type": "address"
        },
        {
          "indexed": true,
          "internalType": "address",
          "name": "to",
          "type": "address"
        },
        {
          "indexed": false,
          "internalType": "uint256",
          "name": "value",
          "type": "uint256"
        }
      ],
      "name": "Transfer",
      "type": "event"
    },
    {
      "anonymous": false,
      "inputs": [
        {
          "indexed": false,
          "internalType": "address",
          "name": "account",
          "type": "address"
        }
      ],
      "name": "Unpaused",
      "type": "event"
    },
    {
      "stateMutability": "payable",
      "type": "fallback"
    },
    {
      "inputs": [
        {
          "internalType": "address",
          "name": "owner",
          "type": "address"
        },
        {
          "internalType": "address",
          "name": "spender",
          "type": "address"
        }
      ],
      "name": "allowance",
      "outputs": [
        {
          "internalType": "uint256",
          "name": "",
          "type": "uint256"
        }
      ],
      "stateMutability": "view",
      "type": "function"
    },
    {
      "inputs": [
        {
          "internalType": "address",
          "name": "spender",
          "type": "address"
        },
        {
          "internalType": "uint256",
          "name": "amount",
          "type": "uint256"
        }
      ],
      "name": "approve",
      "outputs": [
        {
          "internalType": "bool",
          "name": "",
          "type": "bool"
        }
      ],
      "stateMutability": "nonpayable",
      "type": "function"
    },
    {
      "inputs": [
        {
          "internalType": "address",
          "name": "account",
          "type": "address"
        }
      ],
      "name": "balanceOf",
      "outputs": [
        {
          "internalType": "uint256",
          "name": "",
          "type": "uint256"
        }
      ],
      "stateMutability": "view",
      "type": "function"
    },
    {
      "inputs": [
        {
          "internalType": "uint256",
          "name": "_amount",
          "type": "uint256"
        }
      ],
      "name": "burn",
      "outputs": [],
      "stateMutability": "nonpayable",
      "type": "function"
    },
    {
      "inputs": [],
      "name": "decimals",
      "outputs": [
        {
          "internalType": "uint8",
          "name": "",
          "type": "uint8"
        }
      ],
      "stateMutability": "view",
      "type": "function"
    },
    {
      "inputs": [
        {
          "internalType": "address",
          "name": "spender",
          "type": "address"
        },
        {
          "internalType": "uint256",
          "name": "subtractedValue",
          "type": "uint256"
        }
      ],
      "name": "decreaseAllowance",
      "outputs": [
        {
          "internalType": "bool",
          "name": "",
          "type": "bool"
        }
      ],
      "stateMutability": "nonpayable",
      "type": "function"
    },
    {
      "inputs": [
        {
          "internalType": "address",
          "name": "lockedAddress",
          "type": "address"
        }
      ],
      "name": "getAvailableBalance",
      "outputs": [
        {
          "internalType": "uint256",
          "name": "_amount",
          "type": "uint256"
        }
      ],
      "stateMutability": "view",
      "type": "function"
    },
    {
      "inputs": [],
      "name": "getBurnedAmountTotal",
      "outputs": [
        {
          "internalType": "uint256",
          "name": "_amount",
          "type": "uint256"
        }
      ],
      "stateMutability": "view",
      "type": "function"
    },
    {
      "inputs": [],
      "name": "getCirculatingSupplyTotal",
      "outputs": [
        {
          "internalType": "uint256",
          "name": "_amount",
          "type": "uint256"
        }
      ],
      "stateMutability": "view",
      "type": "function"
    },
    {
      "inputs": [],
      "name": "getLockedAddresses",
      "outputs": [
        {
          "internalType": "address[]",
          "name": "",
          "type": "address[]"
        }
      ],
      "stateMutability": "view",
      "type": "function"
    },
    {
      "inputs": [],
      "name": "getLockedAddressesCurrently",
      "outputs": [
        {
          "internalType": "address[]",
          "name": "",
          "type": "address[]"
        }
      ],
      "stateMutability": "view",
      "type": "function"
    },
    {
      "inputs": [
        {
          "internalType": "address",
          "name": "lockedAddress",
          "type": "address"
        }
      ],
      "name": "getLockedAmount",
      "outputs": [
        {
          "internalType": "uint256",
          "name": "_amount",
          "type": "uint256"
        }
      ],
      "stateMutability": "view",
      "type": "function"
    },
    {
      "inputs": [
        {
          "internalType": "uint64",
          "name": "_amountIndex",
          "type": "uint64"
        }
      ],
      "name": "getLockedAmountByIndex",
      "outputs": [
        {
          "internalType": "uint256",
          "name": "_amount",
          "type": "uint256"
        }
      ],
      "stateMutability": "view",
      "type": "function"
    },
    {
      "inputs": [],
      "name": "getLockedAmountTotal",
      "outputs": [
        {
          "internalType": "uint256",
          "name": "_amount",
          "type": "uint256"
        }
      ],
      "stateMutability": "view",
      "type": "function"
    },
    {
      "inputs": [
        {
          "internalType": "address",
          "name": "lockedAddress",
          "type": "address"
        }
      ],
      "name": "getLockedItem",
      "outputs": [
        {
          "components": [
            {
              "internalType": "uint256",
              "name": "releaseDate",
              "type": "uint256"
            },
            {
              "internalType": "uint64",
              "name": "amountLockIndex",
              "type": "uint64"
            }
          ],
          "internalType": "struct SingSingV4.LockItem[]",
          "name": "item",
          "type": "tuple[]"
        }
      ],
      "stateMutability": "view",
      "type": "function"
    },
    {
      "inputs": [],
      "name": "getNumberOfLockedAddresses",
      "outputs": [
        {
          "internalType": "uint256",
          "name": "_count",
          "type": "uint256"
        }
      ],
      "stateMutability": "view",
      "type": "function"
    },
    {
      "inputs": [],
      "name": "getNumberOfLockedAddressesCurrently",
      "outputs": [
        {
          "internalType": "uint256",
          "name": "_count",
          "type": "uint256"
        }
      ],
      "stateMutability": "view",
      "type": "function"
    },
    {
      "inputs": [
        {
          "internalType": "address",
          "name": "spender",
          "type": "address"
        },
        {
          "internalType": "uint256",
          "name": "addedValue",
          "type": "uint256"
        }
      ],
      "name": "increaseAllowance",
      "outputs": [
        {
          "internalType": "bool",
          "name": "",
          "type": "bool"
        }
      ],
      "stateMutability": "nonpayable",
      "type": "function"
    },
    {
      "inputs": [
        {
          "internalType": "address",
          "name": "_lockerAddress",
          "type": "address"
        }
      ],
      "name": "isLockerAddress",
      "outputs": [
        {
          "internalType": "bool",
          "name": "success",
          "type": "bool"
        }
      ],
      "stateMutability": "view",
      "type": "function"
    },
    {
      "inputs": [
        {
          "internalType": "address",
          "name": "",
          "type": "address"
        },
        {
          "internalType": "uint256",
          "name": "",
          "type": "uint256"
        }
      ],
      "name": "lockList",
      "outputs": [
        {
          "internalType": "uint256",
          "name": "releaseDate",
          "type": "uint256"
        },
        {
          "internalType": "uint64",
          "name": "amountLockIndex",
          "type": "uint64"
        }
      ],
      "stateMutability": "view",
      "type": "function"
    },
    {
      "inputs": [
        {
          "internalType": "address",
          "name": "",
          "type": "address"
        }
      ],
      "name": "lockerAddressList",
      "outputs": [
        {
          "internalType": "bool",
          "name": "",
          "type": "bool"
        }
      ],
      "stateMutability": "view",
      "type": "function"
    },
    {
      "inputs": [],
      "name": "name",
      "outputs": [
        {
          "internalType": "string",
          "name": "",
          "type": "string"
        }
      ],
      "stateMutability": "view",
      "type": "function"
    },
    {
      "inputs": [],
      "name": "owner",
      "outputs": [
        {
          "internalType": "address",
          "name": "",
          "type": "address"
        }
      ],
      "stateMutability": "view",
      "type": "function"
    },
    {
      "inputs": [],
      "name": "paused",
      "outputs": [
        {
          "internalType": "bool",
          "name": "",
          "type": "bool"
        }
      ],
      "stateMutability": "view",
      "type": "function"
    },
    {
      "inputs": [],
      "name": "renounceOwnership",
      "outputs": [],
      "stateMutability": "nonpayable",
      "type": "function"
    },
    {
      "inputs": [
        {
          "internalType": "address",
          "name": "_lockerAddress",
          "type": "address"
        },
        {
          "internalType": "bool",
          "name": "_status",
          "type": "bool"
        }
      ],
      "name": "setLockerAddress",
      "outputs": [
        {
          "internalType": "bool",
          "name": "success",
          "type": "bool"
        }
      ],
      "stateMutability": "nonpayable",
      "type": "function"
    },
    {
      "inputs": [],
      "name": "symbol",
      "outputs": [
        {
          "internalType": "string",
          "name": "",
          "type": "string"
        }
      ],
      "stateMutability": "view",
      "type": "function"
    },
    {
      "inputs": [],
      "name": "totalSupply",
      "outputs": [
        {
          "internalType": "uint256",
          "name": "",
          "type": "uint256"
        }
      ],
      "stateMutability": "view",
      "type": "function"
    },
    {
      "inputs": [
        {
          "internalType": "address",
          "name": "_receiver",
          "type": "address"
        },
        {
          "internalType": "uint256",
          "name": "_amount",
          "type": "uint256"
        }
      ],
      "name": "transfer",
      "outputs": [
        {
          "internalType": "bool",
          "name": "success",
          "type": "bool"
        }
      ],
      "stateMutability": "nonpayable",
      "type": "function"
    },
    {
      "inputs": [
        {
          "internalType": "address",
          "name": "_receiver",
          "type": "address"
        },
        {
          "internalType": "uint256",
          "name": "_amount",
          "type": "uint256"
        },
        {
          "internalType": "uint256",
          "name": "_releaseDate",
          "type": "uint256"
        }
      ],
      "name": "transferAndLock",
      "outputs": [
        {
          "internalType": "bool",
          "name": "success",
          "type": "bool"
        }
      ],
      "stateMutability": "nonpayable",
      "type": "function"
    },
    {
      "inputs": [
        {
          "internalType": "address",
          "name": "_receiver",
          "type": "address"
        },
        {
          "internalType": "uint256",
          "name": "_amountTotal",
          "type": "uint256"
        },
        {
          "internalType": "uint256",
          "name": "_amountAtTGE",
          "type": "uint256"
        },
        {
          "internalType": "uint256",
          "name": "_TGEDate",
          "type": "uint256"
        },
        {
          "internalType": "uint256",
          "name": "_startVestingDate",
          "type": "uint256"
        },
        {
          "internalType": "uint8",
          "name": "_vestingMonths",
          "type": "uint8"
        }
      ],
      "name": "transferAndVesting",
      "outputs": [
        {
          "internalType": "bool",
          "name": "success",
          "type": "bool"
        }
      ],
      "stateMutability": "nonpayable",
      "type": "function"
    },
    {
      "inputs": [
        {
          "internalType": "address",
          "name": "_from",
          "type": "address"
        },
        {
          "internalType": "address",
          "name": "_receiver",
          "type": "address"
        },
        {
          "internalType": "uint256",
          "name": "_amount",
          "type": "uint256"
        }
      ],
      "name": "transferFrom",
      "outputs": [
        {
          "internalType": "bool",
          "name": "",
          "type": "bool"
        }
      ],
      "stateMutability": "nonpayable",
      "type": "function"
    },
    {
      "inputs": [
        {
          "internalType": "address",
          "name": "newOwner",
          "type": "address"
        }
      ],
      "name": "transferOwnership",
      "outputs": [],
      "stateMutability": "nonpayable",
      "type": "function"
    },
    {
      "stateMutability": "payable",
      "type": "receive"
    }
  ],
  "bytecode": "0x6080604052600680546001600160a01b031990811673753d9799e55852a9b86143e710ede5510259fdb317909155600780548216738900b2412e1137cea302e22d45226f658c0488701790556008805482167315c5006be52a8cf8d6d6c70879eda247df59daf317905560098054821673e55a18240d33f3df0105ade629b40faf953b4e58179055600a8054821673dc9700e50ebf3ab7dae5f65928a081c553c74932179055600b805490911673e0c5e3efe1af0985366fad6b7fad25974198e013179055348015620000d157600080fd5b506040518060400160405280600481526020016353696e6760e01b8152506040518060400160405280600481526020016353494e4760e01b81525081600390805190602001906200012492919062000f98565b5080516200013a90600490602084019062000f98565b50506005805460ff19169055506200015b620001556200042e565b62000432565b620001656200048c565b620001759060ff16600a620012c6565b6200018590638f0d1800620013ae565b600c556200019f6200019662000491565b600c54620004a5565b6000620001b46107e660018084808062000576565b90506014600d620001c46200048c565b620001d49060ff16600a620012c6565b620001e39062dbba00620013ae565b81546001810183556000928352602090922090910155600d620002056200048c565b620002159060ff16600a620012c6565b62000225906301b77400620013ae565b81546001810183556000928352602090922090910155600d620002476200048c565b620002579060ff16600a620012c6565b6200026790630112a880620013ae565b815460018101835560009283526020832001555b818160ff1610156200030c576000620002a1846200029b846003620013d0565b62000762565b600654909150620002be906001600160a01b03166000836200082e565b50600854620002d9906001600160a01b03166001836200082e565b50600b54620002f4906001600160a01b03166002836200082e565b505080806200030390620014c4565b9150506200027b565b5060085462000359906001600160a01b0316620003286200048c565b620003389060ff16600a620012c6565b62000348906323c34600620013ae565b6200093960201b6200135e1760201c565b50600b5462000395906001600160a01b0316620003756200048c565b620003859060ff16600a620012c6565b62000348906315752a00620013ae565b50600654620003b1906001600160a01b0316620003756200048c565b50600754620003ed906001600160a01b0316620003cd6200048c565b620003dd9060ff16600a620012c6565b6200034890630e4e1c00620013ae565b50600a5462000409906001600160a01b0316620003cd6200048c565b5060095462000425906001600160a01b0316620003286200048c565b50505062001573565b3390565b600580546001600160a01b03838116610100818102610100600160a81b031985161790945560405193909204169182907f8be0079c531659141344cd1fd0a4f28419497f9722a3daafe3b4186f6b6457e090600090a35050565b601290565b60055461010090046001600160a01b031690565b6001600160a01b038216620004d75760405162461bcd60e51b8152600401620004ce9062001191565b60405180910390fd5b620004e5600083836200095a565b8060026000828254620004f99190620011fa565b90915550506001600160a01b0382166000908152602081905260408120805483929062000528908490620011fa565b90915550506040516001600160a01b03831690600090600080516020620041e9833981519152906200055c908590620011c8565b60405180910390a362000572600083836200095a565b5050565b60006107b25b8761ffff168161ffff161015620005de5762000598816200095f565b15620005b657620005ae6301e2850083620011fa565b9150620005c9565b620005c66301e1338083620011fa565b91505b80620005d5816200149f565b9150506200057c565b620005e862001027565b601f8152620005f7896200095f565b156200060a57601d602082015262000612565b601c60208201525b601f60408201819052601e606083018190526080830182905260a0830181905260c0830182905260e0830182905261010083018190526101208301829052610140830152610160820152600191505b8760ff168261ffff161015620006dc57806200067f600184620013fc565b61ffff16600c8110620006a257634e487b7160e01b600052603260045260246000fd5b6020020151620006b99060ff1662015180620013ae565b620006c59084620011fa565b925081620006d3816200149f565b92505062000661565b620006e96001886200143c565b620006fb9060ff1662015180620013ae565b620007079084620011fa565b92506200071a60ff8716610e10620013ae565b620007269084620011fa565b92506200073860ff8616603c620013ae565b620007449084620011fa565b92506200075560ff851684620011fa565b9998505050505050505050565b6000806200077084620009cb565b8051602082015191925090600c906200078b90869062001215565b60ff161115620007c957600c848360200151620007a9919062001215565b620007b5919062001254565b8251620007c69160ff1690620011d1565b90505b6000848360200151620007dd919062001215565b9050600c8160ff161115620007fc57620007f9600c8262001522565b90505b6200082282828560400151866060015187608001518860a001516200057660201b60201c565b93505050505b92915050565b60006200083a62000bba565b156200085a5760405162461bcd60e51b8152600401620004ce9062001122565b6001600160a01b0384166000908152600e6020526040902054620008c457600f80546001810182556000919091527f8d1108e10bcb7c27dddfc02ed9d693a074039d026cf4ea4240b40f7d581ac8020180546001600160a01b0319166001600160a01b0386161790555b506040805180820182528281526001600160401b0384811660208084019182526001600160a01b0388166000908152600e825294852080546001808201835591875291909520935160029091029093019283555191830180546001600160401b031916929091169190911790555b9392505050565b600062000951620009496200042e565b848462000bc3565b50600192915050565b505050565b60006200096e600483620014e7565b61ffff16156200098157506000620009c6565b6200098e606483620014e7565b61ffff1615620009a157506001620009c6565b620009af61019083620014e7565b61ffff1615620009c257506000620009c6565b5060015b919050565b620009d562001046565b60008080620009e48562000ced565b61ffff168452620009f76107b262000e06565b845162000a089061ffff1662000e06565b62000a14919062001422565b915062000a26826301e28500620013ae565b62000a329084620011fa565b9250816107b2856000015162000a499190620013fc565b61ffff1662000a59919062001422565b62000a69906301e13380620013ae565b62000a759084620011fa565b92506000600191505b600c8260ff161162000af357845162000a9990839062000e57565b62000aab9060ff1662015180620013ae565b90508562000aba8583620011fa565b111562000ad05760ff8216602086015262000af3565b62000adc8185620011fa565b93508162000aea81620014c4565b92505062000a7e565b600191505b6020850151855162000b0b919062000e57565b60ff168260ff161162000b64578562000b288562015180620011fa565b111562000b3e5760ff8216604086015262000b64565b62000b4d6201518085620011fa565b93508162000b5b81620014c4565b92505062000af8565b62000b6f8662000f2f565b60ff16606086015262000b828662000f59565b60ff16608086015262000b958662000f69565b60ff1660a086015262000ba88662000f78565b60ff1660c08601525092949350505050565b60055460ff1690565b6001600160a01b03831662000bec5760405162461bcd60e51b8152600401620004ce906200114c565b6001600160a01b03821662000c155760405162461bcd60e51b8152600401620004ce9062001099565b62000c228383836200095a565b6001600160a01b0383166000908152602081905260409020548181101562000c5e5760405162461bcd60e51b8152600401620004ce90620010dc565b6001600160a01b0380851660009081526020819052604080822085850390559185168152908120805484929062000c97908490620011fa565b92505081905550826001600160a01b0316846001600160a01b0316600080516020620041e98339815191528460405162000cd29190620011c8565b60405180910390a362000ce78484846200095a565b50505050565b600080808062000d026301e13380866200123d565b62000d10906107b2620011fa565b915062000d1f6107b262000e06565b62000d2e61ffff841662000e06565b62000d3a919062001422565b905062000d4c816301e28500620013ae565b62000d589084620011fa565b92508062000d696107b284620013fc565b61ffff1662000d79919062001422565b62000d89906301e13380620013ae565b62000d959084620011fa565b92505b8483111562000dfe5762000db862000db2600184620013fc565b6200095f565b1562000dd65762000dce6301e285008462001422565b925062000de9565b62000de66301e133808462001422565b92505b62000df6600183620013fc565b915062000d98565b509392505050565b600062000e1560018362001422565b915062000e25610190836200123d565b62000e326064846200123d565b62000e3f6004856200123d565b62000e4b919062001422565b620008289190620011fa565b60008260ff166001148062000e6f57508260ff166003145b8062000e7e57508260ff166005145b8062000e8d57508260ff166007145b8062000e9c57508260ff166008145b8062000eab57508260ff16600a145b8062000eba57508260ff16600c145b1562000ec95750601f62000828565b8260ff166004148062000edf57508260ff166006145b8062000eee57508260ff166009145b8062000efd57508260ff16600b145b1562000f0c5750601e62000828565b62000f17826200095f565b1562000f265750601d62000828565b50601c62000828565b60006018603c62000f4181856200123d565b62000f4d91906200123d565b6200082891906200150b565b6000603c62000f4d81846200123d565b600062000828603c836200150b565b6000600762000f8b62015180846200123d565b62000f4d906004620011fa565b82805462000fa69062001462565b90600052602060002090601f01602090048101928262000fca576000855562001015565b82601f1062000fe557805160ff191683800117855562001015565b8280016001018555821562001015579182015b828111156200101557825182559160200191906001019062000ff8565b506200102392915062001082565b5090565b604051806101800160405280600c906020820280368337509192915050565b6040805160e081018252600080825260208201819052918101829052606081018290526080810182905260a0810182905260c081019190915290565b5b8082111562001023576000815560010162001083565b60208082526023908201527f45524332303a207472616e7366657220746f20746865207a65726f206164647260408201526265737360e81b606082015260800190565b60208082526026908201527f45524332303a207472616e7366657220616d6f756e7420657863656564732062604082015265616c616e636560d01b606082015260800190565b60208082526010908201526f14185d5cd8589b194e881c185d5cd95960821b604082015260600190565b60208082526025908201527f45524332303a207472616e736665722066726f6d20746865207a65726f206164604082015264647265737360d81b606082015260800190565b6020808252601f908201527f45524332303a206d696e7420746f20746865207a65726f206164647265737300604082015260600190565b90815260200190565b600061ffff808316818516808303821115620011f157620011f162001547565b01949350505050565b6000821982111562001210576200121062001547565b500190565b600060ff821660ff84168060ff0382111562001235576200123562001547565b019392505050565b6000826200124f576200124f6200155d565b500490565b600060ff8316806200126a576200126a6200155d565b8060ff84160491505092915050565b80825b60018086116200128d5750620012bd565b818704821115620012a257620012a262001547565b80861615620012b057918102915b9490941c9380026200127c565b94509492505050565b6000620009326000198484600082620012e25750600162000932565b81620012f15750600062000932565b81600181146200130a5760028114620013155762001349565b600191505062000932565b60ff84111562001329576200132962001547565b6001841b91508482111562001342576200134262001547565b5062000932565b5060208310610133831016604e8410600b841016171562001381575081810a838111156200137b576200137b62001547565b62000932565b62001390848484600162001279565b808604821115620013a557620013a562001547565b02949350505050565b6000816000190483118215151615620013cb57620013cb62001547565b500290565b600060ff821660ff84168160ff0481118215151615620013f457620013f462001547565b029392505050565b600061ffff838116908316818110156200141a576200141a62001547565b039392505050565b60008282101562001437576200143762001547565b500390565b600060ff821660ff84168082101562001459576200145962001547565b90039392505050565b6002810460018216806200147757607f821691505b602082108114156200149957634e487b7160e01b600052602260045260246000fd5b50919050565b600061ffff80831681811415620014ba57620014ba62001547565b6001019392505050565b600060ff821660ff811415620014de57620014de62001547565b60010192915050565b600061ffff80841680620014ff57620014ff6200155d565b92169190910692915050565b6000826200151d576200151d6200155d565b500690565b600060ff8316806200153857620015386200155d565b8060ff84160691505092915050565b634e487b7160e01b600052601160045260246000fd5b634e487b7160e01b600052601260045260246000fd5b612c6680620015836000396000f3fe6080604052600436106102025760003560e01c806372d47d361161011d578063aca5cb25116100b0578063e5be7e981161007f578063ec5ba69011610064578063ec5ba6901461059e578063f0f5cb32146105cb578063f2fde38b146105eb5761020c565b8063e5be7e981461055e578063e85d5bc21461057e5761020c565b8063aca5cb25146104db578063c2091cfb146104fb578063c8eb119714610510578063dd62ed3e1461053e5761020c565b8063929ec537116100ec578063929ec5371461046657806395d89b4114610486578063a457c2d71461049b578063a9059cbb146104bb5761020c565b806372d47d36146103ed57806384d5d9441461040f5780638da5cb5b1461042f5780638e94ae5f146104515761020c565b806339509351116101955780636c24a76f116101645780636c24a76f1461038357806370a08231146103a3578063715018a6146103c3578063728e9e24146103d85761020c565b8063395093511461030c57806342966c681461032c57806355a94d9a1461034e5780635c975abb1461036e5761020c565b80631ec4280a116101d15780631ec4280a146102a057806323b872dd146102b55780632c41f2a6146102d5578063313ce567146102ea5761020c565b806306fdde0314610211578063095ea7b31461023c5780630d6b44eb1461026957806318160ddd1461028b5761020c565b3661020c57600080fd5b600080fd5b34801561021d57600080fd5b5061022661060b565b604051610233919061225f565b60405180910390f35b34801561024857600080fd5b5061025c61025736600461209f565b61069d565b6040516102339190612254565b34801561027557600080fd5b5061027e6106bb565b60405161023391906129d1565b34801561029757600080fd5b5061027e610736565b3480156102ac57600080fd5b5061027e61073c565b3480156102c157600080fd5b5061025c6102d036600461202a565b610757565b3480156102e157600080fd5b5061027e610837565b3480156102f657600080fd5b506102ff610852565b60405161023391906129f2565b34801561031857600080fd5b5061025c61032736600461209f565b610857565b34801561033857600080fd5b5061034c61034736600461215a565b6108ab565b005b34801561035a57600080fd5b5061025c6103693660046120fa565b6108dd565b34801561037a57600080fd5b5061025c610aac565b34801561038f57600080fd5b5061027e61039e366004611fde565b610ab5565b3480156103af57600080fd5b5061027e6103be366004611fde565b610ae4565b3480156103cf57600080fd5b5061034c610aff565b3480156103e457600080fd5b5061027e610b4a565b3480156103f957600080fd5b50610402610b50565b60405161023391906121ae565b34801561041b57600080fd5b5061025c61042a3660046120c8565b610bb1565b34801561043b57600080fd5b50610444610d0e565b604051610233919061219a565b34801561045d57600080fd5b5061027e610d22565b34801561047257600080fd5b5061027e610481366004611fde565b610d79565b34801561049257600080fd5b50610226610ea0565b3480156104a757600080fd5b5061025c6104b636600461209f565b610eaf565b3480156104c757600080fd5b5061025c6104d636600461209f565b610f28565b3480156104e757600080fd5b5061025c6104f6366004611fde565b610fae565b34801561050757600080fd5b50610402610fc3565b34801561051c57600080fd5b5061053061052b36600461209f565b6110fa565b6040516102339291906129da565b34801561054a57600080fd5b5061027e610559366004611ff8565b611140565b34801561056a57600080fd5b5061027e610579366004612172565b61116b565b34801561058a57600080fd5b5061025c610599366004611fde565b6111d6565b3480156105aa57600080fd5b506105be6105b9366004611fde565b6111f4565b60405161023391906121fb565b3480156105d757600080fd5b5061025c6105e6366004612065565b611280565b3480156105f757600080fd5b5061034c610606366004611fde565b6112f0565b60606003805461061a90612b15565b80601f016020809104026020016040519081016040528092919081815260200182805461064690612b15565b80156106935780601f1061066857610100808354040283529160200191610693565b820191906000526020600020905b81548152906001019060200180831161067657829003601f168201915b5050505050905090565b60006106b16106aa611372565b8484611376565b5060015b92915050565b600080805b600f5481101561073057600061070a600f83815481106106f057634e487b7160e01b600052603260045260246000fd5b6000918252602090912001546001600160a01b0316610d79565b111561071e578161071a81612b72565b9250505b8061072881612b72565b9150506106c0565b50905090565b60025490565b6000610752610749610736565b600c549061142a565b905090565b6000610761610aac565b156107875760405162461bcd60e51b815260040161077e90612580565b60405180910390fd5b6001600160a01b0384166107ad5760405162461bcd60e51b815260040161077e9061281a565b6001600160a01b0383166107d35760405162461bcd60e51b815260040161077e906122b2565b6107dd8433611140565b8211156107fc5760405162461bcd60e51b815260040161077e90612614565b61080584610ab5565b8211156108245760405162461bcd60e51b815260040161077e906125b7565b61082f848484611436565b949350505050565b6000610752610844610d22565b61084c610736565b9061142a565b601290565b60006106b1610864611372565b848460016000610872611372565b6001600160a01b03908116825260208083019390935260409182016000908120918b16815292529020546108a69190612a26565b611376565b6108b3610aac565b156108d05760405162461bcd60e51b815260040161077e90612580565b6108da33826114c6565b50565b60006108e7610aac565b156109045760405162461bcd60e51b815260040161077e90612580565b6001600160a01b03871661092a5760405162461bcd60e51b815260040161077e90612931565b61093333610ab5565b8611156109525760405162461bcd60e51b815260040161077e906125b7565b600086116109725760405162461bcd60e51b815260040161077e90612523565b60008260ff16116109955760405162461bcd60e51b815260040161077e906124c6565b8585106109b45760405162461bcd60e51b815260040161077e9061240c565b336001600160a01b03881614156109dd5760405162461bcd60e51b815260040161077e906126a6565b6109e5610d0e565b6001600160a01b0316336001600160a01b03161480610a085750610a08336111d6565b610a245760405162461bcd60e51b815260040161077e90612703565b8415610a3757610a35878686610bb1565b505b6000610a438688612adb565b90508015610a9e576000610a5a8260ff86166115b8565b905060005b8460ff168160ff161015610a9b576000610a7987836115c4565b9050610a868b8483610bb1565b50508080610a9390612b8d565b915050610a5f565b50505b506001979650505050505050565b60055460ff1690565b600080610ac183610ae4565b90506000610ace84610d79565b9050610ada828261142a565b925050505b919050565b6001600160a01b031660009081526020819052604090205490565b610b07611372565b6001600160a01b0316610b18610d0e565b6001600160a01b031614610b3e5760405162461bcd60e51b815260040161077e90612671565b610b486000611676565b565b600f5490565b6060600f80548060200260200160405190810160405280929190818152602001828054801561069357602002820191906000526020600020905b81546001600160a01b03168152600190910190602001808311610b8a575050505050905090565b6000610bbb610aac565b15610bd85760405162461bcd60e51b815260040161077e90612580565b6001600160a01b038416610bfe5760405162461bcd60e51b815260040161077e90612931565b610c0733610ab5565b831115610c265760405162461bcd60e51b815260040161077e906125b7565b60008311610c465760405162461bcd60e51b815260040161077e90612760565b336001600160a01b0385161415610c6f5760405162461bcd60e51b815260040161077e906126a6565b610c77610d0e565b6001600160a01b0316336001600160a01b03161480610c9a5750610c9a336111d6565b610cb65760405162461bcd60e51b815260040161077e90612703565b610cc13385856116e7565b600d80546001810182556000919091527fd7b6990105719101dabeb77144f2a3385c8033acd3af97e9423a695e81ad1eb58101849055610d02858285611811565b50600195945050505050565b60055461010090046001600160a01b031690565b600080805b600f54811015610730576000610d57600f83815481106106f057634e487b7160e01b600052603260045260246000fd5b9050610d63838261192e565b9250508080610d7190612b72565b915050610d27565b600080805b6001600160a01b0384166000908152600e6020526040902054811015610e99576001600160a01b0384166000908152600e60205260409020805482908110610dd657634e487b7160e01b600052603260045260246000fd5b906000526020600020906002020160000154421015610e87576001600160a01b0384166000908152600e602052604081208054600d919084908110610e2b57634e487b7160e01b600052603260045260246000fd5b6000918252602090912060016002909202010154815467ffffffffffffffff909116908110610e6a57634e487b7160e01b600052603260045260246000fd5b906000526020600020015490508083610e839190612a26565b9250505b80610e9181612b72565b915050610d7e565b5092915050565b60606004805461061a90612b15565b60008060016000610ebe611372565b6001600160a01b0390811682526020808301939093526040918201600090812091881681529252902054905082811015610f0a5760405162461bcd60e51b815260040161077e90612974565b610f1e610f15611372565b85858403611376565b5060019392505050565b6000610f32610aac565b15610f4f5760405162461bcd60e51b815260040161077e90612580565b6001600160a01b038316610f755760405162461bcd60e51b815260040161077e906122b2565b610f7e33610ab5565b821115610f9d5760405162461bcd60e51b815260040161077e906125b7565b610fa7838361135e565b9392505050565b60106020526000908152604090205460ff1681565b60606000610fcf6106bb565b67ffffffffffffffff811115610ff557634e487b7160e01b600052604160045260246000fd5b60405190808252806020026020018201604052801561101e578160200160208202803683370190505b5090506000805b600f548110156110f2576000611055600f83815481106106f057634e487b7160e01b600052603260045260246000fd5b11156110e057600f818154811061107c57634e487b7160e01b600052603260045260246000fd5b9060005260206000200160009054906101000a90046001600160a01b03168383815181106110ba57634e487b7160e01b600052603260045260246000fd5b6001600160a01b0390921660209283029190910190910152816110dc81612b72565b9250505b806110ea81612b72565b915050611025565b509091505090565b600e602052816000526040600020818154811061111657600080fd5b60009182526020909120600290910201805460019091015490925067ffffffffffffffff16905082565b6001600160a01b03918216600090815260016020908152604080832093909416825291909152205490565b600d5460009067ffffffffffffffff8316106111995760405162461bcd60e51b815260040161077e90612877565b600d8267ffffffffffffffff16815481106111c457634e487b7160e01b600052603260045260246000fd5b90600052602060002001549050919050565b6001600160a01b031660009081526010602052604090205460ff1690565b6001600160a01b0381166000908152600e60209081526040808320805482518185028101850190935280835260609492939192909184015b8282101561127557600084815260209081902060408051808201909152600285029091018054825260019081015467ffffffffffffffff1682840152908352909201910161122c565b505050509050919050565b600061128a611372565b6001600160a01b031661129b610d0e565b6001600160a01b0316146112c15760405162461bcd60e51b815260040161077e90612671565b506001600160a01b0382166000908152601060205260409020805482151560ff19909116179055600192915050565b6112f8611372565b6001600160a01b0316611309610d0e565b6001600160a01b03161461132f5760405162461bcd60e51b815260040161077e90612671565b6001600160a01b0381166113555760405162461bcd60e51b815260040161077e90612352565b6108da81611676565b60006106b161136b611372565b84846116e7565b3390565b6001600160a01b03831661139c5760405162461bcd60e51b815260040161077e906128d4565b6001600160a01b0382166113c25760405162461bcd60e51b815260040161077e906123af565b6001600160a01b0380841660008181526001602090815260408083209487168084529490915290819020849055517f8c5be1e5ebec7d5bd14f71427d1e84f3dd0314c0f7b2291e5b200ac8c7c3b9259061141d9085906129d1565b60405180910390a3505050565b6000610fa78284612adb565b60006114438484846116e7565b6001600160a01b038416600090815260016020526040812081611464611372565b6001600160a01b03166001600160a01b03168152602001908152602001600020549050828110156114a75760405162461bcd60e51b815260040161077e90612614565b6114bb856114b3611372565b858403611376565b506001949350505050565b6001600160a01b0382166114ec5760405162461bcd60e51b815260040161077e906127bd565b6114f8826000836115b3565b6001600160a01b038216600090815260208190526040902054818110156115315760405162461bcd60e51b815260040161077e906122f5565b6001600160a01b0383166000908152602081905260408120838303905560028054849290611560908490612adb565b90915550506040516000906001600160a01b038516907fddf252ad1be2c89b69c2b068fc378daa952ba7f163c4a11628f55a4df523b3ef906115a39086906129d1565b60405180910390a36115b3836000845b505050565b6000610fa78284612a63565b6000806115d08461193a565b8051602082015191925090600c906115e9908690612a3e565b60ff16111561162057600c8483602001516116049190612a3e565b61160e9190612a77565b825161161d9160ff1690612a00565b90505b60008483602001516116329190612a3e565b9050600c8160ff16111561164e5761164b600c82612be2565b90505b61166c82828560400151866060015187608001518860a00151611af3565b9695505050505050565b600580546001600160a01b038381166101008181027fffffffffffffffffffffff0000000000000000000000000000000000000000ff85161790945560405193909204169182907f8be0079c531659141344cd1fd0a4f28419497f9722a3daafe3b4186f6b6457e090600090a35050565b6001600160a01b03831661170d5760405162461bcd60e51b815260040161077e9061281a565b6001600160a01b0382166117335760405162461bcd60e51b815260040161077e906122b2565b61173e8383836115b3565b6001600160a01b038316600090815260208190526040902054818110156117775760405162461bcd60e51b815260040161077e90612469565b6001600160a01b038085166000908152602081905260408082208585039055918516815290812080548492906117ae908490612a26565b92505081905550826001600160a01b0316846001600160a01b03167fddf252ad1be2c89b69c2b068fc378daa952ba7f163c4a11628f55a4df523b3ef846040516117f891906129d1565b60405180910390a361180b8484846115b3565b50505050565b600061181b610aac565b156118385760405162461bcd60e51b815260040161077e90612580565b6001600160a01b0384166000908152600e60205260409020546118b957600f80546001810182556000919091527f8d1108e10bcb7c27dddfc02ed9d693a074039d026cf4ea4240b40f7d581ac8020180547fffffffffffffffffffffffff0000000000000000000000000000000000000000166001600160a01b0386161790555b5060408051808201825291825267ffffffffffffffff92831660208084019182526001600160a01b03959095166000908152600e865291822080546001808201835591845295909220925160029095029092019384559051928101805467ffffffffffffffff19169390921692909217905590565b6000610fa78284612a26565b611942611f6c565b6000808061194f85611cb2565b61ffff1684526119606107b2611da7565b845161196f9061ffff16611da7565b6119799190612adb565b9150611989826301e28500612a99565b6119939084612a26565b9250816107b285600001516119a89190612ab8565b61ffff166119b69190612adb565b6119c4906301e13380612a99565b6119ce9084612a26565b92506000600191505b600c8260ff1611611a3f576119f0828660000151611dec565b611a009060ff1662015180612a99565b905085611a0d8583612a26565b1115611a215760ff82166020860152611a3f565b611a2b8185612a26565b935081611a3781612b8d565b9250506119d7565b600191505b611a5685602001518660000151611dec565b60ff168260ff1611611aa55785611a708562015180612a26565b1115611a845760ff82166040860152611aa5565b611a916201518085612a26565b935081611a9d81612b8d565b925050611a44565b611aae86611eb2565b60ff166060860152611abf86611ed6565b60ff166080860152611ad086611ee4565b60ff1660a0860152611ae186611ef1565b60ff1660c08601525092949350505050565b60006107b25b8761ffff168161ffff161015611b4f57611b1281611f0d565b15611b2c57611b256301e2850083612a26565b9150611b3d565b611b3a6301e1338083612a26565b91505b80611b4781612b50565b915050611af9565b611b57611fa8565b601f8152611b6489611f0d565b15611b7557601d6020820152611b7d565b601c60208201525b601f60408201819052601e606083018190526080830182905260a0830181905260c0830182905260e0830182905261010083018190526101208301829052610140830152610160820152600191505b8760ff168261ffff161015611c3c5780611be7600184612ab8565b61ffff16600c8110611c0957634e487b7160e01b600052603260045260246000fd5b6020020151611c1e9060ff1662015180612a99565b611c289084612a26565b925081611c3481612b50565b925050611bcc565b611c47600188612af2565b611c579060ff1662015180612a99565b611c619084612a26565b9250611c7260ff8716610e10612a99565b611c7c9084612a26565b9250611c8c60ff8616603c612a99565b611c969084612a26565b9250611ca560ff851684612a26565b9998505050505050505050565b6000808080611cc56301e1338086612a63565b611cd1906107b2612a26565b9150611cde6107b2611da7565b611ceb8361ffff16611da7565b611cf59190612adb565b9050611d05816301e28500612a99565b611d0f9084612a26565b925080611d1e6107b284612ab8565b61ffff16611d2c9190612adb565b611d3a906301e13380612a99565b611d449084612a26565b92505b84831115611d9f57611d62611d5d600184612ab8565b611f0d565b15611d7c57611d756301e2850084612adb565b9250611d8d565b611d8a6301e1338084612adb565b92505b611d98600183612ab8565b9150611d47565b509392505050565b6000611db4600183612adb565b9150611dc261019083612a63565b611dcd606484612a63565b611dd8600485612a63565b611de29190612adb565b6106b59190612a26565b60008260ff1660011480611e0357508260ff166003145b80611e1157508260ff166005145b80611e1f57508260ff166007145b80611e2d57508260ff166008145b80611e3b57508260ff16600a145b80611e4957508260ff16600c145b15611e565750601f6106b5565b8260ff1660041480611e6b57508260ff166006145b80611e7957508260ff166009145b80611e8757508260ff16600b145b15611e945750601e6106b5565b611e9d82611f0d565b15611eaa5750601d6106b5565b50601c6106b5565b60006018603c611ec28185612a63565b611ecc9190612a63565b6106b59190612bce565b6000603c611ecc8184612a63565b60006106b5603c83612bce565b60006007611f026201518084612a63565b611ecc906004612a26565b6000611f1a600483612bad565b61ffff1615611f2b57506000610adf565b611f36606483612bad565b61ffff1615611f4757506001610adf565b611f5361019083612bad565b61ffff1615611f6457506000610adf565b506001919050565b6040805160e081018252600080825260208201819052918101829052606081018290526080810182905260a0810182905260c081019190915290565b604051806101800160405280600c906020820280368337509192915050565b80356001600160a01b0381168114610adf57600080fd5b600060208284031215611fef578081fd5b610fa782611fc7565b6000806040838503121561200a578081fd5b61201383611fc7565b915061202160208401611fc7565b90509250929050565b60008060006060848603121561203e578081fd5b61204784611fc7565b925061205560208501611fc7565b9150604084013590509250925092565b60008060408385031215612077578182fd5b61208083611fc7565b915060208301358015158114612094578182fd5b809150509250929050565b600080604083850312156120b1578182fd5b6120ba83611fc7565b946020939093013593505050565b6000806000606084860312156120dc578283fd5b6120e584611fc7565b95602085013595506040909401359392505050565b60008060008060008060c08789031215612112578182fd5b61211b87611fc7565b95506020870135945060408701359350606087013592506080870135915060a087013560ff8116811461214c578182fd5b809150509295509295509295565b60006020828403121561216b578081fd5b5035919050565b600060208284031215612183578081fd5b813567ffffffffffffffff81168114610fa7578182fd5b6001600160a01b0391909116815260200190565b6020808252825182820181905260009190848201906040850190845b818110156121ef5783516001600160a01b0316835292840192918401916001016121ca565b50909695505050505050565b602080825282518282018190526000919060409081850190868401855b828110156122475781518051855286015167ffffffffffffffff16868501529284019290850190600101612218565b5091979650505050505050565b901515815260200190565b6000602080835283518082850152825b8181101561228b5785810183015185820160400152820161226f565b8181111561229c5783604083870101525b50601f01601f1916929092016040019392505050565b60208082526023908201527f45524332303a207472616e7366657220746f20746865207a65726f206164647260408201526265737360e81b606082015260800190565b60208082526022908201527f45524332303a206275726e20616d6f756e7420657863656564732062616c616e60408201527f6365000000000000000000000000000000000000000000000000000000000000606082015260800190565b60208082526026908201527f4f776e61626c653a206e6577206f776e657220697320746865207a65726f206160408201527f6464726573730000000000000000000000000000000000000000000000000000606082015260800190565b60208082526022908201527f45524332303a20617070726f766520746f20746865207a65726f20616464726560408201527f7373000000000000000000000000000000000000000000000000000000000000606082015260800190565b6020808252603b908201527f7472616e73666572416e6456657374696e67206f6e6c7920776f726b2077697460408201527f6820616d6f756e744174544745203c20616d6f756e74546f74616c0000000000606082015260800190565b60208082526026908201527f45524332303a207472616e7366657220616d6f756e742065786365656473206260408201527f616c616e63650000000000000000000000000000000000000000000000000000606082015260800190565b60208082526033908201527f7472616e73666572416e6456657374696e67206f6e6c7920776f726b2077697460408201527f682076657374696e674d6f6e746873203e203000000000000000000000000000606082015260800190565b6020808252602c908201527f7472616e73666572416e6456657374696e67206f6e6c7920776f726b2077697460408201527f6820616d6f756e74203e20300000000000000000000000000000000000000000606082015260800190565b60208082526010908201527f5061757361626c653a2070617573656400000000000000000000000000000000604082015260600190565b60208082526030908201527f45524332303a207472616e7366657220616d6f756e742065786365656473206160408201527f7661696c61626c652062616c616e636500000000000000000000000000000000606082015260800190565b60208082526028908201527f45524332303a207472616e7366657220616d6f756e742065786365656473206160408201527f6c6c6f77616e6365000000000000000000000000000000000000000000000000606082015260800190565b6020808252818101527f4f776e61626c653a2063616c6c6572206973206e6f7420746865206f776e6572604082015260600190565b60208082526026908201527f73656e646572206d75737420626520646966666572656e74207769746820726560408201527f6365697665720000000000000000000000000000000000000000000000000000606082015260800190565b6020808252602c908201527f73656e646572206d75737420626520766572696669656420746f20757365207460408201527f6869732066756e6374696f6e0000000000000000000000000000000000000000606082015260800190565b60208082526029908201527f7472616e73666572416e644c6f636b206f6e6c7920776f726b2077697468206160408201527f6d6f756e74203e20300000000000000000000000000000000000000000000000606082015260800190565b60208082526021908201527f45524332303a206275726e2066726f6d20746865207a65726f2061646472657360408201527f7300000000000000000000000000000000000000000000000000000000000000606082015260800190565b60208082526025908201527f45524332303a207472616e736665722066726f6d20746865207a65726f20616460408201527f6472657373000000000000000000000000000000000000000000000000000000606082015260800190565b60208082526038908201527f616d6f756e74496e646578206d75737420626520736d616c6c6572207468616e60408201527f20616d6f756e744c6f636b56616c7565732e6c656e6774680000000000000000606082015260800190565b60208082526024908201527f45524332303a20617070726f76652066726f6d20746865207a65726f2061646460408201527f7265737300000000000000000000000000000000000000000000000000000000606082015260800190565b60208082526023908201527f7472616e73666572416e644c6f636b20746f20746865207a65726f206164647260408201526265737360e81b606082015260800190565b60208082526025908201527f45524332303a2064656372656173656420616c6c6f77616e63652062656c6f7760408201527f207a65726f000000000000000000000000000000000000000000000000000000606082015260800190565b90815260200190565b91825267ffffffffffffffff16602082015260400190565b60ff91909116815260200190565b600061ffff808316818516808303821115612a1d57612a1d612c04565b01949350505050565b60008219821115612a3957612a39612c04565b500190565b600060ff821660ff84168060ff03821115612a5b57612a5b612c04565b019392505050565b600082612a7257612a72612c1a565b500490565b600060ff831680612a8a57612a8a612c1a565b8060ff84160491505092915050565b6000816000190483118215151615612ab357612ab3612c04565b500290565b600061ffff83811690831681811015612ad357612ad3612c04565b039392505050565b600082821015612aed57612aed612c04565b500390565b600060ff821660ff841680821015612b0c57612b0c612c04565b90039392505050565b600281046001821680612b2957607f821691505b60208210811415612b4a57634e487b7160e01b600052602260045260246000fd5b50919050565b600061ffff80831681811415612b6857612b68612c04565b6001019392505050565b6000600019821415612b8657612b86612c04565b5060010190565b600060ff821660ff811415612ba457612ba4612c04565b60010192915050565b600061ffff80841680612bc257612bc2612c1a565b92169190910692915050565b600082612bdd57612bdd612c1a565b500690565b600060ff831680612bf557612bf5612c1a565b8060ff84160691505092915050565b634e487b7160e01b600052601160045260246000fd5b634e487b7160e01b600052601260045260246000fdfea26469706673582212203655b325b11f8dd478e8c8b180255a91802d7d9866e24b101e3cf5de4d907e2464736f6c63430008000033ddf252ad1be2c89b69c2b068fc378daa952ba7f163c4a11628f55a4df523b3ef",
  "linkReferences": {},
  "deployedLinkReferences": {}
}