{
  "_format": "hh-sol-artifact-1",
  "contractName": "SingSingV3",
  "sourceName": "contracts/SingSingV3.sol",
  "abi": [
    {
      "inputs": [],
      "stateMutability": "nonpayable",
      "type": "constructor"
    },
    {
      "anonymous": false,
      "inputs": [
        {
          "indexed": true,
          "internalType": "address",
          "name": "owner",
          "type": "address"
        },
        {
          "indexed": true,
          "internalType": "address",
          "name": "spender",
          "type": "address"
        },
        {
          "indexed": false,
          "internalType": "uint256",
          "name": "value",
          "type": "uint256"
        }
      ],
      "name": "Approval",
      "type": "event"
    },
    {
      "anonymous": false,
      "inputs": [
        {
          "indexed": true,
          "internalType": "address",
          "name": "previousOwner",
          "type": "address"
        },
        {
          "indexed": true,
          "internalType": "address",
          "name": "newOwner",
          "type": "address"
        }
      ],
      "name": "OwnershipTransferred",
      "type": "event"
    },
    {
      "anonymous": false,
      "inputs": [
        {
          "indexed": false,
          "internalType": "address",
          "name": "account",
          "type": "address"
        }
      ],
      "name": "Paused",
      "type": "event"
    },
    {
      "anonymous": false,
      "inputs": [
        {
          "indexed": true,
          "internalType": "address",
          "name": "from",
          "type": "address"
        },
        {
          "indexed": true,
          "internalType": "address",
          "name": "to",
          "type": "address"
        },
        {
          "indexed": false,
          "internalType": "uint256",
          "name": "value",
          "type": "uint256"
        }
      ],
      "name": "Transfer",
      "type": "event"
    },
    {
      "anonymous": false,
      "inputs": [
        {
          "indexed": false,
          "internalType": "address",
          "name": "account",
          "type": "address"
        }
      ],
      "name": "Unpaused",
      "type": "event"
    },
    {
      "stateMutability": "payable",
      "type": "fallback"
    },
    {
      "inputs": [
        {
          "internalType": "address",
          "name": "owner",
          "type": "address"
        },
        {
          "internalType": "address",
          "name": "spender",
          "type": "address"
        }
      ],
      "name": "allowance",
      "outputs": [
        {
          "internalType": "uint256",
          "name": "",
          "type": "uint256"
        }
      ],
      "stateMutability": "view",
      "type": "function"
    },
    {
      "inputs": [
        {
          "internalType": "address",
          "name": "spender",
          "type": "address"
        },
        {
          "internalType": "uint256",
          "name": "amount",
          "type": "uint256"
        }
      ],
      "name": "approve",
      "outputs": [
        {
          "internalType": "bool",
          "name": "",
          "type": "bool"
        }
      ],
      "stateMutability": "nonpayable",
      "type": "function"
    },
    {
      "inputs": [
        {
          "internalType": "address",
          "name": "account",
          "type": "address"
        }
      ],
      "name": "balanceOf",
      "outputs": [
        {
          "internalType": "uint256",
          "name": "",
          "type": "uint256"
        }
      ],
      "stateMutability": "view",
      "type": "function"
    },
    {
      "inputs": [
        {
          "internalType": "uint256",
          "name": "_amount",
          "type": "uint256"
        }
      ],
      "name": "burn",
      "outputs": [],
      "stateMutability": "nonpayable",
      "type": "function"
    },
    {
      "inputs": [],
      "name": "decimals",
      "outputs": [
        {
          "internalType": "uint8",
          "name": "",
          "type": "uint8"
        }
      ],
      "stateMutability": "view",
      "type": "function"
    },
    {
      "inputs": [
        {
          "internalType": "address",
          "name": "spender",
          "type": "address"
        },
        {
          "internalType": "uint256",
          "name": "subtractedValue",
          "type": "uint256"
        }
      ],
      "name": "decreaseAllowance",
      "outputs": [
        {
          "internalType": "bool",
          "name": "",
          "type": "bool"
        }
      ],
      "stateMutability": "nonpayable",
      "type": "function"
    },
    {
      "inputs": [
        {
          "internalType": "address",
          "name": "lockedAddress",
          "type": "address"
        }
      ],
      "name": "getAvailableBalance",
      "outputs": [
        {
          "internalType": "uint256",
          "name": "_amount",
          "type": "uint256"
        }
      ],
      "stateMutability": "view",
      "type": "function"
    },
    {
      "inputs": [],
      "name": "getBurnedAmountTotal",
      "outputs": [
        {
          "internalType": "uint256",
          "name": "_amount",
          "type": "uint256"
        }
      ],
      "stateMutability": "view",
      "type": "function"
    },
    {
      "inputs": [],
      "name": "getCirculatingSupplyTotal",
      "outputs": [
        {
          "internalType": "uint256",
          "name": "_amount",
          "type": "uint256"
        }
      ],
      "stateMutability": "view",
      "type": "function"
    },
    {
      "inputs": [],
      "name": "getLockedAddresses",
      "outputs": [
        {
          "internalType": "address[]",
          "name": "",
          "type": "address[]"
        }
      ],
      "stateMutability": "view",
      "type": "function"
    },
    {
      "inputs": [],
      "name": "getLockedAddressesCurrently",
      "outputs": [
        {
          "internalType": "address[]",
          "name": "",
          "type": "address[]"
        }
      ],
      "stateMutability": "view",
      "type": "function"
    },
    {
      "inputs": [
        {
          "internalType": "address",
          "name": "lockedAddress",
          "type": "address"
        }
      ],
      "name": "getLockedAmount",
      "outputs": [
        {
          "internalType": "uint256",
          "name": "_amount",
          "type": "uint256"
        }
      ],
      "stateMutability": "view",
      "type": "function"
    },
    {
      "inputs": [
        {
          "internalType": "uint64",
          "name": "_amountIndex",
          "type": "uint64"
        }
      ],
      "name": "getLockedAmountByIndex",
      "outputs": [
        {
          "internalType": "uint256",
          "name": "_amount",
          "type": "uint256"
        }
      ],
      "stateMutability": "view",
      "type": "function"
    },
    {
      "inputs": [],
      "name": "getLockedAmountTotal",
      "outputs": [
        {
          "internalType": "uint256",
          "name": "_amount",
          "type": "uint256"
        }
      ],
      "stateMutability": "view",
      "type": "function"
    },
    {
      "inputs": [
        {
          "internalType": "address",
          "name": "lockedAddress",
          "type": "address"
        }
      ],
      "name": "getLockedItem",
      "outputs": [
        {
          "components": [
            {
              "internalType": "uint256",
              "name": "releaseDate",
              "type": "uint256"
            },
            {
              "internalType": "uint64",
              "name": "amountLockIndex",
              "type": "uint64"
            }
          ],
          "internalType": "struct SingSingV3.LockItem[]",
          "name": "item",
          "type": "tuple[]"
        }
      ],
      "stateMutability": "view",
      "type": "function"
    },
    {
      "inputs": [],
      "name": "getNumberOfLockedAddresses",
      "outputs": [
        {
          "internalType": "uint256",
          "name": "_count",
          "type": "uint256"
        }
      ],
      "stateMutability": "view",
      "type": "function"
    },
    {
      "inputs": [],
      "name": "getNumberOfLockedAddressesCurrently",
      "outputs": [
        {
          "internalType": "uint256",
          "name": "_count",
          "type": "uint256"
        }
      ],
      "stateMutability": "view",
      "type": "function"
    },
    {
      "inputs": [
        {
          "internalType": "address",
          "name": "spender",
          "type": "address"
        },
        {
          "internalType": "uint256",
          "name": "addedValue",
          "type": "uint256"
        }
      ],
      "name": "increaseAllowance",
      "outputs": [
        {
          "internalType": "bool",
          "name": "",
          "type": "bool"
        }
      ],
      "stateMutability": "nonpayable",
      "type": "function"
    },
    {
      "inputs": [
        {
          "internalType": "address",
          "name": "_lockerAddress",
          "type": "address"
        }
      ],
      "name": "isLockerAddress",
      "outputs": [
        {
          "internalType": "bool",
          "name": "success",
          "type": "bool"
        }
      ],
      "stateMutability": "view",
      "type": "function"
    },
    {
      "inputs": [
        {
          "internalType": "address",
          "name": "",
          "type": "address"
        },
        {
          "internalType": "uint256",
          "name": "",
          "type": "uint256"
        }
      ],
      "name": "lockList",
      "outputs": [
        {
          "internalType": "uint256",
          "name": "releaseDate",
          "type": "uint256"
        },
        {
          "internalType": "uint64",
          "name": "amountLockIndex",
          "type": "uint64"
        }
      ],
      "stateMutability": "view",
      "type": "function"
    },
    {
      "inputs": [
        {
          "internalType": "address",
          "name": "",
          "type": "address"
        }
      ],
      "name": "lockerAddressList",
      "outputs": [
        {
          "internalType": "bool",
          "name": "",
          "type": "bool"
        }
      ],
      "stateMutability": "view",
      "type": "function"
    },
    {
      "inputs": [],
      "name": "name",
      "outputs": [
        {
          "internalType": "string",
          "name": "",
          "type": "string"
        }
      ],
      "stateMutability": "view",
      "type": "function"
    },
    {
      "inputs": [],
      "name": "owner",
      "outputs": [
        {
          "internalType": "address",
          "name": "",
          "type": "address"
        }
      ],
      "stateMutability": "view",
      "type": "function"
    },
    {
      "inputs": [],
      "name": "paused",
      "outputs": [
        {
          "internalType": "bool",
          "name": "",
          "type": "bool"
        }
      ],
      "stateMutability": "view",
      "type": "function"
    },
    {
      "inputs": [],
      "name": "renounceOwnership",
      "outputs": [],
      "stateMutability": "nonpayable",
      "type": "function"
    },
    {
      "inputs": [
        {
          "internalType": "address",
          "name": "_lockerAddress",
          "type": "address"
        },
        {
          "internalType": "bool",
          "name": "_status",
          "type": "bool"
        }
      ],
      "name": "setLockerAddress",
      "outputs": [
        {
          "internalType": "bool",
          "name": "success",
          "type": "bool"
        }
      ],
      "stateMutability": "nonpayable",
      "type": "function"
    },
    {
      "inputs": [],
      "name": "symbol",
      "outputs": [
        {
          "internalType": "string",
          "name": "",
          "type": "string"
        }
      ],
      "stateMutability": "view",
      "type": "function"
    },
    {
      "inputs": [],
      "name": "totalSupply",
      "outputs": [
        {
          "internalType": "uint256",
          "name": "",
          "type": "uint256"
        }
      ],
      "stateMutability": "view",
      "type": "function"
    },
    {
      "inputs": [
        {
          "internalType": "address",
          "name": "_receiver",
          "type": "address"
        },
        {
          "internalType": "uint256",
          "name": "_amount",
          "type": "uint256"
        }
      ],
      "name": "transfer",
      "outputs": [
        {
          "internalType": "bool",
          "name": "success",
          "type": "bool"
        }
      ],
      "stateMutability": "nonpayable",
      "type": "function"
    },
    {
      "inputs": [
        {
          "internalType": "address",
          "name": "_receiver",
          "type": "address"
        },
        {
          "internalType": "uint256",
          "name": "_amount",
          "type": "uint256"
        },
        {
          "internalType": "uint256",
          "name": "_releaseDate",
          "type": "uint256"
        }
      ],
      "name": "transferAndLock",
      "outputs": [
        {
          "internalType": "bool",
          "name": "success",
          "type": "bool"
        }
      ],
      "stateMutability": "nonpayable",
      "type": "function"
    },
    {
      "inputs": [
        {
          "internalType": "address",
          "name": "_from",
          "type": "address"
        },
        {
          "internalType": "address",
          "name": "_receiver",
          "type": "address"
        },
        {
          "internalType": "uint256",
          "name": "_amount",
          "type": "uint256"
        }
      ],
      "name": "transferFrom",
      "outputs": [
        {
          "internalType": "bool",
          "name": "",
          "type": "bool"
        }
      ],
      "stateMutability": "nonpayable",
      "type": "function"
    },
    {
      "inputs": [
        {
          "internalType": "address",
          "name": "newOwner",
          "type": "address"
        }
      ],
      "name": "transferOwnership",
      "outputs": [],
      "stateMutability": "nonpayable",
      "type": "function"
    },
    {
      "stateMutability": "payable",
      "type": "receive"
    }
  ],
  "bytecode": "0x6080604052600680546001600160a01b031990811673753d9799e55852a9b86143e710ede5510259fdb317909155600780548216738900b2412e1137cea302e22d45226f658c0488701790556008805482167315c5006be52a8cf8d6d6c70879eda247df59daf317905560098054821673e55a18240d33f3df0105ade629b40faf953b4e58179055600a805490911673dc9700e50ebf3ab7dae5f65928a081c553c74932179055348015620000b357600080fd5b506040518060400160405280600481526020016353696e6760e01b8152506040518060400160405280600481526020016353494e4760e01b81525081600390805190602001906200010692919062000f74565b5080516200011c90600490602084019062000f74565b50506005805460ff19169055506200013d6200013762000419565b6200041d565b6200014762000477565b620001579060ff16600a620012a2565b620001689064059682f0006200138a565b600b5562000182620001796200047c565b600b5462000490565b6000620001986107e5600a600184808062000561565b90506014600c620001a862000477565b620001b89060ff16600a620012a2565b620001c89063089544006200138a565b81546001810183556000928352602090922090910155600c620001ea62000477565b620001fa9060ff16600a620012a2565b6200020a9063112a88006200138a565b81546001810183556000928352602090922090910155600c6200022c62000477565b6200023c9060ff16600a620012a2565b6200024c906311e1a3006200138a565b815460018101835560009283526020832001555b818160ff161015620002f1576000620002868462000280846003620013ac565b6200074d565b600654909150620002a3906001600160a01b03166000836200080a565b50600854620002be906001600160a01b03166001836200080a565b50600954620002d9906001600160a01b03166002836200080a565b50508080620002e890620014a0565b91505062000260565b506006546200033e906001600160a01b03166200030d62000477565b6200031d9060ff16600a620012a2565b6200032d9063d693a4006200138a565b6200091560201b620011f41760201c565b506007546200037a906001600160a01b03166200035a62000477565b6200036a9060ff16600a620012a2565b6200032d90638f0d18006200138a565b50600854620003b7906001600160a01b03166200039662000477565b620003a69060ff16600a620012a2565b6200032d90640165a0bc006200138a565b50600954620003f4906001600160a01b0316620003d362000477565b620003e39060ff16600a620012a2565b6200032d9064023c3460006200138a565b50600a5462000410906001600160a01b03166200035a62000477565b5050506200154f565b3390565b600580546001600160a01b03838116610100818102610100600160a81b031985161790945560405193909204169182907f8be0079c531659141344cd1fd0a4f28419497f9722a3daafe3b4186f6b6457e090600090a35050565b601290565b60055461010090046001600160a01b031690565b6001600160a01b038216620004c25760405162461bcd60e51b8152600401620004b9906200116d565b60405180910390fd5b620004d06000838362000936565b8060026000828254620004e49190620011d6565b90915550506001600160a01b0382166000908152602081905260408120805483929062000513908490620011d6565b90915550506040516001600160a01b03831690600090600080516020620036048339815191529062000547908590620011a4565b60405180910390a36200055d6000838362000936565b5050565b60006107b25b8761ffff168161ffff161015620005c95762000583816200093b565b15620005a157620005996301e2850083620011d6565b9150620005b4565b620005b16301e1338083620011d6565b91505b80620005c0816200147b565b91505062000567565b620005d362001003565b601f8152620005e2896200093b565b15620005f557601d6020820152620005fd565b601c60208201525b601f60408201819052601e606083018190526080830182905260a0830181905260c0830182905260e0830182905261010083018190526101208301829052610140830152610160820152600191505b8760ff168261ffff161015620006c757806200066a600184620013d8565b61ffff16600c81106200068d57634e487b7160e01b600052603260045260246000fd5b6020020151620006a49060ff16620151806200138a565b620006b09084620011d6565b925081620006be816200147b565b9250506200064c565b620006d460018862001418565b620006e69060ff16620151806200138a565b620006f29084620011d6565b92506200070560ff8716610e106200138a565b620007119084620011d6565b92506200072360ff8616603c6200138a565b6200072f9084620011d6565b92506200074060ff851684620011d6565b9998505050505050505050565b6000806200075b84620009a7565b8051602082015191925090600c9062000776908690620011f1565b60ff161115620007b457600c848360200151620007949190620011f1565b620007a0919062001230565b8251620007b19160ff1690620011ad565b90505b6000600c858460200151620007ca9190620011f1565b620007d69190620014fe565b9050620007fe82828560400151866060015187608001518860a001516200056160201b60201c565b93505050505b92915050565b60006200081662000b96565b15620008365760405162461bcd60e51b8152600401620004b990620010fe565b6001600160a01b0384166000908152600d6020526040902054620008a057600e80546001810182556000919091527fbb7b4a454dc3493923482f07822329ed19e8244eff582cc204f8554c3620c3fd0180546001600160a01b0319166001600160a01b0386161790555b506040805180820182528281526001600160401b0384811660208084019182526001600160a01b0388166000908152600d825294852080546001808201835591875291909520935160029091029093019283555191830180546001600160401b031916929091169190911790555b9392505050565b60006200092d6200092562000419565b848462000b9f565b50600192915050565b505050565b60006200094a600483620014c3565b61ffff16156200095d57506000620009a2565b6200096a606483620014c3565b61ffff16156200097d57506001620009a2565b6200098b61019083620014c3565b61ffff16156200099e57506000620009a2565b5060015b919050565b620009b162001022565b60008080620009c08562000cc9565b61ffff168452620009d36107b262000de2565b8451620009e49061ffff1662000de2565b620009f09190620013fe565b915062000a02826301e285006200138a565b62000a0e9084620011d6565b9250816107b2856000015162000a259190620013d8565b61ffff1662000a359190620013fe565b62000a45906301e133806200138a565b62000a519084620011d6565b92506000600191505b600c8260ff161162000acf57845162000a7590839062000e33565b62000a879060ff16620151806200138a565b90508562000a968583620011d6565b111562000aac5760ff8216602086015262000acf565b62000ab88185620011d6565b93508162000ac681620014a0565b92505062000a5a565b600191505b6020850151855162000ae7919062000e33565b60ff168260ff161162000b40578562000b048562015180620011d6565b111562000b1a5760ff8216604086015262000b40565b62000b296201518085620011d6565b93508162000b3781620014a0565b92505062000ad4565b62000b4b8662000f0b565b60ff16606086015262000b5e8662000f35565b60ff16608086015262000b718662000f45565b60ff1660a086015262000b848662000f54565b60ff1660c08601525092949350505050565b60055460ff1690565b6001600160a01b03831662000bc85760405162461bcd60e51b8152600401620004b99062001128565b6001600160a01b03821662000bf15760405162461bcd60e51b8152600401620004b99062001075565b62000bfe83838362000936565b6001600160a01b0383166000908152602081905260409020548181101562000c3a5760405162461bcd60e51b8152600401620004b990620010b8565b6001600160a01b0380851660009081526020819052604080822085850390559185168152908120805484929062000c73908490620011d6565b92505081905550826001600160a01b0316846001600160a01b0316600080516020620036048339815191528460405162000cae9190620011a4565b60405180910390a362000cc384848462000936565b50505050565b600080808062000cde6301e133808662001219565b62000cec906107b2620011d6565b915062000cfb6107b262000de2565b62000d0a61ffff841662000de2565b62000d169190620013fe565b905062000d28816301e285006200138a565b62000d349084620011d6565b92508062000d456107b284620013d8565b61ffff1662000d559190620013fe565b62000d65906301e133806200138a565b62000d719084620011d6565b92505b8483111562000dda5762000d9462000d8e600184620013d8565b6200093b565b1562000db25762000daa6301e2850084620013fe565b925062000dc5565b62000dc26301e1338084620013fe565b92505b62000dd2600183620013d8565b915062000d74565b509392505050565b600062000df1600183620013fe565b915062000e016101908362001219565b62000e0e60648462001219565b62000e1b60048562001219565b62000e279190620013fe565b620008049190620011d6565b60008260ff166001148062000e4b57508260ff166003145b8062000e5a57508260ff166005145b8062000e6957508260ff166007145b8062000e7857508260ff166008145b8062000e8757508260ff16600a145b8062000e9657508260ff16600c145b1562000ea55750601f62000804565b8260ff166004148062000ebb57508260ff166006145b8062000eca57508260ff166009145b8062000ed957508260ff16600b145b1562000ee85750601e62000804565b62000ef3826200093b565b1562000f025750601d62000804565b50601c62000804565b60006018603c62000f1d818562001219565b62000f29919062001219565b620008049190620014e7565b6000603c62000f29818462001219565b600062000804603c83620014e7565b6000600762000f67620151808462001219565b62000f29906004620011d6565b82805462000f82906200143e565b90600052602060002090601f01602090048101928262000fa6576000855562000ff1565b82601f1062000fc157805160ff191683800117855562000ff1565b8280016001018555821562000ff1579182015b8281111562000ff157825182559160200191906001019062000fd4565b5062000fff9291506200105e565b5090565b604051806101800160405280600c906020820280368337509192915050565b6040805160e081018252600080825260208201819052918101829052606081018290526080810182905260a0810182905260c081019190915290565b5b8082111562000fff57600081556001016200105f565b60208082526023908201527f45524332303a207472616e7366657220746f20746865207a65726f206164647260408201526265737360e81b606082015260800190565b60208082526026908201527f45524332303a207472616e7366657220616d6f756e7420657863656564732062604082015265616c616e636560d01b606082015260800190565b60208082526010908201526f14185d5cd8589b194e881c185d5cd95960821b604082015260600190565b60208082526025908201527f45524332303a207472616e736665722066726f6d20746865207a65726f206164604082015264647265737360d81b606082015260800190565b6020808252601f908201527f45524332303a206d696e7420746f20746865207a65726f206164647265737300604082015260600190565b90815260200190565b600061ffff808316818516808303821115620011cd57620011cd62001523565b01949350505050565b60008219821115620011ec57620011ec62001523565b500190565b600060ff821660ff84168060ff0382111562001211576200121162001523565b019392505050565b6000826200122b576200122b62001539565b500490565b600060ff83168062001246576200124662001539565b8060ff84160491505092915050565b80825b600180861162001269575062001299565b8187048211156200127e576200127e62001523565b808616156200128c57918102915b9490941c93800262001258565b94509492505050565b60006200090e6000198484600082620012be575060016200090e565b81620012cd575060006200090e565b8160018114620012e65760028114620012f15762001325565b60019150506200090e565b60ff84111562001305576200130562001523565b6001841b9150848211156200131e576200131e62001523565b506200090e565b5060208310610133831016604e8410600b84101617156200135d575081810a8381111562001357576200135762001523565b6200090e565b6200136c848484600162001255565b80860482111562001381576200138162001523565b02949350505050565b6000816000190483118215151615620013a757620013a762001523565b500290565b600060ff821660ff84168160ff0481118215151615620013d057620013d062001523565b029392505050565b600061ffff83811690831681811015620013f657620013f662001523565b039392505050565b60008282101562001413576200141362001523565b500390565b600060ff821660ff84168082101562001435576200143562001523565b90039392505050565b6002810460018216806200145357607f821691505b602082108114156200147557634e487b7160e01b600052602260045260246000fd5b50919050565b600061ffff8083168181141562001496576200149662001523565b6001019392505050565b600060ff821660ff811415620014ba57620014ba62001523565b60010192915050565b600061ffff80841680620014db57620014db62001539565b92169190910692915050565b600082620014f957620014f962001539565b500690565b600060ff83168062001514576200151462001539565b8060ff84160691505092915050565b634e487b7160e01b600052601160045260246000fd5b634e487b7160e01b600052601260045260246000fd5b6120a5806200155f6000396000f3fe6080604052600436106101e75760003560e01c806384d5d94411610102578063c2091cfb11610095578063e85d5bc211610064578063e85d5bc214610543578063ec5ba69014610563578063f0f5cb3214610590578063f2fde38b146105b0576101f1565b8063c2091cfb146104c0578063c8eb1197146104d5578063dd62ed3e14610503578063e5be7e9814610523576101f1565b806395d89b41116100d157806395d89b411461044b578063a457c2d714610460578063a9059cbb14610480578063aca5cb25146104a0576101f1565b806384d5d944146103d45780638da5cb5b146103f45780638e94ae5f14610416578063929ec5371461042b576101f1565b8063395093511161017a57806370a082311161014957806370a0823114610368578063715018a614610388578063728e9e241461039d57806372d47d36146103b2576101f1565b806339509351146102f157806342966c68146103115780635c975abb146103335780636c24a76f14610348576101f1565b80631ec4280a116101b65780631ec4280a1461028557806323b872dd1461029a5780632c41f2a6146102ba578063313ce567146102cf576101f1565b806306fdde03146101f6578063095ea7b3146102215780630d6b44eb1461024e57806318160ddd14610270576101f1565b366101f157600080fd5b600080fd5b34801561020257600080fd5b5061020b6105d0565b604051610218919061194a565b60405180910390f35b34801561022d57600080fd5b5061024161023c3660046117ea565b610662565b604051610218919061193f565b34801561025a57600080fd5b5061026361067f565b6040516102189190611fa5565b34801561027c57600080fd5b506102636106fa565b34801561029157600080fd5b50610263610700565b3480156102a657600080fd5b506102416102b5366004611775565b61071b565b3480156102c657600080fd5b506102636107fb565b3480156102db57600080fd5b506102e4610816565b6040516102189190611fc6565b3480156102fd57600080fd5b5061024161030c3660046117ea565b61081b565b34801561031d57600080fd5b5061033161032c366004611845565b61086f565b005b34801561033f57600080fd5b506102416108a1565b34801561035457600080fd5b50610263610363366004611729565b6108aa565b34801561037457600080fd5b50610263610383366004611729565b6108d9565b34801561039457600080fd5b506103316108f4565b3480156103a957600080fd5b5061026361093f565b3480156103be57600080fd5b506103c7610945565b6040516102189190611899565b3480156103e057600080fd5b506102416103ef366004611813565b6109a6565b34801561040057600080fd5b50610409610ba4565b6040516102189190611885565b34801561042257600080fd5b50610263610bb8565b34801561043757600080fd5b50610263610446366004611729565b610c0f565b34801561045757600080fd5b5061020b610d36565b34801561046c57600080fd5b5061024161047b3660046117ea565b610d45565b34801561048c57600080fd5b5061024161049b3660046117ea565b610dbe565b3480156104ac57600080fd5b506102416104bb366004611729565b610e44565b3480156104cc57600080fd5b506103c7610e59565b3480156104e157600080fd5b506104f56104f03660046117ea565b610f90565b604051610218929190611fae565b34801561050f57600080fd5b5061026361051e366004611743565b610fd6565b34801561052f57600080fd5b5061026361053e36600461185d565b611001565b34801561054f57600080fd5b5061024161055e366004611729565b61106c565b34801561056f57600080fd5b5061058361057e366004611729565b61108a565b60405161021891906118e6565b34801561059c57600080fd5b506102416105ab3660046117b0565b611116565b3480156105bc57600080fd5b506103316105cb366004611729565b611186565b6060600380546105df90612003565b80601f016020809104026020016040519081016040528092919081815260200182805461060b90612003565b80156106585780601f1061062d57610100808354040283529160200191610658565b820191906000526020600020905b81548152906001019060200180831161063b57829003601f168201915b5050505050905090565b600061067661066f611208565b848461120c565b50600192915050565b600080805b600e548110156106f45760006106ce600e83815481106106b457634e487b7160e01b600052603260045260246000fd5b6000918252602090912001546001600160a01b0316610c0f565b11156106e257816106de8161203e565b9250505b806106ec8161203e565b915050610684565b50905090565b60025490565b600061071661070d6106fa565b600b54906112c0565b905090565b60006107256108a1565b1561074b5760405162461bcd60e51b815260040161074290611b54565b60405180910390fd5b6001600160a01b0384166107715760405162461bcd60e51b815260040161074290611dee565b6001600160a01b0383166107975760405162461bcd60e51b81526004016107429061199d565b6107a18433610fd6565b8211156107c05760405162461bcd60e51b815260040161074290611be8565b6107c9846108aa565b8211156107e85760405162461bcd60e51b815260040161074290611b8b565b6107f38484846112cc565b949350505050565b6000610716610808610bb8565b6108106106fa565b906112c0565b601290565b6000610676610828611208565b848460016000610836611208565b6001600160a01b03908116825260208083019390935260409182016000908120918b168152925290205461086a9190611fd4565b61120c565b6108776108a1565b156108945760405162461bcd60e51b815260040161074290611b54565b61089e338261135c565b50565b60055460ff1690565b6000806108b6836108d9565b905060006108c384610c0f565b90506108cf82826112c0565b925050505b919050565b6001600160a01b031660009081526020819052604090205490565b6108fc611208565b6001600160a01b031661090d610ba4565b6001600160a01b0316146109335760405162461bcd60e51b815260040161074290611c45565b61093d600061144e565b565b600e5490565b6060600e80548060200260200160405190810160405280929190818152602001828054801561065857602002820191906000526020600020905b81546001600160a01b0316815260019091019060200180831161097f575050505050905090565b60006109b06108a1565b156109cd5760405162461bcd60e51b815260040161074290611b54565b6001600160a01b0384166109f35760405162461bcd60e51b815260040161074290611f05565b6109fc336108aa565b831115610a1b5760405162461bcd60e51b815260040161074290611b8b565b60008311610a3b5760405162461bcd60e51b815260040161074290611d34565b336001600160a01b0385161415610a645760405162461bcd60e51b815260040161074290611c7a565b6006546001600160a01b0316331480610a8757506007546001600160a01b031633145b80610a9c57506008546001600160a01b031633145b80610ab157506009546001600160a01b031633145b80610ac65750600a546001600160a01b031633145b80610ae95750610ad4610ba4565b6001600160a01b0316336001600160a01b0316145b80610af85750610af83361106c565b610b145760405162461bcd60e51b815260040161074290611cd7565b600c805460018101825560008290527fdf6966c971051c3d54ec59162606531493a51404a002842f56009d7e5cf4a8c7810185905581549091610b8d913391889167ffffffffffffffff8616908110610b7d57634e487b7160e01b600052603260045260246000fd5b90600052602060002001546114bf565b610b988582856115e9565b50600195945050505050565b60055461010090046001600160a01b031690565b600080805b600e548110156106f4576000610bed600e83815481106106b457634e487b7160e01b600052603260045260246000fd5b9050610bf98382611706565b9250508080610c079061203e565b915050610bbd565b600080805b6001600160a01b0384166000908152600d6020526040902054811015610d2f576001600160a01b0384166000908152600d60205260409020805482908110610c6c57634e487b7160e01b600052603260045260246000fd5b906000526020600020906002020160000154421015610d1d576001600160a01b0384166000908152600d602052604081208054600c919084908110610cc157634e487b7160e01b600052603260045260246000fd5b6000918252602090912060016002909202010154815467ffffffffffffffff909116908110610d0057634e487b7160e01b600052603260045260246000fd5b906000526020600020015490508083610d199190611fd4565b9250505b80610d278161203e565b915050610c14565b5092915050565b6060600480546105df90612003565b60008060016000610d54611208565b6001600160a01b0390811682526020808301939093526040918201600090812091881681529252902054905082811015610da05760405162461bcd60e51b815260040161074290611f48565b610db4610dab611208565b8585840361120c565b5060019392505050565b6000610dc86108a1565b15610de55760405162461bcd60e51b815260040161074290611b54565b6001600160a01b038316610e0b5760405162461bcd60e51b81526004016107429061199d565b610e14336108aa565b821115610e335760405162461bcd60e51b815260040161074290611b8b565b610e3d83836111f4565b9392505050565b600f6020526000908152604090205460ff1681565b60606000610e6561067f565b67ffffffffffffffff811115610e8b57634e487b7160e01b600052604160045260246000fd5b604051908082528060200260200182016040528015610eb4578160200160208202803683370190505b5090506000805b600e54811015610f88576000610eeb600e83815481106106b457634e487b7160e01b600052603260045260246000fd5b1115610f7657600e8181548110610f1257634e487b7160e01b600052603260045260246000fd5b9060005260206000200160009054906101000a90046001600160a01b0316838381518110610f5057634e487b7160e01b600052603260045260246000fd5b6001600160a01b039092166020928302919091019091015281610f728161203e565b9250505b80610f808161203e565b915050610ebb565b509091505090565b600d6020528160005260406000208181548110610fac57600080fd5b60009182526020909120600290910201805460019091015490925067ffffffffffffffff16905082565b6001600160a01b03918216600090815260016020908152604080832093909416825291909152205490565b600c5460009067ffffffffffffffff83161061102f5760405162461bcd60e51b815260040161074290611e4b565b600c8267ffffffffffffffff168154811061105a57634e487b7160e01b600052603260045260246000fd5b90600052602060002001549050919050565b6001600160a01b03166000908152600f602052604090205460ff1690565b6001600160a01b0381166000908152600d60209081526040808320805482518185028101850190935280835260609492939192909184015b8282101561110b57600084815260209081902060408051808201909152600285029091018054825260019081015467ffffffffffffffff168284015290835290920191016110c2565b505050509050919050565b6000611120611208565b6001600160a01b0316611131610ba4565b6001600160a01b0316146111575760405162461bcd60e51b815260040161074290611c45565b506001600160a01b0382166000908152600f60205260409020805482151560ff19909116179055600192915050565b61118e611208565b6001600160a01b031661119f610ba4565b6001600160a01b0316146111c55760405162461bcd60e51b815260040161074290611c45565b6001600160a01b0381166111eb5760405162461bcd60e51b815260040161074290611a3d565b61089e8161144e565b6000610676611201611208565b84846114bf565b3390565b6001600160a01b0383166112325760405162461bcd60e51b815260040161074290611ea8565b6001600160a01b0382166112585760405162461bcd60e51b815260040161074290611a9a565b6001600160a01b0380841660008181526001602090815260408083209487168084529490915290819020849055517f8c5be1e5ebec7d5bd14f71427d1e84f3dd0314c0f7b2291e5b200ac8c7c3b925906112b3908590611fa5565b60405180910390a3505050565b6000610e3d8284611fec565b60006112d98484846114bf565b6001600160a01b0384166000908152600160205260408120816112fa611208565b6001600160a01b03166001600160a01b031681526020019081526020016000205490508281101561133d5760405162461bcd60e51b815260040161074290611be8565b61135185611349611208565b85840361120c565b506001949350505050565b6001600160a01b0382166113825760405162461bcd60e51b815260040161074290611d91565b61138e82600083611449565b6001600160a01b038216600090815260208190526040902054818110156113c75760405162461bcd60e51b8152600401610742906119e0565b6001600160a01b03831660009081526020819052604081208383039055600280548492906113f6908490611fec565b90915550506040516000906001600160a01b038516907fddf252ad1be2c89b69c2b068fc378daa952ba7f163c4a11628f55a4df523b3ef90611439908690611fa5565b60405180910390a3611449836000845b505050565b600580546001600160a01b038381166101008181027fffffffffffffffffffffff0000000000000000000000000000000000000000ff85161790945560405193909204169182907f8be0079c531659141344cd1fd0a4f28419497f9722a3daafe3b4186f6b6457e090600090a35050565b6001600160a01b0383166114e55760405162461bcd60e51b815260040161074290611dee565b6001600160a01b03821661150b5760405162461bcd60e51b81526004016107429061199d565b611516838383611449565b6001600160a01b0383166000908152602081905260409020548181101561154f5760405162461bcd60e51b815260040161074290611af7565b6001600160a01b03808516600090815260208190526040808220858503905591851681529081208054849290611586908490611fd4565b92505081905550826001600160a01b0316846001600160a01b03167fddf252ad1be2c89b69c2b068fc378daa952ba7f163c4a11628f55a4df523b3ef846040516115d09190611fa5565b60405180910390a36115e3848484611449565b50505050565b60006115f36108a1565b156116105760405162461bcd60e51b815260040161074290611b54565b6001600160a01b0384166000908152600d602052604090205461169157600e80546001810182556000919091527fbb7b4a454dc3493923482f07822329ed19e8244eff582cc204f8554c3620c3fd0180547fffffffffffffffffffffffff0000000000000000000000000000000000000000166001600160a01b0386161790555b5060408051808201825291825267ffffffffffffffff92831660208084019182526001600160a01b03959095166000908152600d865291822080546001808201835591845295909220925160029095029092019384559051928101805467ffffffffffffffff19169390921692909217905590565b6000610e3d8284611fd4565b80356001600160a01b03811681146108d457600080fd5b60006020828403121561173a578081fd5b610e3d82611712565b60008060408385031215611755578081fd5b61175e83611712565b915061176c60208401611712565b90509250929050565b600080600060608486031215611789578081fd5b61179284611712565b92506117a060208501611712565b9150604084013590509250925092565b600080604083850312156117c2578182fd5b6117cb83611712565b9150602083013580151581146117df578182fd5b809150509250929050565b600080604083850312156117fc578182fd5b61180583611712565b946020939093013593505050565b600080600060608486031215611827578283fd5b61183084611712565b95602085013595506040909401359392505050565b600060208284031215611856578081fd5b5035919050565b60006020828403121561186e578081fd5b813567ffffffffffffffff81168114610e3d578182fd5b6001600160a01b0391909116815260200190565b6020808252825182820181905260009190848201906040850190845b818110156118da5783516001600160a01b0316835292840192918401916001016118b5565b50909695505050505050565b602080825282518282018190526000919060409081850190868401855b828110156119325781518051855286015167ffffffffffffffff16868501529284019290850190600101611903565b5091979650505050505050565b901515815260200190565b6000602080835283518082850152825b818110156119765785810183015185820160400152820161195a565b818111156119875783604083870101525b50601f01601f1916929092016040019392505050565b60208082526023908201527f45524332303a207472616e7366657220746f20746865207a65726f206164647260408201526265737360e81b606082015260800190565b60208082526022908201527f45524332303a206275726e20616d6f756e7420657863656564732062616c616e60408201527f6365000000000000000000000000000000000000000000000000000000000000606082015260800190565b60208082526026908201527f4f776e61626c653a206e6577206f776e657220697320746865207a65726f206160408201527f6464726573730000000000000000000000000000000000000000000000000000606082015260800190565b60208082526022908201527f45524332303a20617070726f766520746f20746865207a65726f20616464726560408201527f7373000000000000000000000000000000000000000000000000000000000000606082015260800190565b60208082526026908201527f45524332303a207472616e7366657220616d6f756e742065786365656473206260408201527f616c616e63650000000000000000000000000000000000000000000000000000606082015260800190565b60208082526010908201527f5061757361626c653a2070617573656400000000000000000000000000000000604082015260600190565b60208082526030908201527f45524332303a207472616e7366657220616d6f756e742065786365656473206160408201527f7661696c61626c652062616c616e636500000000000000000000000000000000606082015260800190565b60208082526028908201527f45524332303a207472616e7366657220616d6f756e742065786365656473206160408201527f6c6c6f77616e6365000000000000000000000000000000000000000000000000606082015260800190565b6020808252818101527f4f776e61626c653a2063616c6c6572206973206e6f7420746865206f776e6572604082015260600190565b60208082526026908201527f73656e646572206d75737420626520646966666572656e74207769746820726560408201527f6365697665720000000000000000000000000000000000000000000000000000606082015260800190565b6020808252602c908201527f73656e646572206d75737420626520766572696669656420746f20757365207460408201527f6869732066756e6374696f6e0000000000000000000000000000000000000000606082015260800190565b60208082526029908201527f7472616e73666572416e644c6f636b206f6e6c7920776f726b2077697468206160408201527f6d6f756e74203e20300000000000000000000000000000000000000000000000606082015260800190565b60208082526021908201527f45524332303a206275726e2066726f6d20746865207a65726f2061646472657360408201527f7300000000000000000000000000000000000000000000000000000000000000606082015260800190565b60208082526025908201527f45524332303a207472616e736665722066726f6d20746865207a65726f20616460408201527f6472657373000000000000000000000000000000000000000000000000000000606082015260800190565b60208082526038908201527f616d6f756e74496e646578206d75737420626520736d616c6c6572207468616e60408201527f20616d6f756e744c6f636b56616c7565732e6c656e6774680000000000000000606082015260800190565b60208082526024908201527f45524332303a20617070726f76652066726f6d20746865207a65726f2061646460408201527f7265737300000000000000000000000000000000000000000000000000000000606082015260800190565b60208082526023908201527f7472616e73666572416e644c6f636b20746f20746865207a65726f206164647260408201526265737360e81b606082015260800190565b60208082526025908201527f45524332303a2064656372656173656420616c6c6f77616e63652062656c6f7760408201527f207a65726f000000000000000000000000000000000000000000000000000000606082015260800190565b90815260200190565b91825267ffffffffffffffff16602082015260400190565b60ff91909116815260200190565b60008219821115611fe757611fe7612059565b500190565b600082821015611ffe57611ffe612059565b500390565b60028104600182168061201757607f821691505b6020821081141561203857634e487b7160e01b600052602260045260246000fd5b50919050565b600060001982141561205257612052612059565b5060010190565b634e487b7160e01b600052601160045260246000fdfea26469706673582212204df0602972c6d759b4919fc38aae6cf6df7fa837885b9c038f3db0d01e5843ff64736f6c63430008000033ddf252ad1be2c89b69c2b068fc378daa952ba7f163c4a11628f55a4df523b3ef",
  "linkReferences": {},
  "deployedLinkReferences": {}
}