{
    "_format": "hh-sol-artifact-1",
    "contractName": "SingSingV2",
    "sourceName": "contracts/SingSingV2.sol",
    "abi": [
        {
            "inputs": [],
            "stateMutability": "nonpayable",
            "type": "constructor"
        },
        {
            "anonymous": false,
            "inputs": [
                {
                    "indexed": true,
                    "internalType": "address",
                    "name": "owner",
                    "type": "address"
                },
                {
                    "indexed": true,
                    "internalType": "address",
                    "name": "spender",
                    "type": "address"
                },
                {
                    "indexed": false,
                    "internalType": "uint256",
                    "name": "value",
                    "type": "uint256"
                }
            ],
            "name": "Approval",
            "type": "event"
        },
        {
            "anonymous": false,
            "inputs": [
                {
                    "indexed": true,
                    "internalType": "address",
                    "name": "previousOwner",
                    "type": "address"
                },
                {
                    "indexed": true,
                    "internalType": "address",
                    "name": "newOwner",
                    "type": "address"
                }
            ],
            "name": "OwnershipTransferred",
            "type": "event"
        },
        {
            "anonymous": false,
            "inputs": [
                {
                    "indexed": false,
                    "internalType": "address",
                    "name": "account",
                    "type": "address"
                }
            ],
            "name": "Paused",
            "type": "event"
        },
        {
            "anonymous": false,
            "inputs": [
                {
                    "indexed": true,
                    "internalType": "address",
                    "name": "from",
                    "type": "address"
                },
                {
                    "indexed": true,
                    "internalType": "address",
                    "name": "to",
                    "type": "address"
                },
                {
                    "indexed": false,
                    "internalType": "uint256",
                    "name": "value",
                    "type": "uint256"
                }
            ],
            "name": "Transfer",
            "type": "event"
        },
        {
            "anonymous": false,
            "inputs": [
                {
                    "indexed": false,
                    "internalType": "address",
                    "name": "account",
                    "type": "address"
                }
            ],
            "name": "Unpaused",
            "type": "event"
        },
        {
            "stateMutability": "payable",
            "type": "fallback"
        },
        {
            "inputs": [
                {
                    "internalType": "address",
                    "name": "owner",
                    "type": "address"
                },
                {
                    "internalType": "address",
                    "name": "spender",
                    "type": "address"
                }
            ],
            "name": "allowance",
            "outputs": [
                {
                    "internalType": "uint256",
                    "name": "",
                    "type": "uint256"
                }
            ],
            "stateMutability": "view",
            "type": "function"
        },
        {
            "inputs": [
                {
                    "internalType": "address",
                    "name": "spender",
                    "type": "address"
                },
                {
                    "internalType": "uint256",
                    "name": "amount",
                    "type": "uint256"
                }
            ],
            "name": "approve",
            "outputs": [
                {
                    "internalType": "bool",
                    "name": "",
                    "type": "bool"
                }
            ],
            "stateMutability": "nonpayable",
            "type": "function"
        },
        {
            "inputs": [
                {
                    "internalType": "address",
                    "name": "account",
                    "type": "address"
                }
            ],
            "name": "balanceOf",
            "outputs": [
                {
                    "internalType": "uint256",
                    "name": "",
                    "type": "uint256"
                }
            ],
            "stateMutability": "view",
            "type": "function"
        },
        {
            "inputs": [
                {
                    "internalType": "uint256",
                    "name": "_amount",
                    "type": "uint256"
                }
            ],
            "name": "burn",
            "outputs": [],
            "stateMutability": "nonpayable",
            "type": "function"
        },
        {
            "inputs": [],
            "name": "decimals",
            "outputs": [
                {
                    "internalType": "uint8",
                    "name": "",
                    "type": "uint8"
                }
            ],
            "stateMutability": "view",
            "type": "function"
        },
        {
            "inputs": [
                {
                    "internalType": "address",
                    "name": "spender",
                    "type": "address"
                },
                {
                    "internalType": "uint256",
                    "name": "subtractedValue",
                    "type": "uint256"
                }
            ],
            "name": "decreaseAllowance",
            "outputs": [
                {
                    "internalType": "bool",
                    "name": "",
                    "type": "bool"
                }
            ],
            "stateMutability": "nonpayable",
            "type": "function"
        },
        {
            "inputs": [
                {
                    "internalType": "address",
                    "name": "lockedAddress",
                    "type": "address"
                }
            ],
            "name": "getAvailableBalance",
            "outputs": [
                {
                    "internalType": "uint256",
                    "name": "_amount",
                    "type": "uint256"
                }
            ],
            "stateMutability": "view",
            "type": "function"
        },
        {
            "inputs": [],
            "name": "getBurnedAmountTotal",
            "outputs": [
                {
                    "internalType": "uint256",
                    "name": "_amount",
                    "type": "uint256"
                }
            ],
            "stateMutability": "view",
            "type": "function"
        },
        {
            "inputs": [],
            "name": "getCirculatingSupplyTotal",
            "outputs": [
                {
                    "internalType": "uint256",
                    "name": "_amount",
                    "type": "uint256"
                }
            ],
            "stateMutability": "view",
            "type": "function"
        },
        {
            "inputs": [],
            "name": "getLockedAddresses",
            "outputs": [
                {
                    "internalType": "address[]",
                    "name": "",
                    "type": "address[]"
                }
            ],
            "stateMutability": "view",
            "type": "function"
        },
        {
            "inputs": [],
            "name": "getLockedAddressesCurrently",
            "outputs": [
                {
                    "internalType": "address[]",
                    "name": "",
                    "type": "address[]"
                }
            ],
            "stateMutability": "view",
            "type": "function"
        },
        {
            "inputs": [
                {
                    "internalType": "address",
                    "name": "lockedAddress",
                    "type": "address"
                }
            ],
            "name": "getLockedAmount",
            "outputs": [
                {
                    "internalType": "uint256",
                    "name": "_amount",
                    "type": "uint256"
                }
            ],
            "stateMutability": "view",
            "type": "function"
        },
        {
            "inputs": [],
            "name": "getLockedAmountTotal",
            "outputs": [
                {
                    "internalType": "uint256",
                    "name": "_amount",
                    "type": "uint256"
                }
            ],
            "stateMutability": "view",
            "type": "function"
        },
        {
            "inputs": [
                {
                    "internalType": "address",
                    "name": "lockedAddress",
                    "type": "address"
                }
            ],
            "name": "getLockedItem",
            "outputs": [
                {
                    "components": [
                        {
                            "internalType": "uint256",
                            "name": "releaseDate",
                            "type": "uint256"
                        },
                        {
                            "internalType": "uint8",
                            "name": "amountLockIndex",
                            "type": "uint8"
                        }
                    ],
                    "internalType": "struct SingSingV2.LockItem[]",
                    "name": "item",
                    "type": "tuple[]"
                }
            ],
            "stateMutability": "view",
            "type": "function"
        },
        {
            "inputs": [],
            "name": "getNumberOfLockedAddresses",
            "outputs": [
                {
                    "internalType": "uint256",
                    "name": "_count",
                    "type": "uint256"
                }
            ],
            "stateMutability": "view",
            "type": "function"
        },
        {
            "inputs": [],
            "name": "getNumberOfLockedAddressesCurrently",
            "outputs": [
                {
                    "internalType": "uint256",
                    "name": "_count",
                    "type": "uint256"
                }
            ],
            "stateMutability": "view",
            "type": "function"
        },
        {
            "inputs": [
                {
                    "internalType": "address",
                    "name": "spender",
                    "type": "address"
                },
                {
                    "internalType": "uint256",
                    "name": "addedValue",
                    "type": "uint256"
                }
            ],
            "name": "increaseAllowance",
            "outputs": [
                {
                    "internalType": "bool",
                    "name": "",
                    "type": "bool"
                }
            ],
            "stateMutability": "nonpayable",
            "type": "function"
        },
        {
            "inputs": [
                {
                    "internalType": "address",
                    "name": "",
                    "type": "address"
                },
                {
                    "internalType": "uint256",
                    "name": "",
                    "type": "uint256"
                }
            ],
            "name": "lockList",
            "outputs": [
                {
                    "internalType": "uint256",
                    "name": "releaseDate",
                    "type": "uint256"
                },
                {
                    "internalType": "uint8",
                    "name": "amountLockIndex",
                    "type": "uint8"
                }
            ],
            "stateMutability": "view",
            "type": "function"
        },
        {
            "inputs": [],
            "name": "name",
            "outputs": [
                {
                    "internalType": "string",
                    "name": "",
                    "type": "string"
                }
            ],
            "stateMutability": "view",
            "type": "function"
        },
        {
            "inputs": [],
            "name": "owner",
            "outputs": [
                {
                    "internalType": "address",
                    "name": "",
                    "type": "address"
                }
            ],
            "stateMutability": "view",
            "type": "function"
        },
        {
            "inputs": [],
            "name": "paused",
            "outputs": [
                {
                    "internalType": "bool",
                    "name": "",
                    "type": "bool"
                }
            ],
            "stateMutability": "view",
            "type": "function"
        },
        {
            "inputs": [],
            "name": "renounceOwnership",
            "outputs": [],
            "stateMutability": "nonpayable",
            "type": "function"
        },
        {
            "inputs": [],
            "name": "symbol",
            "outputs": [
                {
                    "internalType": "string",
                    "name": "",
                    "type": "string"
                }
            ],
            "stateMutability": "view",
            "type": "function"
        },
        {
            "inputs": [],
            "name": "totalSupply",
            "outputs": [
                {
                    "internalType": "uint256",
                    "name": "",
                    "type": "uint256"
                }
            ],
            "stateMutability": "view",
            "type": "function"
        },
        {
            "inputs": [
                {
                    "internalType": "address",
                    "name": "_receiver",
                    "type": "address"
                },
                {
                    "internalType": "uint256",
                    "name": "_amount",
                    "type": "uint256"
                }
            ],
            "name": "transfer",
            "outputs": [
                {
                    "internalType": "bool",
                    "name": "success",
                    "type": "bool"
                }
            ],
            "stateMutability": "nonpayable",
            "type": "function"
        },
        {
            "inputs": [
                {
                    "internalType": "address",
                    "name": "_receiver",
                    "type": "address"
                },
                {
                    "internalType": "uint8",
                    "name": "_amountIndex",
                    "type": "uint8"
                },
                {
                    "internalType": "uint256",
                    "name": "_releaseDate",
                    "type": "uint256"
                }
            ],
            "name": "transferAndLock",
            "outputs": [
                {
                    "internalType": "bool",
                    "name": "success",
                    "type": "bool"
                }
            ],
            "stateMutability": "nonpayable",
            "type": "function"
        },
        {
            "inputs": [
                {
                    "internalType": "address",
                    "name": "_from",
                    "type": "address"
                },
                {
                    "internalType": "address",
                    "name": "_receiver",
                    "type": "address"
                },
                {
                    "internalType": "uint256",
                    "name": "_amount",
                    "type": "uint256"
                }
            ],
            "name": "transferFrom",
            "outputs": [
                {
                    "internalType": "bool",
                    "name": "",
                    "type": "bool"
                }
            ],
            "stateMutability": "nonpayable",
            "type": "function"
        },
        {
            "inputs": [
                {
                    "internalType": "address",
                    "name": "newOwner",
                    "type": "address"
                }
            ],
            "name": "transferOwnership",
            "outputs": [],
            "stateMutability": "nonpayable",
            "type": "function"
        },
        {
            "stateMutability": "payable",
            "type": "receive"
        }
    ],
    "deployedBytecode": "0x6080604052600436106101bb5760003560e01c8063728e9e24116100ec578063a457c2d71161008a578063c8eb119711610064578063c8eb119714610489578063dd62ed3e146104b7578063ec5ba690146104d7578063f2fde38b14610504576101c5565b8063a457c2d714610434578063a9059cbb14610454578063c2091cfb14610474576101c5565b80638e43d1d3116100c65780638e43d1d3146103ca5780638e94ae5f146103ea578063929ec537146103ff57806395d89b411461041f576101c5565b8063728e9e241461037157806372d47d36146103865780638da5cb5b146103a8576101c5565b8063313ce567116101595780635c975abb116101335780635c975abb146103075780636c24a76f1461031c57806370a082311461033c578063715018a61461035c576101c5565b8063313ce567146102a357806339509351146102c557806342966c68146102e5576101c5565b806318160ddd1161019557806318160ddd146102445780631ec4280a1461025957806323b872dd1461026e5780632c41f2a61461028e576101c5565b806306fdde03146101ca578063095ea7b3146101f55780630d6b44eb14610222576101c5565b366101c557600080fd5b600080fd5b3480156101d657600080fd5b506101df610524565b6040516101ec91906115de565b60405180910390f35b34801561020157600080fd5b5061021561021036600461149c565b6105b6565b6040516101ec91906115d3565b34801561022e57600080fd5b506102376105d3565b6040516101ec9190611a9c565b34801561025057600080fd5b5061023761064e565b34801561026557600080fd5b50610237610654565b34801561027a57600080fd5b50610215610289366004611461565b61066f565b34801561029a57600080fd5b5061023761074f565b3480156102af57600080fd5b506102b861076a565b6040516101ec9190611ab6565b3480156102d157600080fd5b506102156102e036600461149c565b61076f565b3480156102f157600080fd5b50610305610300366004611508565b6107c3565b005b34801561031357600080fd5b506102156107f5565b34801561032857600080fd5b50610237610337366004611415565b6107fe565b34801561034857600080fd5b50610237610357366004611415565b61082d565b34801561036857600080fd5b50610305610848565b34801561037d57600080fd5b50610237610893565b34801561039257600080fd5b5061039b610899565b6040516101ec9190611534565b3480156103b457600080fd5b506103bd6108fa565b6040516101ec9190611520565b3480156103d657600080fd5b506102156103e53660046114c5565b61090e565b3480156103f657600080fd5b50610237610ae4565b34801561040b57600080fd5b5061023761041a366004611415565b610b3b565b34801561042b57600080fd5b506101df610c5b565b34801561044057600080fd5b5061021561044f36600461149c565b610c6a565b34801561046057600080fd5b5061021561046f36600461149c565b610ce3565b34801561048057600080fd5b5061039b610d69565b34801561049557600080fd5b506104a96104a436600461149c565b610ea0565b6040516101ec929190611aa5565b3480156104c357600080fd5b506102376104d236600461142f565b610edf565b3480156104e357600080fd5b506104f76104f2366004611415565b610f0a565b6040516101ec9190611581565b34801561051057600080fd5b5061030561051f366004611415565b610f8f565b60606003805461053390611af3565b80601f016020809104026020016040519081016040528092919081815260200182805461055f90611af3565b80156105ac5780601f10610581576101008083540402835291602001916105ac565b820191906000526020600020905b81548152906001019060200180831161058f57829003601f168201915b5050505050905090565b60006105ca6105c3611011565b8484611015565b50600192915050565b600080805b600e54811015610648576000610622600e838154811061060857634e487b7160e01b600052603260045260246000fd5b6000918252602090912001546001600160a01b0316610b3b565b1115610636578161063281611b2e565b9250505b8061064081611b2e565b9150506105d8565b50905090565b60025490565b600061066a61066161064e565b600b54906110c9565b905090565b60006106796107f5565b1561069f5760405162461bcd60e51b815260040161069690611802565b60405180910390fd5b6001600160a01b0384166106c55760405162461bcd60e51b815260040161069690611985565b6001600160a01b0383166106eb5760405162461bcd60e51b815260040161069690611631565b6106f58433610edf565b8211156107145760405162461bcd60e51b815260040161069690611896565b61071d846107fe565b82111561073c5760405162461bcd60e51b815260040161069690611839565b6107478484846110d5565b949350505050565b600061066a61075c610ae4565b61076461064e565b906110c9565b601290565b60006105ca61077c611011565b84846001600061078a611011565b6001600160a01b03908116825260208083019390935260409182016000908120918b16815292529020546107be9190611ac4565b611015565b6107cb6107f5565b156107e85760405162461bcd60e51b815260040161069690611802565b6107f23382611165565b50565b60055460ff1690565b60008061080a8361082d565b9050600061081784610b3b565b905061082382826110c9565b925050505b919050565b6001600160a01b031660009081526020819052604090205490565b610850611011565b6001600160a01b03166108616108fa565b6001600160a01b0316146108875760405162461bcd60e51b8152600401610696906118f3565b6108916000611257565b565b600e5490565b6060600e8054806020026020016040519081016040528092919081815260200182805480156105ac57602002820191906000526020600020905b81546001600160a01b031681526001909101906020018083116108d3575050505050905090565b60055461010090046001600160a01b031690565b60006109186107f5565b156109355760405162461bcd60e51b815260040161069690611802565b6006546001600160a01b031633148061095857506007546001600160a01b031633145b8061096d57506008546001600160a01b031633145b8061098257506009546001600160a01b031633145b806109975750600a546001600160a01b031633145b806109ba57506109a56108fa565b6001600160a01b0316336001600160a01b0316145b6109c357600080fd5b6109fc3385600c8660ff16815481106109ec57634e487b7160e01b600052603260045260246000fd5b90600052602060002001546112c8565b6001600160a01b0384166000908152600d6020526040902054610a7d57600e80546001810182556000919091527fbb7b4a454dc3493923482f07822329ed19e8244eff582cc204f8554c3620c3fd0180547fffffffffffffffffffffffff0000000000000000000000000000000000000000166001600160a01b0386161790555b5060408051808201825291825260ff92831660208084019182526001600160a01b03959095166000908152600d865291822080546001808201835591845295909220925160029095029092019384559051928101805460ff19169390921692909217905590565b600080805b600e54811015610648576000610b19600e838154811061060857634e487b7160e01b600052603260045260246000fd5b9050610b2583826113f2565b9250508080610b3390611b2e565b915050610ae9565b600080805b6001600160a01b0384166000908152600d6020526040902054811015610c54576001600160a01b0384166000908152600d60205260409020805482908110610b9857634e487b7160e01b600052603260045260246000fd5b906000526020600020906002020160000154421015610c42576001600160a01b0384166000908152600d602052604081208054600c919084908110610bed57634e487b7160e01b600052603260045260246000fd5b6000918252602090912060016002909202010154815460ff909116908110610c2557634e487b7160e01b600052603260045260246000fd5b906000526020600020015490508083610c3e9190611ac4565b9250505b80610c4c81611b2e565b915050610b40565b5092915050565b60606004805461053390611af3565b60008060016000610c79611011565b6001600160a01b0390811682526020808301939093526040918201600090812091881681529252902054905082811015610cc55760405162461bcd60e51b815260040161069690611a3f565b610cd9610cd0611011565b85858403611015565b5060019392505050565b6000610ced6107f5565b15610d0a5760405162461bcd60e51b815260040161069690611802565b6001600160a01b038316610d305760405162461bcd60e51b815260040161069690611631565b610d39336107fe565b821115610d585760405162461bcd60e51b815260040161069690611839565b610d628383610ffd565b9392505050565b60606000610d756105d3565b67ffffffffffffffff811115610d9b57634e487b7160e01b600052604160045260246000fd5b604051908082528060200260200182016040528015610dc4578160200160208202803683370190505b5090506000805b600e54811015610e98576000610dfb600e838154811061060857634e487b7160e01b600052603260045260246000fd5b1115610e8657600e8181548110610e2257634e487b7160e01b600052603260045260246000fd5b9060005260206000200160009054906101000a90046001600160a01b0316838381518110610e6057634e487b7160e01b600052603260045260246000fd5b6001600160a01b039092166020928302919091019091015281610e8281611b2e565b9250505b80610e9081611b2e565b915050610dcb565b509091505090565b600d6020528160005260406000208181548110610ebc57600080fd5b60009182526020909120600290910201805460019091015490925060ff16905082565b6001600160a01b03918216600090815260016020908152604080832093909416825291909152205490565b6001600160a01b0381166000908152600d60209081526040808320805482518185028101850190935280835260609492939192909184015b82821015610f8457600084815260209081902060408051808201909152600285029091018054825260019081015460ff16828401529083529092019101610f42565b505050509050919050565b610f97611011565b6001600160a01b0316610fa86108fa565b6001600160a01b031614610fce5760405162461bcd60e51b8152600401610696906118f3565b6001600160a01b038116610ff45760405162461bcd60e51b8152600401610696906116eb565b6107f281611257565b60006105ca61100a611011565b84846112c8565b3390565b6001600160a01b03831661103b5760405162461bcd60e51b8152600401610696906119e2565b6001600160a01b0382166110615760405162461bcd60e51b815260040161069690611748565b6001600160a01b0380841660008181526001602090815260408083209487168084529490915290819020849055517f8c5be1e5ebec7d5bd14f71427d1e84f3dd0314c0f7b2291e5b200ac8c7c3b925906110bc908590611a9c565b60405180910390a3505050565b6000610d628284611adc565b60006110e28484846112c8565b6001600160a01b038416600090815260016020526040812081611103611011565b6001600160a01b03166001600160a01b03168152602001908152602001600020549050828110156111465760405162461bcd60e51b815260040161069690611896565b61115a85611152611011565b858403611015565b506001949350505050565b6001600160a01b03821661118b5760405162461bcd60e51b815260040161069690611928565b61119782600083611252565b6001600160a01b038216600090815260208190526040902054818110156111d05760405162461bcd60e51b81526004016106969061168e565b6001600160a01b03831660009081526020819052604081208383039055600280548492906111ff908490611adc565b90915550506040516000906001600160a01b038516907fddf252ad1be2c89b69c2b068fc378daa952ba7f163c4a11628f55a4df523b3ef90611242908690611a9c565b60405180910390a3611252836000845b505050565b600580546001600160a01b038381166101008181027fffffffffffffffffffffff0000000000000000000000000000000000000000ff85161790945560405193909204169182907f8be0079c531659141344cd1fd0a4f28419497f9722a3daafe3b4186f6b6457e090600090a35050565b6001600160a01b0383166112ee5760405162461bcd60e51b815260040161069690611985565b6001600160a01b0382166113145760405162461bcd60e51b815260040161069690611631565b61131f838383611252565b6001600160a01b038316600090815260208190526040902054818110156113585760405162461bcd60e51b8152600401610696906117a5565b6001600160a01b0380851660009081526020819052604080822085850390559185168152908120805484929061138f908490611ac4565b92505081905550826001600160a01b0316846001600160a01b03167fddf252ad1be2c89b69c2b068fc378daa952ba7f163c4a11628f55a4df523b3ef846040516113d99190611a9c565b60405180910390a36113ec848484611252565b50505050565b6000610d628284611ac4565b80356001600160a01b038116811461082857600080fd5b600060208284031215611426578081fd5b610d62826113fe565b60008060408385031215611441578081fd5b61144a836113fe565b9150611458602084016113fe565b90509250929050565b600080600060608486031215611475578081fd5b61147e846113fe565b925061148c602085016113fe565b9150604084013590509250925092565b600080604083850312156114ae578182fd5b6114b7836113fe565b946020939093013593505050565b6000806000606084860312156114d9578283fd5b6114e2846113fe565b9250602084013560ff811681146114f7578283fd5b929592945050506040919091013590565b600060208284031215611519578081fd5b5035919050565b6001600160a01b0391909116815260200190565b6020808252825182820181905260009190848201906040850190845b818110156115755783516001600160a01b031683529284019291840191600101611550565b50909695505050505050565b602080825282518282018190526000919060409081850190868401855b828110156115c65781518051855286015160ff1686850152928401929085019060010161159e565b5091979650505050505050565b901515815260200190565b6000602080835283518082850152825b8181101561160a578581018301518582016040015282016115ee565b8181111561161b5783604083870101525b50601f01601f1916929092016040019392505050565b60208082526023908201527f45524332303a207472616e7366657220746f20746865207a65726f206164647260408201527f6573730000000000000000000000000000000000000000000000000000000000606082015260800190565b60208082526022908201527f45524332303a206275726e20616d6f756e7420657863656564732062616c616e60408201527f6365000000000000000000000000000000000000000000000000000000000000606082015260800190565b60208082526026908201527f4f776e61626c653a206e6577206f776e657220697320746865207a65726f206160408201527f6464726573730000000000000000000000000000000000000000000000000000606082015260800190565b60208082526022908201527f45524332303a20617070726f766520746f20746865207a65726f20616464726560408201527f7373000000000000000000000000000000000000000000000000000000000000606082015260800190565b60208082526026908201527f45524332303a207472616e7366657220616d6f756e742065786365656473206260408201527f616c616e63650000000000000000000000000000000000000000000000000000606082015260800190565b60208082526010908201527f5061757361626c653a2070617573656400000000000000000000000000000000604082015260600190565b60208082526030908201527f45524332303a207472616e7366657220616d6f756e742065786365656473206160408201527f7661696c61626c652062616c616e636500000000000000000000000000000000606082015260800190565b60208082526028908201527f45524332303a207472616e7366657220616d6f756e742065786365656473206160408201527f6c6c6f77616e6365000000000000000000000000000000000000000000000000606082015260800190565b6020808252818101527f4f776e61626c653a2063616c6c6572206973206e6f7420746865206f776e6572604082015260600190565b60208082526021908201527f45524332303a206275726e2066726f6d20746865207a65726f2061646472657360408201527f7300000000000000000000000000000000000000000000000000000000000000606082015260800190565b60208082526025908201527f45524332303a207472616e736665722066726f6d20746865207a65726f20616460408201527f6472657373000000000000000000000000000000000000000000000000000000606082015260800190565b60208082526024908201527f45524332303a20617070726f76652066726f6d20746865207a65726f2061646460408201527f7265737300000000000000000000000000000000000000000000000000000000606082015260800190565b60208082526025908201527f45524332303a2064656372656173656420616c6c6f77616e63652062656c6f7760408201527f207a65726f000000000000000000000000000000000000000000000000000000606082015260800190565b90815260200190565b91825260ff16602082015260400190565b60ff91909116815260200190565b60008219821115611ad757611ad7611b49565b500190565b600082821015611aee57611aee611b49565b500390565b600281046001821680611b0757607f821691505b60208210811415611b2857634e487b7160e01b600052602260045260246000fd5b50919050565b6000600019821415611b4257611b42611b49565b5060010190565b634e487b7160e01b600052601160045260246000fdfea264697066735822122015597d00ffe88cb40b6ee83ea20a6d75378f504d6f7c89b98dee5fe4623470b264736f6c63430008000033",
    "linkReferences": {},
    "deployedLinkReferences": {}
}